:03000000023E7A43
:103E7A0043AF01787FE4F6D8FD75A000758147024B
:023E8A003EC731
:0C487700CED8C8C1CAC020CFCE2120007E
:03000B0002488D1B
:09488D00758C80758A00C28D3221
:03001B0002002EB2
:03002E00C28F324C
:03002B0002475930
:10475900C0E0C083C082C0D0C2CF900554E024021B
:10476900F0900553E03400F0D0D0D082D083D0E06F
:01477900320D
:0300530002402048
:10402000C0E0C083C082C0D075D000C00753A1FBE0
:10403000900553E4F0A3F090057CE0FFA3E0A3CF4C
:10404000F0A3EFF0A3E0A3F0A3E0A3F090057CE4DD
:10405000F0A3F0900580F0900582F0900552E00406
:10406000F090058CE004F0900552E0B43C229005FD
:1040700051E004F0A3E4F0900551E0B43C12900547
:1040800050E004F0A3E4F0900550E0B41802E4F02E
:0B409000D007D0D0D082D083D0E03227
:0300230002447C18
:10447C00C0E0C0F0C083C082C0D075D000C000C006
:10448C0001C002C003C004C005C006C007309807B5
:10449C00AF9912432DC298309905C299124558D044
:1044AC0007D006D005D004D003D002D001D000D064
:0A44BC00D0D082D083D0F0D0E032DF
:0300330002219A0D
:10219A00C0E0C0F0C083C082C0D075D000C000C00B
:0D21AA0001C002C003C004C005C006C0078C
:1021B70020DF030222E490055BE0FFC36480948084
:1021C70050030222DC9005A9E0603E9005D7E0F5B8
:1021D70043E54325E025E024B1F582E43405F583A2
:1021E700E5D9F0E54325E025E024B0F582E43405A0
:1021F700F583E5DAF0E54325E025E024AFF582E451
:102207003405F583E5DBF0807EC3EF64809483506B
:10221700030222A09005D7E0F543E54394035067F6
:10222700E54325E025E024B1F582E43405F583E5AF
:10223700D9F0E54325E025E024B0F582E43405F53F
:1022470083E5DAF0E54325E025E024AFF582E434C1
:1022570005F583E5DBF0900561E5D9F0900560E5CC
:10226700DAF090055FE5DBF0123D30900563E0FEA4
:10227700A3E0FFE54325E025E024AFF582E434053C
:10228700F583EEF0A3EFF0900580E004F090055B96
:10229700E4F090055D04F0804290055BE0FF339524
:1022A700E0FEEF7802C333CE33CED8F9FF2461F5D1
:1022B7008274053EF583E5D9F074602FF5827405C5
:1022C7003EF583E5DAF0745F2FF58274053EF583FA
:1022D700E5DBF0800090055BE004F0C2DF20DE0361
:1022E7000223BF90055CE0C36480948350030223FC
:1022F7007D9005D8E0F543E54394015067E5432514
:10230700E025E024ADF582E43405F583E5DEF0E56C
:102317004325E025E024ACF582E43405F583E5DCCC
:10232700F0E54325E025E024ABF582E43405F583A9
:10233700E5DDF090056DE5DEF090056CE5DCF090ED
:10234700056BE5DDF0123DD590056FE0FEA3E0FFDC
:10235700E54325E025E024ABF582E43405F583EE7B
:10236700F0A3EFF0900582E004F090055CE4F090B4
:10237700055E04F0804090055CE0FF3395E0FEEFDA
:102387007802C333CE33CED8F9FF246DF5827405B6
:102397003EF583E5DEF0746C2FF58274053EF58318
:1023A700E5DCF0746B2FF58274053EF583E5DDF00F
:1023B70090055CE004F0C2DE90057DE004F0700655
:0623C70090057CE004F02B
:1023CD00D007D006D005D004D003D002D001D00064
:0B23DD00D0D0D082D083D0F0D0E0320E
:103D3000E4FBE4FAEA25E025E02463F582E43405B7
:103D4000F583E0FEA3E0FFEA25E025E0245FF582AD
:103D5000E43405F583E0FCA3E0D39FEC9E4063EAE6
:103D600025E025E0245FF582E43405F583E0FCA33B
:103D7000E0FDA3E0FEA3E0F5478E468D458C44EAC6
:103D800025E025E02463F582E43405F583E0FCA317
:103D9000E0FDA3E0FEA3E0FFEA25E025E0245FF5D7
:103DA00082E43405F5831215F7AF47AE46AD45AC56
:103DB00044EA25E025E02463F582E43405F5831226
:103DC00015F70AEA64026003023D340BEB640360FA
:043DD00003023D327B
:013DD40022CC
:103DD500E4FBE4FAEA25E025E0246FF582E4340506
:103DE500F583E0FEA3E0FFEA25E025E0246BF582FC
:103DF500E43405F583E0FCA3E0D39FEC9E4063EA41
:103E050025E025E0246BF582E43405F583E0FCA389
:103E1500E0FDA3E0FEA3E0F5478E468D458C44EA20
:103E250025E025E0246FF582E43405F583E0FCA365
:103E3500E0FDA3E0FEA3E0FFEA25E025E0246BF525
:103E450082E43405F5831215F7AF47AE46AD45ACB0
:103E550044EA25E025E0246FF582E43405F5831274
:103E650015F70AEA64026003023DD90BEB640360AF
:043E750003023DD730
:013E79002226
:1037160075AF0153D7F8C2AFE49006A9F090060042
:10372600F0A3F0900600E0FEA3E0FFC39455EE94EC
:1037360000501E7B0174AA2FF974053EFAE4121498
:103746001E900601E004F070DA900600E004F080B6
:10375600D2E4900600F0A3F0900600E0FEA3E0FF9E
:10376600C3945AEE9400501E7B0174502FF97405D1
:103776003EFAE412141E900601E004F070DA900698
:1037860000E004F080D2901000E493FE740193FFF1
:10379600123841E490058DF0900556E04480F01211
:1037A600483890058BEFF0E49005FFF012459F1224
:1037B6000A01900620E0FF120036E4900555F090CD
:1037C6000698E07002A3E060069005557401F0903B
:1037D60005A5E06008A3E06004A3E0700690055527
:1037E6007401F07B017A0179007D0112418C123C53
:1037F60083E4FF12485A7F06124883D2AF12001E96
:10380600121B869002C2E07002A3E060081231EA41
:103816009005FFEFF09005FFE0FF60E190025EE0AB
:10382600FEF4600990061FE0FDEEB505D0C2AF12AA
:0B3836000056D2AFE49005FFF080C206
:101ED400D3D3C0C12D332E3056565645525252528A
:101EE400525200417567203035203230313600437C
:101EF4004F4E464947555241544F5200070103562D
:101F0400455253494F4E0000000004FF1ED40044C4
:101F14004154450000000000000004FF1EE7004695
:101F24004C000000000000000000013FC8F5C34D54
:101F3400485A000000000000000000007A1200422D
:101F440041554400000000000000000001C20044AC
:101F54004550494E000000000000000000002354DA
:101F6400455354000000000000000000000000C1C0
:101F7400CDC1D13220312E3620000041756720308A
:101F84003520323031360000CDE520EDE0F1F2F0BD
:101F9400EEE5ED000000000000000000000000007D
:101FA400000000000152834A4C01420C0000422010
:101FB400000042AA000044CCC0000000000044CC51
:101FC400C0000000000044CCC00000000000BAAE15
:101FD4005365422DF958BC017B964381747BBC0147
:101FE4007B964381747B3D9A6613C53810003F8B02
:101FF400D4FABCC7A3984008454E42AAA148BF5092
:10200400E56042DC000000FF00447A00000240006A
:10201400000055F00001000200000000000B010068
:1020240002001D00000004040002002F000000054F
:1020340004000200330000ED01010002001E000054
:102044000008010002001F00000009010002002036
:102054000000000A01000200210000100204000236
:10206400003700001003040002003B0000100404C9
:102074000002006700001005040002006B0000105D
:1020840006040002006F0000100704000200730041
:102094000010080400020077000010090400020088
:1020A4007B0000100A010002007F0000100B0100F9
:1020B4000200800000001E04010200470006002404
:1020C400040102005F0002E5010400020027000091
:1020D400E50204000200230000E503040002002BD3
:1020E4000000E50401000200810000E5050400028F
:1020F40000820000E50601000200860000E50704F6
:10210400000200870000E508010002008B0000F0D7
:1021140001FF00020001001CF002FF04011F7F0008
:102124000CF003FF04011F73000CD001010801052A
:10213400520000D00201080105510000D00301083B
:102144000105500000D00401080105810000D005FC
:1021540001080105830000D00604080105F700000A
:10216400D00704080105EB0000D00804080105EFBE
:102174000000D00904080105F30000D00A04080196
:1021840005CF0000D00B04080105D30000000000B7
:0621940000000000000045
:103C8300E49005D7F0A3F0901F01939005CBF0E4E7
:103C9300A3F0A3F0A3F09005DBF090058CF0900661
:103CA30021E0FFA3E0FDA3E0FB1247E87B017A01DB
:103CB30079007D0112418C12003EE4FF12000EC216
:103CC300B67580F0E49005FBF0A3F0A3F0A3F0FF3A
:103CD300FEFDFC900684E0F8A3E0F9A3E0FAA3E07C
:103CE300FB1212A0603340317F007E407D9C7C45F7
:103CF300900684E0F8A3E0F9A3E0FAA3E0FB121234
:103D0300A05016900684E0FCA3E0FDA3E0FEA3E030
:103D1300FF9005CF1215F7800A9005CF12160344C2
:0D3D23007A0000900688E0FDE4FF023F0CEE
:061747008B2B8A2C892D7A
:10174D008B2E8A2F89308B318A328933EF8EF012AE
:10175D00168017AF002217C600231898010117CC69
:10176D00100F17E7101017F7102017F9102117FC9D
:10177D00102218111023182C1024183A1025185364
:10178D0010261865110017F9110118B0200118CD98
:10179D00200218EA2003190B20041B7BFFFF000019
:1017AD001B83AB2BAA2CA92D1213D89005DBF0604F
:1017BD00057F0112000E7F01227598D07F0122ABAB
:1017CD002BAA2CA92D124800AB2EAA2FA930121529
:1017DD00B39005CF1215F77F0422AB2BAA2CA92DA0
:1017ED001213D8FF12477A7F0122800302187DABB6
:1017FD002BAA2CA92D12452A852B2E852C2F852D14
:10180D00307F0422AB2BAA2CA92D124800AB31AA94
:10181D0032A93312147AFFAEF01247D07F0222ABF9
:10182D002BAA2CA92D1213D8FDE4FF8025AB2BAAD2
:10183D002CA92D1213D8C454F0FFE580540F4F641A
:10184D00F0F5807F0122AB2BAA2CA92D1213D8FD08
:10185D007F01123F0C7F0122AB2BAA2CA92D9000EA
:10186D00011213F1540FF5FC1213D8F5FB7F022270
:10187D00AB2BAA2CA92D124800AB31AA32A93312D9
:10188D00147AFFAEF01247B87F0222AB2BAA2CA917
:10189D002D12452AAB2EAA2FA9301215B3123BBD1E
:1018AD007F0422AB2BAA2CA92D12452AAB2EAA2FD1
:1018BD00A9301215B39005EB1215F79005FB803882
:1018CD00AB2BAA2CA92D12452AAB2EAA2FA930126B
:1018DD0015B39005EF1215F79005FC801BAB2BAAE5
:1018ED002CA92D12452AAB2EAA2FA9301215B39073
:1018FD0005F31215F79005FD7401F07F0422900594
:10190D00FBE0FFA3E05F60369005EFE0FCA3E0FD98
:10191D00A3E0FEA3E0FF900669E0F8A3E0F9A3E0E1
:10192D00FAA3E0FB1210FA90066DE0F8A3E0F9A31C
:10193D00E0FAA3E0FB1210099005F31215F79005DC
:10194D00FBE0FF9005FDE05F6048900669E0FCA3B9
:10195D00E0FDA3E0FEA3E0FFEC4D4E4F6034A3E0AD
:10196D00F8A3E0F9A3E0FAA3E0FB9005F3E0FCA3F4
:10197D00E0FDA3E0FEA3E0FF121005900669E0F87C
:10198D00A3E0F9A3E0FAA3E0FB1212039005EF1216
:10199D0015F7900679E0FCA3E0FDA3E0FEA3E0FFC0
:1019AD009005EFE0F8A3E0F9A3E0FAA3E0FB121035
:1019BD00FA900671E0F8A3E0F9A3E0FAA3E0FB12B8
:1019CD0010FA900669E0F8A3E0F9A3E0FAA3E0FBB2
:1019DD001210FAC004C005C006C007900679E0FCDD
:1019ED00A3E0FDA3E0FEA3E0FF9005EBE0F8A3E08C
:1019FD00F9A3E0FAA3E0FB1210FAD003D002D00154
:101A0D00D000121005C004C005C006C007900671B5
:101A1D00E0FCA3E0FDA3E0FEA3E0FF900679E0F873
:101A2D00A3E0F9A3E0FAA3E0FB1210FA90066DE033
:101A3D00F8A3E0F9A3E0FAA3E0FB1210FAA804A9B9
:101A4D0005AA06AB07D007D006D005D004121005A5
:101A5D00C004C005C006C007900675E0FCA3E0FDFC
:101A6D00A3E0FEA3E0FFA3E0F8A3E0F9A3E0FAA34F
:101A7D00E0FB1210FAA804A905AA06AB07D007D0FF
:101A8D0006D005D00412100590067DE0F8A3E0F90C
:101A9D00A3E0FAA3E0FB1210099005F71215F790D9
:101AAD000689E0FCA3E0FDA3E0FEA3E0FF9005F3B3
:101ABD00E0F8A3E0F9A3E0FAA3E0FB1212A06002A4
:101ACD00500F90068DE0FCE41213239005F71215CC
:101ADD00F7900681E0FCE41213239005F7E0F8A3DC
:101AED00E0F9A3E0FAA3E0FB1212A0404E900682AB
:101AFD00E0FCE41213239005F7E0F8A3E0F9A3E06E
:101B0D00FAA3E0FB1212A0600250309005F7E0FC42
:101B1D00A3E0FDA3E0FEA3E0FF121357AD077F0185
:101B2D00123F0C9005F3E0FCA3E0FDA3E0FEA3E063
:101B3D00FF123BBD7F0112477A8027900556E04486
:101B4D0020F09005897402F09005F7E0FCA3E0FD0C
:101B5D00A3E0FEA3E0FF90058E1215F790058D749E
:101B6D0001F0E49005FDF09005FCF07F0122D2C05C
:081B7D0075C0827F02227F0087
:011B8500223D
:063052008B268A27892865
:10305800EE60030231E7EF24FE700302312F24F003
:1030680060030231E79005CDE0AB26AA27A9281214
:10307800141E9005CEE0AB26AA27A92890000112BD
:1030880014309005DCE09000021214309005DDE069
:103098009000031214309005DEE0FEA3E0900004D7
:1030A800121430EE9000051214309005E0E0FEA3F3
:1030B800E0900006121430EE9000071214309005CC
:1030C800E2E0FCA3E0FDA3E0FEA3E0FF900008120D
:1030D80015D3E92408F9E43AFA12452A9005E6E0FE
:1030E800FCA3E0FDA3E0FEA3E0FFAB26AA27A928E6
:1030F80090000C1215D3E9240CF9E43AFA12452A87
:103108009005DBE0AB26AA27A928900010121430FE
:103118009005EAE0900011121430900683E09000C8
:10312800121214307F13229005CDE0AB26AA27A9EE
:103138002812141E9005CEE0AB26AA27A9289000D5
:10314800011214309005DCE0900002121430900552
:10315800DDE09000031214309005DEE0FEA3E0905D
:103168000004121430EE9000051214309005E0E0CF
:10317800FEA3E0900006121430EE900007121430FF
:103188009005E2E0FCA3E0FDA3E0FEA3E0FF9000D1
:10319800081215D3E92408F9E43AFA12452A9005E9
:1031A800E2E0FCA3E0FDA3E0FEA3E0FFAB26AA2734
:1031B800A92890000C1215D3E9240CF9E43AFA1264
:1031C800452A9005DBE0AB26AA27A9289000101213
:1031D80014309005EAE09000111214307F12227F1B
:0131E80000E6
:0131E90022C3
:101B860090055DE06002E4F090055EE06002E4F03E
:101B960090055DE07003021DE4C2AF9005D7E00436
:101BA600F0E0C394034002E4F09005D7E0FF70062E
:101BB60075E64A75D283EFB4010675D28775E64B92
:101BC600EFB4020675D28775E64CD2AFE490055D98
:101BD600F09005AFE0FEA3E0FDEDFFE4FCFD90050F
:101BE600481215F7900548E0FCA3E0FDA3E0FEA32C
:101BF600E0FFE4121319900649E0F8A3E0F9A3E028
:101C0600FAA3E0FB1210FA90064DE0F8A3E0F9A360
:101C1600E0FAA3E0FB1210098F258E248D238C2277
:101C2600E4FFFE7D807C3FAB25AA24A923A82212CF
:101C360012A0600E400C7F0112000EE490058CF09D
:101C4600802090058CE0D3943C40047F0180027F85
:101C5600009005D9E05F600A9005DBE07004FF1292
:101C6600000E900683E07003021DE49005B3E0FECB
:101C7600A3E0FDEDFFE4FCFD9005481215F7900585
:101C860048E0FCA3E0FDA3E0FEA3E0FFE412131985
:101C9600900651E0F8A3E0F9A3E0FAA3E0FB1210E6
:101CA600FA900655E0F8A3E0F9A3E0FAA3E0FB12E8
:101CB6001009AB25AA24A923A8221210FA8F258E73
:101CC600248D238C229005CFE0FCA3E0FDA3E0FE4B
:101CD600A3E0FFAB25AA24A923A8221212A0600222
:101CE6005003021DDF9005FEE0D394035003021D4E
:101CF600D7E4FF12477AAF25AE24AD23AC22900578
:101D0600D31215F7900556E04410F090058874013B
:101D1600F0AF25AE24AD23AC2290058E1215F790B8
:101D260005AFE0FEA3E0FDEDFFE4FCFD90054812E3
:101D360015F7900548E0FCA3E0FDA3E0FEA3E0FF55
:101D4600E4121319900649E0F8A3E0F9A3E0FAA318
:101D5600E0FB1210FA90064DE0F8A3E0F9A3E0FAD2
:101D6600A3E0FB1210098F258E248D238C2290056B
:101D7600921215F79005B3E0FEA3E0FDEDFFE4FC3B
:101D8600FD9005481215F7900548E0FCA3E0FDA379
:101D9600E0FEA3E0FFE4121319900651E0F8A3E079
:101DA600F9A3E0FAA3E0FB1210FA900655E0F8A3B7
:101DB600E0F9A3E0FAA3E0FB1210098F258E248D2B
:101DC600238C229005961215F790058D7403F080EA
:101DD600089005FEE004F08005E49005FEF090050D
:101DE6005EE07003021ED39005D8E0F521AF21EF27
:101DF6003395E0FEEF7802C333CE33CED8F9FDAC8F
:101E06000624ABF58274053CF583E0FE74AC2DF533
:101E16008274053CF583E0FDEDFFE4FCFD9005488A
:101E26001215F7900548E0FCA3E0FDA3E0FEA3E051
:101E3600FFE4121319C004C005C006C007AF21EFA6
:101E46003395E0FEEF7803C333CE33CED8F9246161
:101E5600F58274063EF583E0F8A3E0F9A3E0FAA361
:101E6600E0FBD007D006D005D0041210FAC004C09B
:101E760005C006C007AF21EF3395E0FEEF7803C338
:101E860033CE33CED8F92465F58274063EF583E069
:101E9600F8A3E0F9A3E0FAA3E0FBD007D006D0054B
:101EA600D0041210098F258E248D238C229005D8FC
:101EB600E004F0E0C394014002E4F09005D8E01499
:0D1EC600600304700375D34DE490055EF0D9
:011ED30022EC
:10471200E4F52CF52DEF8EF012168047290D024795
:104722002C0D12000047347F0122740212141E7FE6
:0447320001227F00E1
:014736002260
:103BBD009005E21215F7900639E0FCA3E0FDA3E0B5
:103BCD00FEA3E0FF9005E2E0F8A3E0F9A3E0FAA37D
:103BDD00E0FB1210FA90063DE0F8A3E0F9A3E0FA3D
:103BED00A3E0FB12100912135790068E1215F7E47D
:103BFD007FFF7EFFFDFC90068EE0F8A3E0F9A3E0C9
:103C0D00FAA3E0FBD312159D400A74FF900406F051
:103C1D00A3F0803B900639E0FCA3E0FDA3E0FEA3FA
:103C2D00E0FF9005E2E0F8A3E0F9A3E0FAA3E0FBE2
:103C3D001210FA90063DE0F8A3E0F9A3E0FAA3E034
:103C4D00FB121009121357900406EEF0A3EFF0903B
:103C5D00068EE0FCA3E0FDEC335007E4900406F083
:103C6D00A3F0900406E0FEA3E0FF9005DEEEF0A3C6
:063C7D00EFF01247B8222F
:0D000E009005D9EFF06003D2B222C2B222F9
:10477A00EF24FF9280D2B6AC07E4121323E4FBFACB
:10478A00F978401210FA121357C2B69005EAEFF000
:01479A0022FC
:1047B8008E348F35D281C282C2831248499005DE79
:0847C800E534F0A3E535F02211
:1047D0008E348F35D281D282C2831248499005E04F
:0847E000E534F0A3E535F022F9
:0242CE00AD073A
:1042D000D281D282C283C2FDD2A3C2A0C2A1C2A394
:1042E000E4FCC2A1A2A0B392A0C2A1A2A0B392A0DA
:1042F0000CBC02EE7C07C3EC64809480402A7401FD
:104300007E00A804088005C333CE33CED8F9FFED74
:10431000FBEF5B7004C2A18002D2A1A2A0B392A065
:0C4320001CA2A0B392A080CED2A3D2FDBC
:01432C00226E
:023F0C00A90703
:103F0E00C281D282C283C2FDD2A3C2A0C2A1C2A369
:103F1E007C01C3EC64809480402A74017E00A80466
:103F2E00088005C333CE33CED8F9FFE9FBEF5B70C3
:103F3E0004C2A18002D2A1A2A0B392A01CA2A0B3DF
:103F4E0092A080CE7C07C3EC64809480402A7401DA
:103F5E007E00A804088005C333CE33CED8F9FFED1A
:103F6E00FBEF5B7004C2A18002D2A1A2A0B392A00B
:103F7E001CA2A0B392A080CED2A3D2FDE9540124FC
:0A3F8E00DCF582E43405F583EDF064
:013F98002206
:10483800E4FFE5C030E2010FE5DF20E703430702AC
:01484800224D
:10485A00EF33333354F8FEEF25E04E4401F5DF22FF
:0D486A008F21C2AFD2C08FC0D2AFAF2122CC
:0A488300EFC454F04402FF02486A3B
:05001E007F060248838B
:030036008FD42242
:1047E8008FD28DE68BD375D133D2AEC2DFC2DE75E0
:0847F800FD03E4F5FCF5FB22D2
:10459F00758911758DD7758B09C28FD28ED2AB7578
:1045AF008C80E4F58AC28DD28CD2A9C2CDC2CCC286
:1045BF00C8C2C9C2CB75CD80F5CC75CB80F5CAD238
:0D45CF00ADD2CA75A60175A11375A904220D
:10481400AD07AC0675B90F8CC7EDF5C675B981AF98
:02482400BC22B4
:04438C00AB07AA06CB
:1043900075B90FEBAE027802CEC313CE13D8F9EE87
:1043A000F5C7EBAE027802CEC313CE13D8F9F5C62B
:1043B00075B90175B9057E00EB5403FFEE701CEF73
:1043C00014600E14600F1460102403700E8DBC80F6
:0E43D0000A8DBD80068DBE80028DBF75B902BC
:0143DE0022BC
:1046E800EFC39440402375B9F08FC7E4F5C675B998
:1046F800058FC775C64075B9058FC775C68075B96A
:0A470800058FC775C6C075B90522FC
:10482600EFC39440400B75B9F08FC7E4F5C675B970
:0248360002225C
:10443000E52C75F002A42409FFE435F0FEAB26E577
:07444000282FF9E5273EFAE1
:104447001213D8FED39439EE400524C9FF80032404
:10445700D0FFEFC454F0FF9000011213F1FED39484
:10446700394007EE24C94207800A9000011213F170
:0444770024D0420704
:01447B00221E
:063948008B268A27892866
:10394E001213D8643A6003023A22E92401F9E43AE8
:10395E00FA1244478F29AB26E5282407F9E43527C8
:10396E00FA1244478F2CE52C6003023A0EAB26E583
:10397E00282403F9E43527FA1244478F2AAB26E5AB
:10398E00282405F9E43527FA1244478F2B9006A90F
:10399E00E0FF652A604FEF60081246E8E0FF12482C
:1039AE00269006A9E52AF0E4F52CE52AFE7C00E433
:1039BE00252CFFEC3E8F82F583E493FF7400252CBB
:1039CE00F8EFF2052CE52CB4FFE0E4F52CE52CC362
:1039DE0095295040124430AE2B052B74002EF8EF73
:1039EE00F2052C80E8E4F52CE52CC3952950251220
:1039FE004430AE2B052B74002EF8EFF2052C80E828
:103A0E009006A9E0FF60081246E8E0FF124826E49F
:043A1E009006A9F075
:013A22002281
:03002600010D00C9
:10003E00A2AF9200C2AF75F83443A90143A910A232
:03004E000092AF6E
:01005100228C
:104849009006A7EEF0A3EFF053A0F7E5F7E4F5F72C
:01485900223C
:03003B000246502A
:10465000C0E0C083C082C0D0C2AF050DE5F7E50D54
:10466000B401059006A78009E50DB402099006A7DC
:10467000A3E0F5F7800643A008750D00D2AFD0D0B7
:07468000D082D083D0E032AC
:102A6E00000011892312329B462457AD653674BF80
:102A7E008C489DC1AF5ABED3CA6CDBE5E97EF8F730
:102A8E00108101083393221A56A5472C75B7643E60
:102A9E009CC98D40BFDBAE52DAEDCB64F9FFE87610
:102AAE002102308B02101399672676AF443455BD40
:102ABE00AD4ABCC38E589FD1EB6EFAE7C87CD9F5F0
:102ACE003183200A1291031877A7662E54B5453C20
:102ADE00BDCBAC429ED98F50FBEFEA66D8FDC974D0
:102AEE004204538D6116709F042015A9273236BB00
:102AFE00CE4CDFC5ED5EFCD7886899E1AB7ABAF3B0
:102B0E005285430C7197601E14A1052837B3263ADF
:102B1E00DECDCF44FDDFEC5698E98960BBFBAA728F
:102B2E006306728F4014519D252234AB063017B9BF
:102B3E00EF4EFEC7CC5CDDD5A96AB8E38A789BF16F
:102B4E007387620E5095411C35A3242A16B107389F
:102B5E00FFCFEE46DCDDCD54B9EBA8629AF98B704F
:102B6E0084089581A71AB693C22CD3A5E13EF0B77F
:102B7E00084019C92B523ADB4E645FED6D767CFF2F
:102B8E0094898500B79BA612D2ADC324F1BFE0365F
:102B9E0018C109483BD32A5A5EE54F6C7DF76C7E0F
:102BAE00A50AB48386189791E32EF2A7C03CD1B53F
:102BBE00294238CB0A501BD96F667EEF4C745DFDEF
:102BCE00B58BA40296998710F3AFE226D0BDC1341F
:102BDE0039C3284A1AD10B587FE76E6E5CF54D7CCF
:102BEE00C60CD785E51EF497802891A1A33AB2B3FF
:102BFE004A445BCD695678DF0C601DE92F723EFBAF
:102C0E00D68DC704F59FE41690A98120B3BBA232DE
:102C1E005AC54B4C79D7685E1CE10D683FF32E7A8E
:102C2E00E70EF687C41CD595A12AB0A3823893B1BE
:102C3E006B467ACF485459DD2D623CEB0E701FF96E
:102C4E00F78FE606D49DC514B1ABA02292B983309E
:102C5E007BC76A4E58D5495C3DE32C6A1EF10F784E
:103A2300150E150EA80EA60408A605150E150E15DF
:103A33000EA80EA60308A60208A601E50E24FCF5AF
:013A43000E74
:103A4400F8080874FFF608F6A80EE4F608F6E50E82
:103A54002407F8E6FE08E6FFA80EE6FC08E6FDC328
:103A64009FEC9E505FE50E2404F8860308E6FA08EE
:103A7400E6F98D828C831213F1B41011E50E24093A
:103A8400F8E66009A80E0806E618700106A80EE616
:103A9400FE08E6F5828E831213F1FFA80E0808E6ED
:103AA400FC08E6FDECFEEF6DA80E08081246BDA862
:103AB4000E0808A60608A607A80E0806E618708EC3
:103AC40006023A52A80E0808C000E6FE08E6FF7493
:103AD400036FD0001246BDA80E0808A60608A60764
:093AE400A80E0808E6FE08E6FF42
:073AED00E50E240AF50E228C
:0D46BD00A60608F6A80E0808E6FE08E6FFAF
:1046CA00AC06EF25E0FFE433FE746E2FF582742A00
:0E46DA003EF583ECFFE493FE7401936FFF2224
:06461700FDE52234FFFC6A
:06461D008B248A2589268A
:10462300E4F527D3ED9400EC9400401EAB24AA25B7
:10463300A9268D828C831213F164106003AF2722A5
:0C464300632701ED1D70DC1C80D9AF273F
:01464F002248
:0A4114008B248A2589268C278D282C
:10411E00E4F52BF529752A02E52824FCFFE5273462
:10412E00FFFEC3E52A9FE5299E5050AB24AA25A980
:10413E0026852A828529831213F164107033052B8C
:10414E00AF2AAE29C3EF9528EE9527501CAB24AAB3
:10415E0025A9268F828E83A31213F18F828E83124E
:10416E0014300FBF00010E80DBE5281528700215F4
:0D417E0027052AE52A70A10529809DAF2B99
:01418B002211
:060EA4008B338A3489350E
:100EAA00E4F540AB39AA3AA93B12147AFFAEF0AB8B
:100EBA0033AA34A935F5828E8374101214308F82C6
:100ECA008E83A37402121430E4F53EF53FC3E53F66
:100EDA00953DE53E953C5078AB36AA37A938853F13
:100EEA0082853E831213F1FFAB39AA3AA93B121449
:100EFA007AFDE5402DFDE435F0CD2402CD3400AB7A
:100F0A0033AA34A9358D82F583EF12143074C625BD
:100F1A003FF5827402353EF583E0B410260540ABF6
:100F2A0039AA3AA93B12147A2540FFE435F0CF24B6
:100F3A0002CF3400AB33AA34A9358F82F5837410FB
:100F4A001214300540053FE53F7082053E020ED778
:100F5A00AB39AA3AA93B12147A2540FFE435F0FED0
:100F6A008F82F583A3A3AB33AA34A9357410121464
:100F7A00308F828E83A3A3A37403121430150EA894
:100F8A000EE4F6AC3CAD3DAB36AA37A938123A238B
:100F9A008E418F42AB39AA3AA93B12147AFDE54039
:100FAA002DFDE435F0CD2404CD3400AB33AA34A9A9
:100FBA00358D82F583EF121430E541FFAB39AA3A39
:100FCA00A93B12147AFDE5402DFDE435F0CD240548
:100FDA00CD3400AB33AA34A9358D82F583EF1214D0
:100FEA0030E5402406FFE433AB39AA3AA93B8FF037
:030FFA000214DD01
:1044C6008B2B8A2C892DE5324531603DC29CAB2B66
:1044D600E52D2404F9E4352CFAC003C002C0018599
:1044E6002E36852F37853038E52D245AF9E52C34BC
:1044F600018B39F53A893B85313C85323DD001D077
:0A45060002D003120EA41245582241
:1045580090025AE0FEA3E0FFD39400EE94004036A8
:10456800900258E0FCA3E0FDD3EF9DEE9C401A902A
:104578000258E475F001121464FE740425F0F58203
:1045880074013EF583E0F59922E4900258F0A3F017
:07459800A3F0A3F0D29C2266
:10432D009002C2E0FCA3E0FDC39464EC9400504104
:10433D00745C2DF58274023CF583EFF09002C3E0BE
:10434D0004F070069002C2E004F09002C2E0FCA3FB
:10435D00E0FD64014C7007EF64106022800BED648A
:10436D00024C701AEF64026015E49002C2F0A3F0E3
:0F437D002290025CEFF09002C2E4F0A304F02261
:1031EA00E4F5219002C2E0F522A3E0F523D3E5231A
:1031FA009403E5229400406B745B2523F5827402E4
:10320A003522F583E06402705A745A2523F58274D4
:10321A00023522F583E0641070497B017A02795CF9
:10322A00E52324FE124617EF603974592523F582E7
:10323A0074023522F583E0B4031174582523F5820C
:10324A0074023522F583E0641060189002C2E4F03B
:10325A00A37402F0752200F52390025C7410F0A3A7
:10326A007402F0C3E5239406E52294005003023366
:10327A005A74592523F58274023522F583E06403D2
:10328A00600302335A74582523F58274023522F5F5
:10329A0083E06410600302335A7B017A02795CE5A9
:1032AA002324FC124617EF700302335A150EA80E98
:1032BA007601E52324FAFDE52234FFFC7B017A023C
:1032CA00795E123A23AC06AD07745B2523F5827446
:1032DA00023522F583E0FE745A2523F582740235FD
:1032EA0022F583E0FBEB6D7002EC6E703AE5232465
:1032FA00FA9002C1F0E52234FF9002C0F07B017A15
:10330A0002795CAD23AC22124114C39002C1E09F42
:10331A00F09002C0E09400F090025FE0F521E490A2
:10332A0002C2F0A3F08029900556E07023E0442001
:10333A00F090058974CAF090058D7401F0AC22AD45
:10334A0023E412131E90058E1215F7A2B4B392B499
:02335A00AF21A1
:01335C00224E
:10418C0012163400000000900158E4F5F01215628C
:10419C0090015AE4F5F01215629001C0E4F5F012AA
:1041AC0015629001C2E4F5F0121562ED24FE601563
:1041BC0014601714601C14601E14602024057022F7
:1041CC00759E868008759E858003759E84759D12EC
:1041DC008010759E838008759E828003759E817504
:0E41EC009D2D759850C298C299D2ACD2BC22BB
:1045DC008B268A27892890061FE09002C6F0A3ED4F
:1045EC00F0A3741FF0A3E52AF0752E01752F027548
:1045FC0030C67531007532041244C6AB26AA27A901
:0B460C00289001C4E475F00402156260
:1047370090061FE09002C6F0A3EDF0A3741FF0A34C
:10474700E52AF09001C4E475F0041215627E007F3B
:0247570004223A
:06409B008B2C8A2D892EFA
:1040A100E4F534F535C3E5359533E53495325043C0
:1040B100AB2CAA2DA92E9001C41214A52535FFE51C
:1040C1003435F0FEC3EF9440EE9401501CAB2FAA9F
:1040D10030A9318535828534831213F1FD74C62FE1
:1040E100F58274023EF583EDF00535E53570B605D0
:1040F1003480B2AB2CAA2DA92E9001C4E5328533B0
:10410100F01215159001C41214A52533FFE53235BF
:02411100F0FEBE
:014113002289
:10479B008B268A278928752E01752F027530C690B6
:0D47AB0001C41214A5F53285F0310244C698
:062852008B088A09890AC7
:10285800E4F50BAF0B050B8F82F58374041214306B
:10286800AF0B050B8F82758300E4121430E4F50C6E
:10287800E50C25E025E024B0F582E43405F583E095
:10288800AB08AA09A90AAE0B050B8E827583001244
:102898001430E50C25E025E024AFF582E43405F595
:1028A80083E0AE0B050B8E82758300121430E50CA5
:1028B80025E025E024AFF582E43405F583E0FEE564
:1028C8000C25E025E024B0F582E43405F583E0FD2D
:1028D800EDFFE4FCFD9005481215F7900548E0FC73
:1028E800A3E0FDA3E0FEA3E0FFE4121319E50C75D5
:1028F800F008A42449F582E43406F583E0F8A3E05F
:10290800F9A3E0FAA3E0FB1210FAE50C75F008A4AD
:10291800244DF582E43406F583E0F8A3E0F9A3E05A
:10292800FAA3E0FB12100990054C1215F790054C1C
:10293800E0FCA3E0FDA3E0FEA3E0FFAB08AA09A921
:102948000A850B827583001215D37E00E9250BF9E1
:10295800EE3AFA12452A7404250BF50B050CE50C22
:10296800C394035003022878E4F50CE50C25E02510
:10297800E024ACF582E43405F583E0AB08AA09A9A4
:102988000AAE0B050B8E82758300121430E50C25F8
:10299800E025E024ABF582E43405F583E0AE0B05D1
:1029A8000B8E82758300121430E50C25E025E02497
:1029B800ABF582E43405F583E0FEE50C25E025E07F
:1029C80024ACF582E43405F583E0FDEDFFE4FCFD7D
:1029D8009005481215F7900548E0FCA3E0FDA3E038
:1029E800FEA3E0FFE4121319E50C75F008A42461B6
:1029F800F582E43406F583E0F8A3E0F9A3E0FAA34E
:102A0800E0FB1210FAE50C75F008A42465F582E4E1
:102A18003406F583E0F8A3E0F9A3E0FAA3E0FB129B
:102A2800100990054C1215F790054CE0FCA3E0FD49
:102A3800A3E0FEA3E0FFAB08AA09A90A850B8275EB
:102A480083001215D37E00E9250BF9EE3AFA1245F8
:102A58002A7404250BF50B050CE50CC394015003EF
:052A6800022973AF0B11
:012A6D002246
:062635008B268A2789288C
:10263B00E4F529F52AE52A25E025E024B2F582E424
:10264B003405F583E06029E52A75F008A42449F5E3
:10265B0082E43406F583E0FCA3E0FDA3E0FEA3E0F7
:10266B00FFE52A25E025E024BFF582E43405804C04
:10267B00E52A25E025E024AFF582E43405F583E077
:10268B00FEE52A25E025E024B0F582E43405F58348
:10269B00E0FDEDFFE4FCFD9005481215F7900548B1
:1026AB00E0FCA3E0FDA3E0FEA3E0FFE4121319E5B9
:1026BB002A75F008A42449F582E43406F583E0F882
:1026CB00A3E0F9A3E0FAA3E0FB1210FAE52A75F0F8
:1026DB0008A4244DF582E43406F583E0F8A3E0F971
:1026EB00A3E0FAA3E0FB12100990054C1215F7902A
:1026FB00054CE0FCA3E0FDA3E0FEA3E0FFAB26AAA4
:10270B0027A9288529827583001215D37E00E92518
:10271B0029F9EE3AFA12452A74042529F529052AD6
:10272B00E52AC394035003022640E4F52AE52A2543
:10273B00E025E024AEF582E43405F583E06029E57D
:10274B002A75F008A42461F582E43406F583E0FCD5
:10275B00A3E0FDA3E0FEA3E0FFE52A25E025E024AE
:10276B00BBF582E43405804CE52A25E025E024AB5B
:10277B00F582E43405F583E0FEE52A25E025E02427
:10278B00ACF582E43405F583E0FDEDFFE4FCFD9050
:10279B0005481215F7900548E0FCA3E0FDA3E0FE09
:1027AB00A3E0FFE4121319E52A75F008A42461F5E0
:1027BB0082E43406F583E0F8A3E0F9A3E0FAA3E0A2
:1027CB00FB1210FAE52A75F008A42465F582E434AF
:1027DB0006F583E0F8A3E0F9A3E0FAA3E0FB1210FF
:1027EB000990054C1215F790054CE0FCA3E0FDA3F6
:1027FB00E0FEA3E0FFAB26AA27A9288529827583D3
:10280B00001215D37E00E92529F9EE3AFA12452A72
:10281B0074042529F529052AE52AC39401500302DE
:10282B002738AB26AA27A928AF2905298F827583BC
:10283B0000E580121430AF2905298F82758300E5DE
:06284B00A0121430AF29B9
:012851002264
:020056008F21F8
:10005800E52112165A059201008B0200BF0300F039
:100068000401271207A214081715085D1605302089
:10007800054A2108493309B13409F63509713600B2
:100088000009FE7B017A017900900556E0F52A7D8A
:10009800021247377B017A04790812263575320037
:1000A8008F33752F017530047531087B017A01791A
:1000B8000012409B0205097B017A017900900556E0
:1000C800E0F52A7D031247371223E8900556E07BB6
:1000D800017A01790030E50AF52A7D031245DC0230
:1000E80009F112479B0209F17B017A017900900519
:1000F80056E0F52A7D04124737900260E090040824
:10010800F0752F01753004753108753200753301AB
:100118007B017A01790012409B123AF40207967B20
:10012800017A017900900556E0F52A7D12124737C9
:10013800752F017530057531507532007533017BA7
:10014800017A01790012409B752F017530057531D0
:10015800517532007533017B017A01790012409B99
:10016800752F017530057531527532007533017B75
:10017800017A01790012409B900553E0FCA3E0FA54
:10018800ECFF3395E0EAFE900408EEF0A3EFF0757B
:100198002F017530047531087532007533027B0103
:1001A8007A01790012409B900408E5D2F0A3E5E6B5
:1001B800F0A3E5D3F0A3E5D1F0A3E5D4F0752F01C2
:1001C8007530047531087532007533057B017A0185
:1001D800790012409B900408E5FBF0A3E5FCF0755C
:1001E8002F017530047531087532007533027B01B3
:1001F8007A01790012409B900408E580F0A3E5A0FD
:10020800F0752F01753004753108753200753302A9
:100218007B017A01790012409B900577124513758E
:100228002F017530047531087532007533047B0170
:100238007A01790012409B9004087404F0E4A3F05A
:10024800752F01753004753108F5327533027B015D
:100258007A01790012409BE4F522E52225E025E0A9
:1002680024B0F582E43405F583E0900408F0E52233
:1002780025E025E024AFF582E43405F583E0900419
:1002880009F0752F01753004753108753200753322
:10029800027B017A01790012409BE52225E025E0E6
:1002A80024AFF582E43405F583E0FEE52225E02558
:1002B800E024B0F582E43405F583E0FDEDFFE4FCCD
:1002C800FD9005481215F7900548E0FCA3E0FDA352
:1002D800E0FEA3E0FFE4121319E52275F008A42458
:1002E80049F582E43406F583E0F8A3E0F9A3E0FADF
:1002F800A3E0FB1210FAE52275F008A4244DF5825C
:10030800E43406F583E0F8A3E0F9A3E0FAA3E0FB00
:1003180012100990054C1215F7E52225E025E02476
:10032800B2F582E43405F583E0605AE52275F008F9
:10033800A42449F582E43406F583E0FCA3E0FDA398
:10034800E0FEA3E0FFE52225E025E024BFF582E4F6
:100358003405F583E0F8A3E0F9A3E0FAA3E0FB1283
:1003680010FAE52275F008A4244DF582E43406F568
:1003780083E0F8A3E0F9A3E0FAA3E0FB12100990E8
:10038800054C1215F7124510752F0175300475319B
:10039800087532007533047B017A01790012409B9D
:1003A8000522E522C394035003020262E4F522E524
:1003B8002225E025E024ACF582E43405F583E090BD
:1003C8000408F0E52225E025E024ABF582E43405B5
:1003D800F583E0900409F0752F0175300475310834
:1003E8007532007533027B017A01790012409BE572
:1003F8002225E025E024ABF582E43405F583E0FE10
:10040800E52225E025E024ACF582E43405F583E017
:10041800FDEDFFE4FCFD9005481215F7900548E056
:10042800FCA3E0FDA3E0FEA3E0FFE4121319E5221C
:1004380075F008A42461F582E43406F583E0F8A396
:10044800E0F9A3E0FAA3E0FB1210FAE52275F00840
:10045800A42465F582E43406F583E0F8A3E0F9A363
:10046800E0FAA3E0FB12100990054C1215F7E522FB
:1004780025E025E024AEF582E43405F583E0605AF2
:10048800E52275F008A42461F582E43406F583E0DA
:10049800FCA3E0FDA3E0FEA3E0FFE52225E025E0C4
:1004A80024BBF582E43405F583E0F8A3E0F9A3E082
:1004B800FAA3E0FB1210FAE52275F008A42465F50A
:1004C80082E43406F583E0F8A3E0F9A3E0FAA3E0B8
:1004D800FB12100990054C1215F7124510752F01E3
:1004E8007530047531087532007533047B017A0163
:1004F800790012409B0522E522C3940150030203B0
:10050800B7AF217E007B017A047908123052753228
:10051800008F33752F017530047531087B017A011E
:10052800790012409B0207967B017A02795C12429D
:10053800677B017A017900900556E0F52A7D200253
:1005480008437B017A017900900556E0F52A7D2160
:10055800124737752F017530027531617532007594
:1005680033017B017A01790012409B1241FA900510
:1005780056E07B017A01790030E509F52A7D2112E0
:1005880045DC800312479B0209F17B017A0179005F
:10059800900556E0F52A7D01124737E4F522E52259
:1005A800901F7393FF74082522F582E43404F583C1
:1005B800EFF074082522F582E43404F583E0700E28
:1005C80074082522F582E43404F5837420F00522AA
:1005D800E522B40BC9E4F522900555E06007E52251
:1005E8009048778005E522901F7F93FF741325229A
:1005F800F582E43404F583EFF074132522F582E4E0
:100608003404F583E0700E74082522F582E434047E
:10061800F5837420F00522E522B40BBCE490041E97
:10062800F0752F01753004753108F5327533177B75
:10063800017A01790012409B900692E0FCA3E090B9
:100648000408F0ECA3F0D3900699E0940090069883
:10065800E0940040047F0180027F0090059EE0FE48
:1006680025E04F90040AF0E4A3F0752F01753004DB
:10067800753108F5327533047B017A01790012402F
:100688009B900698E07002A3E06040900408745BB9
:10069800F0A37443F0A37452F0A37443F0A374203E
:1006A800F0A37445F0A37452F0A3F0A3745DF0A313
:1006B8007420F0752F017530047531087532007596
:1006C800330A7B017A01790012409B900408745B1D
:1006D800F0A37443F0A3744FF0A314F0A37446F08E
:1006E800A37449F0A37447F0A3743AF0752F017509
:1006F80030047531087532007533087B017A017949
:100708000012409B90059EE0601D9004087445F01F
:10071800A37452F0A3F0752F017530047531087574
:1007280032007533038020900694E0FEA3E0FF7B3F
:10073800017A0479081243DF752F01753004753189
:10074800087532007533047B017A01790012409BE9
:10075800900408745DF0A37420F0752F01753004BF
:100768007531087532007533027B017A0179001200
:10077800409BE4900408F0752F017530047531082A
:10078800F5327533017B017A01790012409B7B01B8
:100798007A01790012479B0209F17B017A017900FD
:1007A800900556E0F52A7D14124737E4F5227403C4
:1007B8002522F582E43406F583E0FF74082522F546
:1007C80082E43404F583EFF074082522F582E434DA
:1007D80004F583E0B4FF0D74082522F582E434049F
:1007E800F583E4F00522E522B41CC3752F017530AA
:1007F800047531087532008522337B017A0179004E
:1008080012409B7B017A01790012479B0209F17B18
:10081800017A017900900556E0F52A7D15124737CF
:100828007B017A0279607F017EF012335D7B017A69
:10083800017900900556E0F52A7D151245DC02097C
:01084800F1BE
:10084900C2AFE4F5217AE0F9F5238A24F5251216D9
:04085900AD0209FEE5
:10085D007B017A017900900556E0F52A7D16124745
:10086D003712468790058DE0FFD39400405AEFD3A1
:10087D0094045054752F0175300575318D75320006
:10088D007533017B017A01790012409BE4F52290CA
:10089D00058DE0FFE522C39F502EE52225E025E0E2
:1008AD00248EF582E43405F583124513752F0175F9
:1008BD0030047531087532007533047B017A017986
:1008CD000012409B052280C77B017A0179001247F7
:1008DD009BE4900556F0F52190059EE0700302090A
:1008ED00FE900556E04420F090059EE024649005AE
:1008FD0089F090058D7404F09005A6E025E0FDE4E7
:10090D0033FCA3E075F004A4FFE5F04CFEEF4DFFC2
:10091D009005A5E0FDEF4DAC066407FDE412131E36
:10092D0090058E1215F790059FE0FCA3E0FDE412F3
:10093D00131E9005921215F79005A1E0FCA3E0FDA2
:10094D00E412131E9005961215F79005A3E0FCA373
:10095D00E0FDE412131E90059A1215F7E490059E22
:10096D00F00209FEE4900556F07B017A017900F55D
:10097D002A7D36124737E4900408F0752F01753043
:10098D0004753108F5327533017B017A0179001256
:10099D00409B7B017A01790012479BE49006A9F0F8
:1009AD00F521804DE4900556F07B017A017900F533
:1009BD002A7D341247377B017A027960123948E477
:1009CD00900408F0752F01753004753108F53275F6
:1009DD0033017B017A01790012409B7B017A017909
:1009ED000012479BE4F5218008E4F521D2C075C0C3
:0309FD0082AF21A5
:010A000022D3
:064267008B268A2789283E
:10426D00E4F52B9000041213F124FE7053E4F529AC
:10427D00AB26AA27A9289000051213F1FFE529C343
:10428D009F503DE52B2406FFE433FEE5292FF582F3
:10429D00E43EF5831213F1F52AFF7E00E52B24078A
:1042AD00FDE433FC7A00ED2529FDEA3CFCE92DF90E
:1042BD00E5273CFA12335DEF252BF52B052980B050
:0142CD0022CE
:1041FA00900262E0F527900260E024FE705EE4F52A
:10420A0026900261E0FFE526C39F5050900408E51E
:10421A0027F0FF7E007B017A0479091234A7EF6048
:10422A001C752F017530047531082401F533E43308
:10423A00F5327B017A01790012409B800D90055678
:10424A00E04420F09005897401F074632526F58214
:0C425A00E43402F583E0F527052680A57A
:014266002235
:100A0100E4FFFE124814EFF46003020B35C374A82F
:100A1100948BFF741F941FFE1248148F2574FF904E
:100A2100069EF0A3F0E4F521F522748B2522F974DA
:100A31001F35218982F583E493F523C3741F940242
:100A4100FF74069406FEEFB5220CEEB52108E525EC
:100A5100F4600385252390069EE0FCA3E0FDED658F
:100A61002325E0FFE433FE746E2FF582742A3EF5F0
:100A710083ECFFE493FE7401936FFF90069EEEF00A
:100A8100A3EFF07B0174022522F974063521FAE502
:100A91002312141EAD23AF22AE2112438CE4252272
:100AA100FFE5213404FEAD2312438CE42522FFE54A
:100AB100213408FEAD2312438C0522E52270020584
:100AC10021C3948CE52194005003020A2B90069EC9
:100AD100A3E0FDAF22AE2112438CE42522FFE521E4
:100AE1003404FE90069EA3E0FD12438CE42522FF10
:100AF100E5213408FE90069EA3E0FD12438C0522F9
:100B0100E5227002052190069EE0FDAF22AE211282
:100B1100438CE42522FFE5213404FE90069EE0FD8E
:100B210012438CE42522FFE5213408FE90069EE065
:100B3100FD12438C75210075228CAF22AE21124823
:100B410014EFF47062E5222401FFE43521FE12481E
:100B510014EFF470522522FFE5213404FE124814EB
:100B6100EFF47043E5222401FFE5213404FE12482D
:100B710014EFF47032AD22AC21FFFE123F999006C2
:100B810094E0FEA3E0FF90069EEEF0A3EFF0FDAF30
:100B910022AE2112438CE5222401FFE43521FE908F
:100BA100069EE0FD12438CE4F5247523077D8EFC3F
:100BB100FFFE123F99900694E07002A3E070047F5B
:100BC1000180027F009005A5EFF07D8C7C00E4FFA1
:100BD100FE123F99900694E0FFA3E090059FCFF0AD
:100BE100A3EFF07D8E7C007F007E04123F9990067A
:100BF10094E07002A3E070047F0180027F00900501
:100C0100A6EFF07D8C7C007F007E04123F99900658
:100C110094E0FFA3E09005A1CFF0A3EFF07D8E7CDF
:100C2100007F007E08123F99900694E07002A3E0D5
:100C310070047F0180027F009005A7EFF07D8C7C1E
:100C4100007F007E08123F99900694E0FFA3E09098
:100C510005A3CFF0A3EFF0E490059EF09005A3E08B
:100C6100FEA3E0FF9005A1E0FCA3E0FDEC6EFEED2C
:100C71006FFF90059FE06CFCA3E06D6F7002EC6E5E
:100C8100600690059E7401F09005A5E06033900523
:100C9100A1E0FEA3E0FF90059FE0FCA3E0FDB50706
:100CA1000AECB506067524015323049005A3E0FE62
:100CB100A3E0B50515ECB506117524015323028097
:100CC1000990059E7401F04323019005A6E060356B
:100CD100E524703A90059FE0FEA3E0FFA3E0FCA3AA
:100CE100E0FDB5070AECB50606752402532304900E
:100CF10005A3E0FEA3E0B50515ECB50611752402C8
:100D0100532301800990059E7401F043230290054D
:100D1100A7E06037E524703C90059FE0FEA3E0FF6B
:100D21009005A3E0FCA3E0FDB5070AECB506067546
:100D310024035323029005A1E0FEA3E0B50515ECC1
:100D4100B50611752403532301800990059E740192
:100D5100F0432304E52470259005A5E06005752482
:100D61000180149005A6E0600575240280099005B4
:100D7100A7E0600375240390059E7402F0E52470DA
:100D81000975240190059E7403F0E52414FF740194
:100D9100A807088002C333D8FC64075223E4F52175
:100DA100F522E52424FFFFEF7F0025E025E0FEEF9B
:100DB1002522FFE5213EFE1248147B017402252203
:100DC100F974063521FAEF12141E0522E52270028C
:100DD1000521C3948CE521940040C7E52330E03719
:100DE100E4F521F522E52424FFFFEF7F0025E0252E
:100DF100E0FEEF2522FFE5213EFE124814AD07AFCC
:100E010022AE2112438C0522E52270020521C394F2
:100E11008EE521940040CEE52330E13CE4F521F557
:100E210022E52424FFFFEF7F0025E025E0FEEF25EA
:100E310022FFE5213EFE124814AD07E42522FFE51D
:100E4100213404FE12438C0522E52270020521C3E0
:100E5100948EE521940040C9E52330E23CE4F5217C
:100E6100F522E52424FFFFEF7F0025E025E0FEEFDA
:100E71002522FFE5213EFE124814AD07E42522FF9D
:100E8100E5213408FE12438C0522E522700205217A
:100E9100C3948EE521940040C97D8C7C00E4FFFE63
:030EA100023F9974
:1023E800E4F528F526900260E0FFE526C39F400348
:1023F80002263474622528F582E43402F583E0FE6F
:1024080074612528F582E43402F583E0FDEEF529B0
:10241800EDF52AE47003EE6402703A74632528F53A
:1024280082E43402F583E06014E52A5407FF74015E
:10243800A807088002C333D8FC42808013E52A54D9
:1024480007FF7401A807088002C333D8FCF4528040
:10245800052802262B74632528F9E43402FA7B0147
:10246800AF2AAE291217478F27E52760030225FAFE
:10247800E52960030225E2E52A603124FD700302A4
:10248800254F24EFB4060040030225E29024A275EC
:10249800F003A4C58325F0C583730225740225873C
:1024A80002259A0225E20225B20225CA746325286C
:1024B800F9E43402FA7B0112452A74632528F5826F
:1024C800E43402F583E0FCA3E0FDA3E0FEA3E0FF13
:1024D8009005771215F7900631E0FCA3E0FDA3E024
:1024E800FEA3E0FF900577E0F8A3E0F9A3E0FAA3E4
:1024F800E0FB1210FA900635E0F8A3E0F9A3E0FA41
:10250800A3E0FB121009121357900406EEF0A3EF94
:10251800F0C3EE94005007E4900406F0A3F0D390C3
:102528000407E094FF900406E0940F4007740FF04E
:10253800A374FFF0900406E0FCA3E0FDECFF8FFC21
:102548008DFB74040225FA74642528F582E43402AC
:10255800F583E0540FF5FC74632528F582E4340212
:10256800F583E0F5FB0528052802262B746325284A
:10257800F582E43402F583E0F580052802262B7401
:10258800632528F582E43402F583E0F5A0052802E6
:10259800262B74632528F582E43402F583E0600471
:1025A800D2B28002C2B20528807974632528F582E8
:1025B800E43402F583E06004D2B48002C2B4052892
:1025C800806174632528F582E43402F583E06004B1
:1025D800D2B38002C2B30528804974632528F9E480
:1025E8003402FA7B01AF2AAE2912335D8F27E52723
:1025F80060062528F528802B900556E04420F090A9
:1026080005897401F074612528F9E43402752F01F5
:10261800F53089317532007533027B017A01790012
:0C26280012409B0528052805260223ED22
:012634002283
:103AF400E4F527F526900260E0FFE526C39F400326
:103B0400023BB875F002E526A42462F582E5F034A0
:103B140002F583E0FDFE75F002E526A42461F5823A
:103B2400E5F03402F583E0FBEEF528EBF52990048B
:103B340008F0A3EDF07B017A04790AAF2912471249
:103B4400752A008F2BE52B452A600280187B017AA9
:103B540004790AAF29AE281234A7752A008F2BE501
:103B64002B452A6027752F01753004753108E52B24
:103B74002402F533E4352AF5327B017A0179001207
:103B8400409BE52B24022527F5278023900556E04A
:103B94004420F09005897401F0F52F7530047531D7
:103BA40008753200753302FB7A01790012409B05D7
:083BB40026023AF9AF277E005A
:013BBC0022E6
:10468700E4FF74842FF582E43405F583E0FE7408B3
:104697002FF582E43404F583EEF00FBF08E4752F9D
:1046A700017530047531087532007533087B017A5E
:0646B70001790002409BA6
:1045100090054CE0FCA3E0FDA3E0FEA3E0FF9004C7
:0A452000081215F77B017A047908F0
:10452A001213D8FF9000031213F112141E90000305
:10453A00EF1214309000011213F1FF9000021213CF
:0E454A00F1900001121430900002EF021430C4
:104800001213D8FF9000011213F112141E90000130
:04481000EF0214306F
:0E2E6E008E338F348C358D368B378A38893908
:102E7C0090201975F009EF12164EEE75F009A42585
:102E8C0083F583E493B4040312452A90201975F05A
:102E9C0009E53412164EE53375F009A42583F58344
:102EAC00E493B40209AB37AA38A939124800E4F507
:102EBC003A90201975F009E53412164EE53375F089
:102ECC0009A42583F583E493FFE53AC39F400302ED
:102EDC002FC37E00E536253AFFEE3535FEAB37AA1B
:102EEC0038A939853A827583001213F1FD12438C8F
:102EFC00E42536FFE5353404FE7C00EF253AFFEC83
:102F0C003EFEAB37AA38A939853A82758300121375
:102F1C00F1FD12438CE42536FFE5353408FE7C00C8
:102F2C00EF253AFFEC3EFEAB37AA38A939853A8239
:102F3C007583001213F1FD12438CAB37AA38A939F3
:102F4C00853A827583001213F1FF7B0174022536DA
:102F5C00F974063535FAE53AFD7C0029F9EC3AFAB4
:102F6C00EF12141E90201975F009E53412164EE577
:102F7C003375F009A42583F583E493F47034AB37EF
:102F8C00AA38A939853A82F5831213F1601F902073
:102F9C001E75F009E53412164EE53375F009A425BB
:102FAC0083F583D37401939DE4939C5005E53A0417
:102FBC00FF22053A022EBD75330075348CAD34AC4E
:102FCC0033E4FFFE123F99900694A3E0FDAF34AEBC
:102FDC003312438CE5342401FFE43533FE90069420
:102FEC00E0FD12438CAD34AC337F007E04123F996C
:102FFC00E42534FFE5333404FE900694A3E0FD127F
:10300C00438CE5342401FFE5333404FE900694E050
:10301C00FD12438CAD34AC337F007E08123F99E433
:10302C002534FFE5333408FE900694A3E0FD1243EB
:10303C008CE5342401FFE5333408FE900694E0FD62
:05304C0012438CAF3AB5
:01305100225C
:070003008F828E83E493FF5E
:01000A0022D3
:044896008F828E83FC
:02489A00E0FF3D
:01489C0022F9
:0E35E6008E338F348C358D368B378A38893989
:1035F400E4F53A90201975F009E53412164EE533D6
:1036040075F009A42583F583E493FFE53AC39F404D
:10361400030236CD90201A75F009E53412164EE5F2
:103624003375F009A42583F583E493FC740193FDB9
:10363400EC30E2107E00E536253AFFEE3535FE1219
:1036440000038020EC7E0030E30EE536253AFFEEE1
:103654003535FE124896800CE536253AFFEE3535B1
:10366400FE124814AB37AA38A939853A827583000B
:10367400EF12143090201975F009E53412164EE556
:103684003375F009A42583F583E493F47036AB37DE
:10369400AA38A939853A82F5831213F16021902062
:1036A4001E75F009E53412164EE53375F009A425AC
:1036B40083F583D3740193953AE49394005005E51C
:1036C4003A04FF22053A0235F790201975F009E50E
:1036D4003412164EE53375F009A42583F583E4937B
:1036E400B40409AB37AA38A93912452A90201975B0
:1036F400F009E53412164EE53375F009A42583F577
:1037040083E493B40209AB37AA38A939124800AF4D
:013714003A7A
:013715002291
:0A335D008E2C8F2D8B2E8A2F8930C5
:10336700E4F531F53290201975F009E53212164E61
:10337700E53175F009A42583F583E493F970030219
:1033870034A490201A75F009E53212164EE531750E
:10339700F009A42583F583E493FEEE20E0030234CD
:1033A7005090201775F009E53212164EE53175F089
:1033B70009A42583F583E493FC740193FDD3952D2C
:1033C700EC952C400302349990201E75F009E532E4
:1033D70012164EE53175F009A42583F583E493FAB7
:1033E700740193FBED2BFDEC3AFCC3E52D9DE52C19
:1033F7009C4003023499EE30E3030234999020177E
:1034070075F009E53212164EE53175F009A42583EA
:10341700F583E493FE740193FFC3E52D9FFFE52C2D
:103427009EFEE9FD7C0012145290201C75F009E500
:103437003212164EE53175F009A42583F583740120
:10344700932FFDE4933EFC803C90201775F009E52F
:103457003212164EE53175F009A42583F583740100
:1034670093B52D2EE493B52C2990201C75F009E512
:103477003212164EE53175F009A42583F583E493DE
:10348700FC740193FDAB2EAA2FA930AF32AE3102E7
:0F3497002E6E0532E5327002053102336C7F0074
:0134A6002203
:0A34A7008E2C8F2D8B2E8A2F89307A
:1034B100E4F531F53290201975F009E53212164E16
:1034C100E53175F009A42583F583E493FD700302CA
:1034D10035E390201A75F009E53212164EE5317583
:1034E100F009A42583F583E49320E00302358F904E
:1034F100201775F009E53212164EE53175F009A471
:103501002583F583E493FE740193FFD3952DEE9506
:103511002C40030235D890201E75F009E5321216B1
:103521004EE53175F009A42583F583E493FA74011E
:1035310093FBEF2BFFEE3AFEC3E52D9FE52C9E405A
:10354100030235D890201775F009E53212164EE5C1
:103551003175F009A42583F583E493FE740193FF8B
:10356100C3E52D9FFFE52C9EFE7C00121452902096
:103571001C75F009E53212164EE53175F009A425E6
:1035810083F5837401932FFDE4933EFC803C9020EE
:103591001775F009E53212164EE53175F009A425CB
:1035A10083F583740193B52D2EE493B52C299020D6
:1035B1001C75F009E53212164EE53175F009A425A6
:1035C10083F583E493FC740193FDAB2EAA2FA930FC
:1035D100AF32AE310235E60532E532700205310215
:0435E10034B67F007D
:0135E50022C3
:0A43DF008E268F278B288A29892A51
:1043E900E4FCC374039C25E025E0FFE527AE26A87D
:1043F90007088005CEC313CE13D8F9540FFDC36443
:1044090080948A500674302DFD800474372DFDABDD
:1044190028AA29A92AECFF3395E08F82F583ED12AA
:0644290014300CBC04BCC1
:01442F00226A
:102C6E00000017CE0FDF18111FBE0870106107AFDE
:102C7E001F3F08F110E0072E0081174F0F5E1890CE
:102C8E001E3D09F311E2062C0183164D0E5C1992BE
:102C9E00010216CC0EDD19131EBC0972116306ADAE
:102CAE001C390BF713E60428038714490C581B969E
:102CBE00030614C80CD91B171CB80B76136704A98E
:102CCE00020415CA0DDB1A151DBA0A74126505AB7E
:102CDE001D3B0AF512E4052A0285154B0D5A1A946E
:102CEE0018310FFF17EE0020078F104108501F9E5E
:102CFE00070E10C008D11F1F18B00F7E176F00A14E
:102D0E00060C11C209D31E1D19B20E7C166D01A33D
:102D1E0019330EFD16EC0122068D114309521E9C2D
:102D2E00040813C60BD71C191BB60C78146903A71D
:102D3E001B370CF914E80326048913470B561C980D
:102D4E001A350DFB15EA0224058B12450A541D9AFD
:102D5E00050A12C40AD51D1B1AB40D7A156B02A5ED
:102D6E00102107EF1FFE08300F9F18510040178EDD
:102D7E000F1E18D000C1170F10A0076E1F7F08B1CD
:102D8E000E1C19D201C3160D11A2066C1E7D09B3BD
:102D9E00112306ED1EFC09320E9D19530142168CAD
:102DAE000C181BD603C7140913A604681C790BB79D
:102DBE00132704E91CF80B360C991B57034614888D
:102DCE00122505EB1DFA0A340D9B1A550244158A7D
:102DDE000D1A1AD402C5150B12A4056A1D7B0AB56D
:102DEE0008101FDE07CF100117AE006018710FBF5D
:102DFE00172F00E118F00F3E08911F5F074E10804D
:102E0E00162D01E319F20E3C09931E5D064C11823C
:102E1E0009121EDC06CD110316AC016219730EBD2C
:102E2E00142903E71BF60C380B971C59044813861C
:102E3E000B161CD804C9130714A803661B770CB90C
:102E4E000A141DDA05CB120515AA02641A750DBBFC
:102E5E00152B02E51AF40D3A0A951D5B054A1284EC
:04384100AD07AC061D
:10384500E49006A3F0A3F074FFA3F0A3F0ED4C7091
:1038550003023947E490069EF0A3F0ED2402FFE44D
:103865003CFEC390069FE09F90069EE09E400302AB
:103875003929E0FEA3E0FFA3EEF0A3EFF0C3EE9439
:10388500004024D3EF9402EE9400501B90C003E453
:1038950093701490069FE02400FE90069EE034C0CD
:1038A5009006A0F0A3CEF09006A0E0FEA3E0F5827E
:1038B5008E83E493F99006A2F0FFA3A3E06F25E0C1
:1038C500FFE433FE746E2FF582742C3EF583E4938A
:1038D500FA740193FB9006A3E0FFEAFEEB6FFFEE9F
:1038E500F0A3EFF0E9FFA3A3E06F25E0FFE433FECB
:1038F500746E2FF582742A3EF583E493FA7401936E
:10390500FB9006A5E0FFEAFEEB6FFFEEF0A3EFF0FC
:1039150090069FE004F0600302386090069EE00484
:10392500F00238609006A3E0FFA3E0900698CFF080
:10393500A3EFF09006A5E0FFA3E0900692CFF0A3D9
:02394500EFF0A1
:01394700225D
:083F99008E3B8F3C8C3D8D3EF8
:103FA10074FF9006A3F0A3F0E53E453D6070E490F8
:103FB10006A0F0A3F09006A0E0FEA3E0FFC3953EAB
:103FC100EE953D504AE53C2FFFE53B3EFE1248147D
:103FD1009006A2EFF0A3E0FCA3E0FDED6F25E0FF6A
:103FE100E433FE746E2FF582742A3EF583ECFFE410
:103FF10093FE7401936FFF9006A3EEF0A3EFF09090
:1040010006A1E004F070AE9006A0E004F080A69056
:0E40110006A3E0FFA3E0900694CFF0A3EFF02B
:01401F00227E
:101002000213C3E86480F8E933E83360110460F046
:10101200ED33EC337009E8FCE9FDEAFEEBFF220454
:1010220060DED3EB9FEA9EE99DE8C2E78CF0C2F74F
:1010320095F0400CE8CCF8E9CDF9EACEFAEBCFFB1B
:1010420012138E85D0F05804700320D5B3E80470D3
:10105200075002B2D50213CD92D5EC0460F7E4CC6E
:10106200C0E0C398F8603B94186008400DD0E0FBE4
:101072000213A5E4FBFAC9FC8028E830E406E4C9BF
:10108200FBE4CAFCE830E305E4C9CACBFCE8540738
:101092006010F8C3E913F9EA13FAEB13FBEC13FC43
:1010A200D8F130F52FC3E49CFCEF9BFFEE9AFEEDE6
:1010B20099FDD0E0FBEF4E4D4C701222DB03021380
:1010C200CAEC2CFCEF33FFEE33FEED33FDED30E7DF
:1010D200EB0213A5EF2BFFEE3AFEED39FDD0E0FB5C
:1010E20050130BBB00030213CDED13FDEE13FEEF05
:0810F20013FFEC13FC0213A52F
:1010FA00EC4D6011E8497017ED33EC3304600DE4F0
:10110A00FCFFFEFD22E933E8330470F80213C31230
:10111A00138E58046009E4CC248150062850090231
:10112A0013CD2840030213CAC0E0EB4A7044B980C9
:10113A0006D0E0FB0213B9EF4E701CBD8008EBFF2E
:10114A00EAFEE9FD80EBE98DF0A4FEE5F00211E389
:10115A00E9CDF9EAFEEBFFEF89F0A4FCE5F0CE89D0
:10116A00F0A42EFFE435F0CD89F0A42DFEE435F08D
:10117A008067EF4E7005BD80D780C3EF8BF0A4ACBB
:10118A00F0EE8BF0A42CFCE435F0F8EF8AF0A42CF6
:10119A00E5F038FCE433CB8DF0A42CFCE5F03BF809
:1011AA00EE8AF0A42CFCE5F038F8E433CF89F0A4F9
:1011BA002CFCE5F038CF3400CE89F0A42FFFE5F0FF
:1011CA003EFEE433C98DF0A42EFEE5F039CD8AF057
:1011DA00A42FFFE5F03EFEE43DFD33D0E0FB5007CF
:1011EA000BBB000F0213CDEC2CFCEF33FFEE33FEEA
:0611FA00ED33FD0213A518
:101200000213CDEC5D046005E8590470030213C3BA
:1012100012138E580460F6EC4860F2EC7004FDFE88
:10122000FF22C860DB2481C85009C39860025006C1
:101230000213CA9850CAF582E9294B4A7005AB825D
:101240000213B975F0007C1A7880C3EF9BEE9AED1B
:1012500099400DC3EF9BFFEE9AFEED99FDE842F039
:10126000DC23ACF0D0E0FFD0E0FED0E0FDAB82208C
:10127000E7101BEB60BAEC2CFCEF33FFEE33FEED16
:1012800033FD0213A5E803F830E705C0F075F00060
:10129000EF2FFFEE33FEED33FD40B830E7C280AAFA
:1012A00074F8CC6480CCC86480C8F58204604FC3F5
:1012B000EB9FF5F0EA9E42F0E99D42F0E89C45F094
:1012C000603C501DE5825FFFE582D313CB5BCBF41E
:1012D0002B5582FB50280ABA002409B90020088047
:1012E0001DE5825BFBE582D313CF5FCFF4C3132FE1
:1012F0005582FF50090EBE00050DBD00010CC3EB69
:101300009FF5F0EA9E42F0E99D42F0E89C45F060CE
:0913100007CC4820E701B3EC22F0
:1013190075F020800E75F010800575F0087D007E4F
:10132900007F003392D530D50312158FEC3340106E
:10133900EF33FFEE33FEED33FDEC33FCD5F0ED2258
:0E134900E5F0247EA2D513CC92E7CDCEFF2294
:10135700EDD2E7CD33EC3392D524814006E4FFFE8E
:10136700FDFC22FCE4CFCECDCC24E0501174FF80ED
:10137700EDC3CC13CCCD13CDCE13CECF13CF04708A
:07138700F030D5DE02158FE6
:10138E00E9D2E7C933E833F892D5EDD2E7CD33ECA5
:07139E0033FC5002B2D5221E
:1013A500EC30E7100FBF000C0EBE00080DBD0004A9
:1013B5000BEB6014A2D5EB13FCED92E7FD2274FF55
:1013C500FCFDFEFF22E480F8A2D574FF13FC7D80AE
:0313D500E480EFC2
:103E8C00023716E493A3F8E493A34003F68001F2FF
:103E9C0008DFF48029E493A3F85407240CC8C33337
:103EAC00C4540F4420C8834004F456800146F6DF06
:103EBC00E4800B0102040810204080900026E47E70
:103ECC00019360BCA3FF543F30E509541FFEE493FB
:103EDC00A360010ECF54C025E060A840B8E493A3C2
:103EEC00FAE493A3F8E493A3C8C582C8CAC583CAED
:103EFC00F0A3C8C582C8CAC583CADFE9DEE780BEA5
:0100290000D6
:1013D800BB010689828A83E0225002E722BBFE0213
:0913E800E32289828A83E4932246
:1013F100BB010CE58229F582E5833AF583E02250B1
:1014010006E92582F8E622BBFE06E92582F8E222FA
:0D141100E58229F582E5833AF583E4932214
:10141E00BB010689828A83F0225002F722BBFE01AD
:02142E00F322A7
:10143000F8BB010DE58229F582E5833AF583E8F0F2
:10144000225006E92582C8F622BBFE05E92582C89E
:02145000F22286
:10145200EF8DF0A4A8F0CF8CF0A428CE8DF0A42EAE
:02146200FE2268
:10146400A3F8E0C5F025F0F0E5821582700215833B
:06147400E0C838F0E82298
:10147A00BB010A89828A83E0F5F0A3E0225006873D
:10148A00F009E71922BBFE07E3F5F009E3192289FF
:0B149A00828A83E493F5F07401932232
:1014A500BB0110E58229F582E5833AF583E0F5F085
:1014B500A3E0225009E92582F886F008E622BBFE62
:1014C5000AE92582F8E2F5F008E222E5832AF583A8
:0814D500E993F5F0A3E993226D
:1014DD00BB010789828A830216B3500B09C5F02719
:1014ED00F7C5F01937F722BBFE0D09F8E325F0F328
:1014FD00C5F019E338F322F889828A8374019325A4
:08150D00F0C5F0F8E493382268
:10151500BB010DC58229C582C5833AC5830216B3B1
:101525005011C58229F808E5F026F618F5F0E58290
:1015350036F622BBFE11C58229F808E225F0F5F042
:10154500F218E23582F222F8E58229F582E5832A4E
:0D155500F58374019325F0F5F0E49338223E
:10156200F8BB0111E58229F582E5833AF583E8F0BB
:10157200E5F0A3F0225009E92582C8F608A6F02278
:0D158200BBFE09E92582C8F2E5F008F2225F
:0E158F00C3E49FFFE49EFEE49DFDE49CFC226D
:10159D00EB9FF5F0EA9E42F0E99D42F0EC6480C8C5
:0615AD0064809845F02265
:1015B300BB010789828A830216D55005E9F8021612
:1015C300C9BBFE05E9F80216E189828A830216ED9A
:1015D300BB010DE58229F582E5833AF5830215F710
:1015E3005007E92582F80216FDBBFE07E92582F8BC
:0415F30002170922B0
:0C15F700ECF0A3EDF0A3EEF0A3EFF02267
:10160300A8828583F0D083D08212161A12161A127A
:10161300161A12161AE473E493A3C583C5F0C5839F
:10162300C8C582C8F0A3C583C5F0C583C8C582C831
:011633002294
:10163400BB010789828A830216035005E9F8021761
:0A16440015BBFE05E9F802172E227F
:0C164E00A42582F582E5F03583F58322A7
:10165A00D083D082F8E4937012740193700DA3A31F
:10166A0093F8740193F5828883E473740293686033
:06167A00EFA3A3A380DF33
:10168000D083D082F8E4937012740193700DA3A3F9
:1016900093F8740193F5828883E473740293B5F030
:0D16A000067403936860E9A3A3A3A380D898
:0616AD008A838982E473C8
:1016B300C5F0F8A3E028F0C5F0F8E58215827002C2
:0616C3001583E038F0225F
:0C16C900E6FC08E6FD08E6FE08E6FF224D
:0C16D500E0FCA3E0FDA3E0FEA3E0FF2288
:0C16E100E2FC08E2FD08E2FE08E2FF2245
:1016ED00E493FC740193FD740293FE740393FF2243
:0C16FD00ECF608EDF608EEF608EFF62219
:0C170900ECF208EDF208EEF208EFF2221C
:10171500D083D082E493F608740193F6087402939B
:09172500F608740393F6740473D2
:10172E00D083D082E493F208740193F2087402938A
:09173E00F208740393F2740473C1
:00000001FF
