:10000000023E7A8F828E83E493FF2202488D900510
:10001000D9EFF06003D2B222C2B22202002E7F06D4
:1000200002488302447C010D0000FF024759C28F41
:1000300032FFFF02219A8FD422FFFF024650A2AF67
:100040009200C2AF75F83443A90143A910A20092EF
:10005000AF22FF0240208F21E52112165A0592019E
:10006000008B0200BF0300F00401271207A214084E
:100070001715085D16053020054A2108493309B1D6
:100080003409F635097136000009FE7B017A0179E1
:1000900000900556E0F52A7D021247377B017A046D
:1000A00079081226357532008F33752F01753004AB
:1000B0007531087B017A01790012409B0205097BAA
:1000C000017A017900900556E0F52A7D0312473741
:1000D0001223E8900556E07B017A01790030E50AA9
:1000E000F52A7D031245DC0209F112479B0209F152
:1000F0007B017A017900900556E0F52A7D041247CC
:1001000037900260E0900408F0752F017530047597
:1001100031087532007533017B017A017900124094
:100120009B123AF40207967B017A017900900556FA
:10013000E0F52A7D12124737752F017530057531AC
:10014000507532007533017B017A01790012409BB2
:10015000752F017530057531517532007533017B8E
:10016000017A01790012409B752F017530057531B8
:10017000527532007533017B017A01790012409B80
:10018000900553E0FCA3E0FAECFF3395E0EAFE9023
:100190000408EEF0A3EFF0752F01753004753108F7
:1001A0007532007533027B017A01790012409B9011
:1001B0000408E5D2F0A3E5E6F0A3E5D3F0A3E5D18A
:1001C000F0A3E5D4F0752F01753004753108753250
:1001D000007533057B017A01790012409B90040879
:1001E000E5FBF0A3E5FCF0752F01753004753108CF
:1001F0007532007533027B017A01790012409B90C1
:100200000408E580F0A3E5A0F0752F0175300475B2
:1002100031087532007533027B017A017900124092
:100220009B900577124513752F01753004753108C1
:100230007532007533047B017A01790012409B907E
:1002400004087404F0E4A3F0752F017530047531CF
:1002500008F5327533027B017A01790012409BE484
:10026000F522E52225E025E024B0F582E43405F509
:1002700083E0900408F0E52225E025E024AFF58234
:10028000E43405F583E0900409F0752F017530041E
:100290007531087532007533027B017A01790012DD
:1002A000409BE52225E025E024AFF582E43405F506
:1002B00083E0FEE52225E025E024B0F582E4340564
:1002C000F583E0FDEDFFE4FCFD9005481215F79085
:1002D0000548E0FCA3E0FDA3E0FEA3E0FFE4121369
:1002E00019E52275F008A42449F582E43406F58363
:1002F000E0F8A3E0F9A3E0FAA3E0FB1210FAE5228C
:1003000075F008A4244DF582E43406F583E0F8A3E3
:10031000E0F9A3E0FAA3E0FB12100990054C1215D6
:10032000F7E52225E025E024B2F582E43405F583E3
:10033000E0605AE52275F008A42449F582E4340609
:10034000F583E0FCA3E0FDA3E0FEA3E0FFE52225AA
:10035000E025E024BFF582E43405F583E0F8A3E06E
:10036000F9A3E0FAA3E0FB1210FAE52275F008A465
:10037000244DF582E43406F583E0F8A3E0F9A3E028
:10038000FAA3E0FB12100990054C1215F712451064
:10039000752F017530047531087532007533047B93
:1003A000017A01790012409B0522E522C394035093
:1003B00003020262E4F522E52225E025E024ACF503
:1003C00082E43405F583E0900408F0E52225E02579
:1003D000E024ABF582E43405F583E0900409F07580
:1003E0002F017530047531087532007533027B01B9
:1003F0007A01790012409BE52225E025E024ABF547
:1004000082E43405F583E0FEE52225E025E024AC16
:10041000F582E43405F583E0FDEDFFE4FCFD900595
:10042000481215F7900548E0FCA3E0FDA3E0FEA309
:10043000E0FFE4121319E52275F008A42461F582A7
:10044000E43406F583E0F8A3E0F9A3E0FAA3E0FBC7
:100450001210FAE52275F008A42465F582E434064A
:10046000F583E0F8A3E0F9A3E0FAA3E0FB1210099A
:1004700090054C1215F7E52225E025E024AEF58223
:10048000E43405F583E0605AE52275F008A42461A0
:10049000F582E43406F583E0FCA3E0FDA3E0FEA3CF
:1004A000E0FFE52225E025E024BBF582E43405F5F4
:1004B00083E0F8A3E0F9A3E0FAA3E0FB1210FAE569
:1004C0002275F008A42465F582E43406F583E0F88B
:1004D000A3E0F9A3E0FAA3E0FB12100990054C1287
:1004E00015F7124510752F017530047531087532F6
:1004F000007533047B017A01790012409B0522E5E7
:1005000022C3940150030203B7AF217E007B017A1E
:100510000479081230527532008F33752F0175300F
:10052000047531087B017A01790012409B0207961D
:100530007B017A02795C1242677B017A0179009033
:100540000556E0F52A7D200208437B017A017900F7
:10055000900556E0F52A7D21124737752F01753039
:10056000027531617532007533017B017A017900C2
:1005700012409B1241FA900556E07B017A01790006
:1005800030E509F52A7D211245DC800312479B02E4
:1005900009F17B017A017900900556E0F52A7D0189
:1005A000124737E4F522E522901F7393FF74082564
:1005B00022F582E43404F583EFF074082522F582F5
:1005C000E43404F583E0700E74082522F582E434E7
:1005D00004F5837420F00522E522B40BC9E4F5226A
:1005E000900555E06007E5229048778005E5229068
:1005F0001F7F93FF74132522F582E43404F583EF03
:10060000F074132522F582E43404F583E0700E744F
:10061000082522F582E43404F5837420F00522E5F0
:1006200022B40BBCE490041EF0752F0175300475E4
:100630003108F5327533177B017A01790012409B3E
:10064000900692E0FCA3E0900408F0ECA3F0D390B5
:100650000699E09400900698E0940040047F0180A1
:10066000027F0090059EE0FE25E04F90040AF0E432
:10067000A3F0752F01753004753108F53275330418
:100680007B017A01790012409B900698E07002A3EA
:10069000E06040900408745BF0A37443F0A37452CC
:1006A000F0A37443F0A37420F0A37445F0A3745234
:1006B000F0A3F0A3745DF0A37420F0752F017530E2
:1006C0000475310875320075330A7B017A017900AF
:1006D00012409B900408745BF0A37443F0A3744F22
:1006E000F0A314F0A37446F0A37449F0A37447F088
:1006F000A3743AF0752F0175300475310875320016
:100700007533087B017A01790012409B90059EE0C9
:10071000601D9004087445F0A37452F0A3F0752F87
:1007200001753004753108753200753303802090EF
:100730000694E0FEA3E0FF7B017A0479081243DF10
:10074000752F017530047531087532007533047BDF
:10075000017A01790012409B900408745DF0A37443
:1007600020F0752F0175300475310875320075332E
:10077000027B017A01790012409BE4900408F07535
:100780002F01753004753108F5327533017B017A1C
:1007900001790012409B7B017A01790012479B028C
:1007A00009F17B017A017900900556E0F52A7D1464
:1007B000124737E4F52274032522F582E43406F566
:1007C00083E0FF74082522F582E43404F583EFF01A
:1007D00074082522F582E43404F583E0B4FF0D7437
:1007E000082522F582E43404F583E4F00522E522AD
:1007F000B41CC3752F01753004753108753200853E
:1008000022337B017A01790012409B7B017A0179C6
:100810000012479B0209F17B017A0179009005568D
:10082000E0F52A7D151247377B017A0279607F0156
:100830007EF012335D7B017A017900900556E0F578
:100840002A7D151245DC0209F1C2AFE4F5217AE0F8
:10085000F9F5238A24F5251216AD0209FE7B017AEB
:10086000017900900556E0F52A7D161247371246A9
:100870008790058DE0FFD39400405AEFD394045045
:1008800054752F0175300575318D75320075330142
:100890007B017A01790012409BE4F52290058DE0FE
:1008A000FFE522C39F502EE52225E025E0248EF5AA
:1008B00082E43405F583124513752F0175300475F4
:1008C00031087532007533047B017A0179001240DA
:1008D0009B052280C77B017A01790012479BE49037
:1008E0000556F0F52190059EE070030209FE900583
:1008F00056E04420F090059EE02464900589F09035
:10090000058D7404F09005A6E025E0FDE433FCA31A
:10091000E075F004A4FFE5F04CFEEF4DFF9005A557
:10092000E0FDEF4DAC066407FDE412131E90058E4A
:100930001215F790059FE0FCA3E0FDE412131E9052
:1009400005921215F79005A1E0FCA3E0FDE4121357
:100950001E9005961215F79005A3E0FCA3E0FDE4B8
:1009600012131E90059A1215F7E490059EF00209E5
:10097000FEE4900556F07B017A017900F52A7D3678
:10098000124737E4900408F0752F01753004753173
:1009900008F5327533017B017A01790012409B7BA7
:1009A000017A01790012479BE49006A9F0F52180B5
:1009B0004DE4900556F07B017A017900F52A7D34EB
:1009C0001247377B017A027960123948E4900408B3
:1009D000F0752F01753004753108F5327533017BE0
:1009E000017A01790012409B7B017A01790012475C
:1009F0009BE4F5218008E4F521D2C075C082AF21C7
:100A000022E4FFFE124814EFF46003020B35C374B6
:100A1000A8948BFF741F941FFE1248148F2574FF37
:100A200090069EF0A3F0E4F521F522748B2522F9BF
:100A3000741F35218982F583E493F523C3741F94D1
:100A400002FF74069406FEEFB5220CEEB52108E510
:100A500025F4600385252390069EE0FCA3E0FDEDD0
:100A6000652325E0FFE433FE746E2FF582742A3E81
:100A7000F583ECFFE493FE7401936FFF90069EEE06
:100A8000F0A3EFF07B0174022522F974063521FAF8
:100A9000E52312141EAD23AF22AE2112438CE425B0
:100AA00022FFE5213404FEAD2312438CE42522FF0E
:100AB000E5213408FEAD2312438C0522E5227002A5
:100AC0000521C3948CE52194005003020A2B900663
:100AD0009EA3E0FDAF22AE2112438CE42522FFE568
:100AE000213404FE90069EA3E0FD12438CE42522EF
:100AF000FFE5213408FE90069EA3E0FD12438C051D
:100B000022E5227002052190069EE0FDAF22AE2173
:100B100012438CE42522FFE5213404FE90069EE07A
:100B2000FD12438CE42522FFE5213408FE90069E49
:100B3000E0FD12438C75210075228CAF22AE21128C
:100B40004814EFF47062E5222401FFE43521FE121F
:100B50004814EFF470522522FFE5213404FE1248B8
:100B600014EFF47043E5222401FFE5213404FE1262
:100B70004814EFF47032AD22AC21FFFE123F999081
:100B80000694E0FEA3E0FF90069EEEF0A3EFF0FDDA
:100B9000AF22AE2112438CE5222401FFE43521FE71
:100BA00090069EE0FD12438CE4F5247523077D8EAC
:100BB000FCFFFE123F99900694E07002A3E07004DF
:100BC0007F0180027F009005A5EFF07D8C7C00E422
:100BD000FFFE123F99900694E0FFA3E090059FCF9F
:100BE000F0A3EFF07D8E7C007F007E04123F999091
:100BF0000694E07002A3E070047F0180027F009001
:100C000005A6EFF07D8C7C007F007E04123F99905A
:100C10000694E0FFA3E09005A1CFF0A3EFF07D8E56
:100C20007C007F007E08123F99900694E07002A33A
:100C3000E070047F0180027F009005A7EFF07D8CBB
:100C40007C007F007E08123F99900694E0FFA3E0AD
:100C50009005A3CFF0A3EFF0E490059EF09005A3DC
:100C6000E0FEA3E0FF9005A1E0FCA3E0FDEC6EFE3A
:100C7000ED6FFF90059FE06CFCA3E06D6F7002ECE0
:100C80006E600690059E7401F09005A5E0603390BB
:100C900005A1E0FEA3E0FF90059FE0FCA3E0FDB509
:100CA000070AECB506067524015323049005A3E05A
:100CB000FEA3E0B50515ECB506117524015323021A
:100CC000800990059E7401F04323019005A6E06021
:100CD00035E524703A90059FE0FEA3E0FFA3E0FC19
:100CE000A3E0FDB5070AECB50606752402532304FC
:100CF0009005A3E0FEA3E0B50515ECB5061175243B
:100D000002532301800990059E7401F04323029051
:100D100005A7E06037E524703C90059FE0FEA3E066
:100D2000FF9005A3E0FCA3E0FDB5070AECB50606BD
:100D30007524035323029005A1E0FEA3E0B5051539
:100D4000ECB50611752403532301800990059E74A8
:100D500001F0432304E52470259005A5E0600575A6
:100D6000240180149005A6E0600575240280099096
:100D700005A7E0600375240390059E7402F0E52446
:100D8000700975240190059E7403F0E52414FF7426
:100D900001A807088002C333D8FC64075223E4F596
:100DA00021F522E52424FFFFEF7F0025E025E0FE6A
:100DB000EF2522FFE5213EFE1248147B0174022537
:100DC00022F974063521FAEF12141E0522E522706D
:100DD000020521C3948CE521940040C7E52330E04F
:100DE00037E4F521F522E52424FFFFEF7F0025E01D
:100DF00025E0FEEF2522FFE5213EFE124814AD0757
:100E0000AF22AE2112438C0522E52270020521C3D8
:100E1000948EE521940040CEE52330E13CE4F521B9
:100E2000F522E52424FFFFEF7F0025E025E0FEEF1B
:100E30002522FFE5213EFE124814AD07E42522FFDE
:100E4000E5213404FE12438C0522E52270020521BF
:100E5000C3948EE521940040C9E52330E23CE4F5DB
:100E600021F522E52424FFFFEF7F0025E025E0FEA9
:100E7000EF2522FFE5213EFE124814AD07E42522AE
:100E8000FFE5213408FE12438C0522E5227002059D
:100E900021C3948EE521940040C97D8C7C00E4FF41
:100EA000FE023F998B338A348935E4F540AB39AA89
:100EB0003AA93B12147AFFAEF0AB33AA34A935F548
:100EC000828E8374101214308F828E83A374021268
:100ED0001430E4F53EF53FC3E53F953DE53E953CD6
:100EE0005078AB36AA37A938853F82853E831213E6
:100EF000F1FFAB39AA3AA93B12147AFDE5402DFD6A
:100F0000E435F0CD2402CD3400AB33AA34A9358DBD
:100F100082F583EF12143074C6253FF582740235D2
:100F20003EF583E0B410260540AB39AA3AA93B123E
:100F3000147A2540FFE435F0CF2402CF3400AB33E0
:100F4000AA34A9358F82F583741012143005400538
:100F50003FE53F7082053E020ED7AB39AA3AA93B66
:100F600012147A2540FFE435F0FE8F82F583A3A3A7
:100F7000AB33AA34A93574101214308F828E83A338
:100F8000A3A37403121430150EA80EE4F6AC3CAD06
:100F90003DAB36AA37A938123A238E418F42AB397E
:100FA000AA3AA93B12147AFDE5402DFDE435F0CDB7
:100FB0002404CD3400AB33AA34A9358D82F583EFF8
:100FC000121430E541FFAB39AA3AA93B12147AFD5D
:100FD000E5402DFDE435F0CD2405CD3400AB33AA3A
:100FE00034A9358D82F583EF121430E5402406FFD5
:100FF000E433AB39AA3AA93B8FF00214DDFFFFFFBF
:10100000FFFF0213C3E86480F8E933E8336011049A
:1010100060F0ED33EC337009E8FCE9FDEAFEEBFF2C
:10102000220460DED3EB9FEA9EE99DE8C2E78CF0E4
:10103000C2F795F0400CE8CCF8E9CDF9EACEFAEB2E
:10104000CFFB12138E85D0F05804700320D5B3E87F
:101050000470075002B2D50213CD92D5EC0460F7AC
:10106000E4CCC0E0C398F8603B94186008400DD011
:10107000E0FB0213A5E4FBFAC9FC8028E830E40693
:10108000E4C9FBE4CAFCE830E305E4C9CACBFCE8E8
:1010900054076010F8C3E913F9EA13FAEB13FBECF9
:1010A00013FCD8F130F52FC3E49CFCEF9BFFEE9AC4
:1010B000FEED99FDD0E0FBEF4E4D4C701222DB03AC
:1010C0000213CAEC2CFCEF33FFEE33FEED33FDEDE3
:1010D00030E7EB0213A5EF2BFFEE3AFEED39FDD022
:1010E000E0FB50130BBB00030213CDED13FDEE1319
:1010F000FEEF13FFEC13FC0213A5EC4D6011E84961
:101100007017ED33EC3304600DE4FCFFFEFD22E9C3
:1011100033E8330470F80213C312138E58046009C5
:10112000E4CC248150062850090213CD2840030244
:1011300013CAC0E0EB4A7044B98006D0E0FB02134A
:10114000B9EF4E701CBD8008EBFFEAFEE9FD80EBB5
:10115000E98DF0A4FEE5F00211E3E9CDF9EAFEEB3A
:10116000FFEF89F0A4FCE5F0CE89F0A42EFFE43572
:10117000F0CD89F0A42DFEE435F08067EF4E7005C8
:10118000BD80D780C3EF8BF0A4ACF0EE8BF0A42C25
:10119000FCE435F0F8EF8AF0A42CE5F038FCE433F9
:1011A000CB8DF0A42CFCE5F03BF8EE8AF0A42CFCEF
:1011B000E5F038F8E433CF89F0A42CFCE5F038CF23
:1011C0003400CE89F0A42FFFE5F03EFEE433C98D54
:1011D000F0A42EFEE5F039CD8AF0A42FFFE5F03E15
:1011E000FEE43DFD33D0E0FB50070BBB000F0213C4
:1011F000CDEC2CFCEF33FFEE33FEED33FD0213A5F7
:101200000213CDEC5D046005E8590470030213C3BA
:1012100012138E580460F6EC4860F2EC7004FDFE88
:10122000FF22C860DB2481C85009C39860025006C1
:101230000213CA9850CAF582E9294B4A7005AB825D
:101240000213B975F0007C1A7880C3EF9BEE9AED1B
:1012500099400DC3EF9BFFEE9AFEED99FDE842F039
:10126000DC23ACF0D0E0FFD0E0FED0E0FDAB82208C
:10127000E7101BEB60BAEC2CFCEF33FFEE33FEED16
:1012800033FD0213A5E803F830E705C0F075F00060
:10129000EF2FFFEE33FEED33FD40B830E7C280AAFA
:1012A00074F8CC6480CCC86480C8F58204604FC3F5
:1012B000EB9FF5F0EA9E42F0E99D42F0E89C45F094
:1012C000603C501DE5825FFFE582D313CB5BCBF41E
:1012D0002B5582FB50280ABA002409B90020088047
:1012E0001DE5825BFBE582D313CF5FCFF4C3132FE1
:1012F0005582FF50090EBE00050DBD00010CC3EB69
:101300009FF5F0EA9E42F0E99D42F0E89C45F060CE
:1013100007CC4820E701B3EC2275F020800E75F071
:1013200010800575F0087D007E007F003392D53077
:10133000D50312158FEC334010EF33FFEE33FEED83
:1013400033FDEC33FCD5F0ED22E5F0247EA2D5137D
:10135000CC92E7CDCEFF22EDD2E7CD33EC3392D560
:1013600024814006E4FFFEFDFC22FCE4CFCECDCC80
:1013700024E0501174FF80EDC3CC13CCCD13CDCE3F
:1013800013CECF13CF0470F030D5DE02158FE9D223
:10139000E7C933E833F892D5EDD2E7CD33EC33FC2F
:1013A0005002B2D522EC30E7100FBF000C0EBE0089
:1013B000080DBD00040BEB6014A2D5EB13FCED92FD
:1013C000E7FD2274FFFCFDFEFF22E480F8A2D57445
:1013D000FF13FC7D80E480EFBB010689828A83E0F5
:1013E000225002E722BBFE02E32289828A83E49331
:1013F00022BB010CE58229F582E5833AF583E022E0
:101400005006E92582F8E622BBFE06E92582F8E2CD
:1014100022E58229F582E5833AF583E49322BB0134
:101420000689828A83F0225002F722BBFE01F32252
:10143000F8BB010DE58229F582E5833AF583E8F0F2
:10144000225006E92582C8F622BBFE05E92582C89E
:10145000F222EF8DF0A4A8F0CF8CF0A428CE8DF06E
:10146000A42EFE22A3F8E0C5F025F0F0E582158257
:1014700070021583E0C838F0E822BB010A89828A2D
:1014800083E0F5F0A3E022500687F009E71922BBBC
:10149000FE07E3F5F009E3192289828A83E493F5D4
:1014A000F074019322BB0110E58229F582E5833AAD
:1014B000F583E0F5F0A3E0225009E92582F886F0F3
:1014C00008E622BBFE0AE92582F8E2F5F008E222EE
:1014D000E5832AF583E993F5F0A3E99322BB01079D
:1014E00089828A830216B3500B09C5F027F7C5F02D
:1014F0001937F722BBFE0D09F8E325F0F3C5F01903
:10150000E338F322F889828A8374019325F0C5F0C9
:10151000F8E4933822BB010DC58229C582C5833A00
:10152000C5830216B35011C58229F808E5F026F6E6
:1015300018F5F0E58236F622BBFE11C58229F808BF
:10154000E225F0F5F0F218E23582F222F8E5822980
:10155000F582E5832AF58374019325F0F5F0E49391
:101560003822F8BB0111E58229F582E5833AF5833B
:10157000E8F0E5F0A3F0225009E92582C8F608A6B4
:10158000F022BBFE09E92582C8F2E5F008F222C389
:10159000E49FFFE49EFEE49DFDE49CFC22EB9FF5AE
:1015A000F0EA9E42F0E99D42F0EC6480C8648098C5
:1015B00045F022BB010789828A830216D55005E9CE
:1015C000F80216C9BBFE05E9F80216E189828A8392
:1015D0000216EDBB010DE58229F582E5833AF5831C
:1015E0000215F75007E92582F80216FDBBFE07E950
:1015F0002582F802170922ECF0A3EDF0A3EEF0A388
:10160000EFF022A8828583F0D083D08212161A12BE
:10161000161A12161A12161AE473E493A3C583C598
:10162000F0C583C8C582C8F0A3C583C5F0C583C80B
:10163000C582C822BB010789828A8302160350052E
:10164000E9F8021715BBFE05E9F802172E22A425BA
:1016500082F582E5F03583F58322D083D082F8E4E9
:10166000937012740193700DA3A393F8740193F512
:10167000828883E4737402936860EFA3A3A380DF7E
:10168000D083D082F8E4937012740193700DA3A3F9
:1016900093F8740193F5828883E473740293B5F030
:1016A000067403936860E9A3A3A3A380D88A8389FF
:1016B00082E473C5F0F8A3E028F0C5F0F8E58215E0
:1016C0008270021583E038F022E6FC08E6FD08E6A9
:1016D000FE08E6FF22E0FCA3E0FDA3E0FEA3E0FF9E
:1016E00022E2FC08E2FD08E2FE08E2FF22E493FCAD
:1016F000740193FD740293FE740393FF22ECF608C9
:10170000EDF608EEF608EFF622ECF208EDF208EE40
:10171000F208EFF222D083D082E493F608740193AA
:10172000F608740293F608740393F6740473D08376
:10173000D082E493F208740193F208740293F208E1
:10174000740393F27404738B2B8A2C892D8B2E8A4D
:101750002F89308B318A328933EF8EF01216801741
:10176000AF002217C600231898010117CC100F17DD
:10177000E7101017F7102017F9102117FC10221886
:10178000111023182C1024183A102518531026185D
:1017900065110017F9110118B0200118CD200218A9
:1017A000EA2003190B20041B7BFFFF00001B83AB07
:1017B0002BAA2CA92D1213D89005DBF060057F0110
:1017C00012000E7F01227598D07F0122AB2BAA2C2C
:1017D000A92D124800AB2EAA2FA9301215B39005DF
:1017E000CF1215F77F0422AB2BAA2CA92D1213D8E8
:1017F000FF12477A7F0122800302187DAB2BAA2CAF
:10180000A92D12452A852B2E852C2F852D307F045E
:1018100022AB2BAA2CA92D124800AB31AA32A93336
:1018200012147AFFAEF01247D07F0222AB2BAA2C03
:10183000A92D1213D8FDE4FF8025AB2BAA2CA92DCE
:101840001213D8C454F0FFE580540F4F64F0F580B4
:101850007F0122AB2BAA2CA92D1213D8FD7F0112D8
:101860003F0C7F0122AB2BAA2CA92D900001121353
:10187000F1540FF5FC1213D8F5FB7F0222AB2BAA13
:101880002CA92D124800AB31AA32A93312147AFFC9
:10189000AEF01247B87F0222AB2BAA2CA92D12451D
:1018A0002AAB2EAA2FA9301215B3123BBD7F0422FA
:1018B000AB2BAA2CA92D12452AAB2EAA2FA9301288
:1018C00015B39005EB1215F79005FB8038AB2BAAEA
:1018D0002CA92D12452AAB2EAA2FA9301215B39090
:1018E00005EF1215F79005FC801BAB2BAA2CA92D38
:1018F00012452AAB2EAA2FA9301215B39005F31268
:1019000015F79005FD7401F07F04229005FBE0FFC0
:10191000A3E05F60369005EFE0FCA3E0FDA3E0FEEE
:10192000A3E0FF900669E0F8A3E0F9A3E0FAA3E0E2
:10193000FB1210FA90066DE0F8A3E0F9A3E0FAA319
:10194000E0FB1210099005F31215F79005FBE0FF7C
:101950009005FDE05F6048900669E0FCA3E0FDA310
:10196000E0FEA3E0FFEC4D4E4F6034A3E0F8A3E0AF
:10197000F9A3E0FAA3E0FB9005F3E0FCA3E0FDA3EC
:10198000E0FEA3E0FF121005900669E0F8A3E0F97D
:10199000A3E0FAA3E0FB1212039005EF1215F790F3
:1019A0000679E0FCA3E0FDA3E0FEA3E0FF9005EFD5
:1019B000E0F8A3E0F9A3E0FAA3E0FB1210FA900626
:1019C00071E0F8A3E0F9A3E0FAA3E0FB1210FA90AB
:1019D0000669E0F8A3E0F9A3E0FAA3E0FB1210FA2D
:1019E000C004C005C006C007900679E0FCA3E0FD76
:1019F000A3E0FEA3E0FF9005EBE0F8A3E0F9A3E08D
:101A0000FAA3E0FB1210FAD003D002D001D00012EA
:101A10001005C004C005C006C007900671E0FCA315
:101A2000E0FDA3E0FEA3E0FF900679E0F8A3E0F973
:101A3000A3E0FAA3E0FB1210FA90066DE0F8A3E031
:101A4000F9A3E0FAA3E0FB1210FAA804A905AA067C
:101A5000AB07D007D006D005D004121005C004C0D3
:101A600005C006C007900675E0FCA3E0FDA3E0FEFC
:101A7000A3E0FFA3E0F8A3E0F9A3E0FAA3E0FB12E0
:101A800010FAA804A905AA06AB07D007D006D0050E
:101A9000D00412100590067DE0F8A3E0F9A3E0FA67
:101AA000A3E0FB1210099005F71215F7900689E0E4
:101AB000FCA3E0FDA3E0FEA3E0FF9005F3E0F8A3A4
:101AC000E0F9A3E0FAA3E0FB1212A06002500F902D
:101AD000068DE0FCE41213239005F71215F790062B
:101AE00081E0FCE41213239005F7E0F8A3E0F9A3EA
:101AF000E0FAA3E0FB1212A0404E900682E0FCE464
:101B00001213239005F7E0F8A3E0F9A3E0FAA3E0AD
:101B1000FB1212A0600250309005F7E0FCA3E0FD3C
:101B2000A3E0FEA3E0FF121357AD077F01123F0CA5
:101B30009005F3E0FCA3E0FDA3E0FEA3E0FF123B71
:101B4000BD7F0112477A8027900556E04420F0902F
:101B500005897402F09005F7E0FCA3E0FDA3E0FE28
:101B6000A3E0FF90058E1215F790058D7401F0E447
:101B70009005FDF09005FCF07F0122D2C075C08277
:101B80007F02227F002290055DE06002E4F0900574
:101B90005EE06002E4F090055DE07003021DE4C2C7
:101BA000AF9005D7E004F0E0C394034002E4F09066
:101BB00005D7E0FF700675E64A75D283EFB40106DB
:101BC00075D28775E64BEFB4020675D28775E64C81
:101BD000D2AFE490055DF09005AFE0FEA3E0FDED2F
:101BE000FFE4FCFD9005481215F7900548E0FCA3C2
:101BF000E0FDA3E0FEA3E0FFE4121319900649E024
:101C0000F8A3E0F9A3E0FAA3E0FB1210FA90064D66
:101C1000E0F8A3E0F9A3E0FAA3E0FB1210098F2596
:101C20008E248D238C22E4FFFE7D807C3FAB25AA91
:101C300024A923A8221212A0600E400C7F011200DA
:101C40000EE490058CF0802090058CE0D3943C400D
:101C5000047F0180027F009005D9E05F600A900553
:101C6000DBE07004FF12000E900683E07003021D9B
:101C7000E49005B3E0FEA3E0FDEDFFE4FCFD90057C
:101C8000481215F7900548E0FCA3E0FDA3E0FEA391
:101C9000E0FFE4121319900651E0F8A3E0F9A3E085
:101CA000FAA3E0FB1210FA900655E0F8A3E0F9A3BE
:101CB000E0FAA3E0FB121009AB25AA24A923A8226D
:101CC0001210FA8F258E248D238C229005CFE0FCF4
:101CD000A3E0FDA3E0FEA3E0FFAB25AA24A923A86F
:101CE000221212A060025003021DDF9005FEE0D315
:101CF00094035003021DD7E4FF12477AAF25AE24A8
:101D0000AD23AC229005D31215F7900556E0441090
:101D1000F09005887401F0AF25AE24AD23AC22907D
:101D2000058E1215F79005AFE0FEA3E0FDEDFFE490
:101D3000FCFD9005481215F7900548E0FCA3E0FD76
:101D4000A3E0FEA3E0FFE4121319900649E0F8A314
:101D5000E0F9A3E0FAA3E0FB1210FA90064DE0F8D8
:101D6000A3E0F9A3E0FAA3E0FB1210098F258E246B
:101D70008D238C229005921215F79005B3E0FEA3F7
:101D8000E0FDEDFFE4FCFD9005481215F7900548D5
:101D9000E0FCA3E0FDA3E0FEA3E0FFE41213199032
:101DA0000651E0F8A3E0F9A3E0FAA3E0FB1210FA71
:101DB000900655E0F8A3E0F9A3E0FAA3E0FB1210C7
:101DC000098F258E248D238C229005961215F7906D
:101DD000058D7403F080089005FEE004F08005E4B2
:101DE0009005FEF090055EE07003021ED39005D8CA
:101DF000E0F521AF21EF3395E0FEEF7802C333CE5B
:101E000033CED8F9FDAC0624ABF58274053CF583DE
:101E1000E0FE74AC2DF58274053CF583E0FDEDFF2A
:101E2000E4FCFD9005481215F7900548E0FCA3E09E
:101E3000FDA3E0FEA3E0FFE4121319C004C005C037
:101E400006C007AF21EF3395E0FEEF7803C333CE32
:101E500033CED8F92461F58274063EF583E0F8A309
:101E6000E0F9A3E0FAA3E0FBD007D006D005D00448
:101E70001210FAC004C005C006C007AF21EF3395A9
:101E8000E0FEEF7803C333CE33CED8F92465F58274
:101E900074063EF583E0F8A3E0F9A3E0FAA3E0FBC3
:101EA000D007D006D005D0041210098F258E248DBE
:101EB000238C229005D8E004F0E0C394014002E4B2
:101EC000F09005D8E014600304700375D34DE490DE
:101ED000055EF022D3D3C0C12D332E305656564561
:101EE00052525252525200417567203131203230E5
:101EF000310000434F4E464947555241544F52001E
:101F000007010356455253494F4E0000000004FF9D
:101F10001ED400444154450000000000000004FFAE
:101F20001EE700464C000000000000000000013FDA
:101F3000C8F5C34D485A0000000000000000000032
:101F40007A120042415544000000000000000000E9
:101F500001C200444550494E00000000000000004E
:101F6000000023544553540000000000000000000E
:101F7000000000C1CDC1D13220312E3620000041F9
:101F8000756720303520323031360000CDE520ED48
:101F9000E0F1F2F0EEE5ED000000000000000000CE
:101FA00000000000000000000152834A4C01420C76
:101FB00000004220000042AA000044CCC000000003
:101FC000000044CCC0000000000044CCC000000071
:101FD0000000BAAE5365422DF958BC017B9643818F
:101FE000747BBC017B964381747B3D9A6613C53834
:101FF00010003F8BD4FABCC7A3984008454E42AAB4
:10200000A148BF50E56042DC000000FF00447A00B8
:1020100000024000000055F0000100020000000036
:10202000000B010002001D00000004040002002F4C
:102030000000000504000200330000ED0101000271
:10204000001E00000008010002001F00000009013E
:10205000000200200000000A010002002100001020
:1020600002040002003700001003040002003B00DD
:1020700000100404000200670000100504000200C4
:102080006B00001006040002006F0000100704003F
:10209000020073000010080400020077000010091D
:1020A000040002007B0000100A010002007F000013
:1020B000100B01000200800000001E040102004716
:1020C00000060024040102005F0002E50104000292
:1020D00000270000E50204000200230000E50304DD
:1020E0000002002B0000E50401000200810000E571
:1020F0000504000200820000E506010002008600DF
:1021000000E50704000200870000E5080100020066
:102110008B0000F001FF00020001001CF002FF0430
:10212000011F7F000CF003FF04011F73000CD0019E
:1021300001080105520000D002010801055100000C
:10214000D00301080105500000D0040108010581F9
:102150000000D00501080105830000D00604080135
:1021600005F70000D00704080105EB0000D00804C3
:10217000080105EF0000D00904080105F30000D0B4
:102180000A04080105CF0000D00B04080105D300A4
:1021900000000000000000000000C0E0C0F0C083AC
:1021A000C082C0D075D000C000C001C002C003C052
:1021B00004C005C006C00720DF030222E490055BCF
:1021C000E0FFC36480948050030222DC9005A9E004
:1021D000603E9005D7E0F543E54325E025E024B1D6
:1021E000F582E43405F583E5D9F0E54325E025E003
:1021F00024B0F582E43405F583E5DAF0E54325E023
:1022000025E024AFF582E43405F583E5DBF0807E3C
:10221000C3EF6480948350030222A09005D7E0F5B9
:1022200043E54394035067E54325E025E024B1F5F9
:1022300082E43405F583E5D9F0E54325E025E02483
:10224000B0F582E43405F583E5DAF0E54325E025D1
:10225000E024AFF582E43405F583E5DBF090056119
:10226000E5D9F0900560E5DAF090055FE5DBF01266
:102270003D30900563E0FEA3E0FFE54325E025E067
:1022800024AFF582E43405F583EEF0A3EFF090057A
:1022900080E004F090055BE4F090055D04F080427E
:1022A00090055BE0FF3395E0FEEF7802C333CE3359
:1022B000CED8F9FF2461F58274053EF583E5D9F0A7
:1022C00074602FF58274053EF583E5DAF0745F2FB4
:1022D000F58274053EF583E5DBF0800090055BE058
:1022E00004F0C2DF20DE030223BF90055CE0C3647C
:1022F000809483500302237D9005D8E0F543E543A5
:1023000094015067E54325E025E024ADF582E434EF
:1023100005F583E5DEF0E54325E025E024ACF58214
:10232000E43405F583E5DCF0E54325E025E024AB66
:10233000F582E43405F583E5DDF090056DE5DEF02A
:1023400090056CE5DCF090056BE5DDF0123DD59075
:10235000056FE0FEA3E0FFE54325E025E024ABF5B3
:1023600082E43405F583EEF0A3EFF0900582E004FB
:10237000F090055CE4F090055E04F0804090055C10
:10238000E0FF3395E0FEEF7802C333CE33CED8F9C9
:10239000FF246DF58274053EF583E5DEF0746C2F45
:1023A000F58274053EF583E5DCF0746B2FF58274DD
:1023B000053EF583E5DDF090055CE004F0C2DE90BB
:1023C000057DE004F0700690057CE004F0D007D0B5
:1023D00006D005D004D003D002D001D000D0D0D098
:1023E00082D083D0F0D0E032E4F528F52690026068
:1023F000E0FFE526C39F400302263474622528F5DA
:1024000082E43402F583E0FE74612528F582E43429
:1024100002F583E0FDEEF529EDF52AE47003EE64A4
:1024200002703A74632528F582E43402F583E06093
:1024300014E52A5407FF7401A807088002C333D8A3
:10244000FC42808013E52A5407FF7401A807088026
:1024500002C333D8FCF45280052802262B7463256E
:1024600028F9E43402FA7B01AF2AAE291217478F0C
:1024700027E52760030225FAE52960030225E2E546
:102480002A603124FD700302254F24EFB40600407A
:10249000030225E29024A275F003A4C58325F0C5AC
:1024A000837302257402258702259A0225E20225FC
:1024B000B20225CA74632528F9E43402FA7B0112BA
:1024C000452A74632528F582E43402F583E0FCA3F1
:1024D000E0FDA3E0FEA3E0FF9005771215F790065C
:1024E00031E0FCA3E0FDA3E0FEA3E0FF900577E070
:1024F000F8A3E0F9A3E0FAA3E0FB1210FA90063586
:10250000E0F8A3E0F9A3E0FAA3E0FB12100912132C
:1025100057900406EEF0A3EFF0C3EE94005007E4EA
:10252000900406F0A3F0D3900407E094FF90040613
:10253000E0940F4007740FF0A374FFF0900406E0DE
:10254000FCA3E0FDECFF8FFC8DFB74040225FA7404
:10255000642528F582E43402F583E0540FF5FC7419
:10256000632528F582E43402F583E0F5FB052805B0
:102570002802262B74632528F582E43402F583E0D3
:10258000F580052802262B74632528F582E43402A1
:10259000F583E0F5A0052802262B74632528F58233
:1025A000E43402F583E06004D2B28002C2B20528AE
:1025B000807974632528F582E43402F583E06004B1
:1025C000D2B48002C2B40528806174632528F582E4
:1025D000E43402F583E06004D2B38002C2B305287C
:1025E000804974632528F9E43402FA7B01AF2AAEEE
:1025F0002912335D8F27E52760062528F528802BD3
:10260000900556E04420F09005897401F07461252E
:1026100028F9E43402752F01F530893175320075DF
:1026200033027B017A01790012409B0528052805B9
:10263000260223ED228B268A278928E4F529F52A0C
:10264000E52A25E025E024B2F582E43405F583E0AF
:102650006029E52A75F008A42449F582E43406F5DA
:1026600083E0FCA3E0FDA3E0FEA3E0FFE52A25E074
:1026700025E024BFF582E43405804CE52A25E025D9
:10268000E024AFF582E43405F583E0FEE52A25E099
:1026900025E024B0F582E43405F583E0FDEDFFE4A8
:1026A000FCFD9005481215F7900548E0FCA3E0FDFD
:1026B000A3E0FEA3E0FFE4121319E52A75F008A4D5
:1026C0002449F582E43406F583E0F8A3E0F9A3E0B9
:1026D000FAA3E0FB1210FAE52A75F008A4244DF5E0
:1026E00082E43406F583E0F8A3E0F9A3E0FAA3E07E
:1026F000FB12100990054C1215F790054CE0FCA355
:10270000E0FDA3E0FEA3E0FFAB26AA27A9288529C8
:10271000827583001215D37E00E92529F9EE3AFA75
:1027200012452A74042529F529052AE52AC39403AC
:102730005003022640E4F52AE52A25E025E024AEF0
:10274000F582E43405F583E06029E52A75F008A4F4
:102750002461F582E43406F583E0FCA3E0FDA3E008
:10276000FEA3E0FFE52A25E025E024BBF582E43462
:1027700005804CE52A25E025E024ABF582E434050C
:10278000F583E0FEE52A25E025E024ACF582E4347B
:1027900005F583E0FDEDFFE4FCFD9005481215F71B
:1027A000900548E0FCA3E0FDA3E0FEA3E0FFE412F7
:1027B0001319E52A75F008A42461F582E43406F5BE
:1027C00083E0F8A3E0F9A3E0FAA3E0FB1210FAE536
:1027D0002A75F008A42465F582E43406F583E0F850
:1027E000A3E0F9A3E0FAA3E0FB12100990054C1254
:1027F00015F790054CE0FCA3E0FDA3E0FEA3E0FF8D
:10280000AB26AA27A9288529827583001215D37EB5
:1028100000E92529F9EE3AFA12452A74042529F52A
:1028200029052AE52AC394015003022738AB26AABA
:1028300027A928AF2905298F82758300E580121406
:1028400030AF2905298F82758300E5A0121430AFBF
:1028500029228B088A09890AE4F50BAF0B050B8F37
:1028600082F5837404121430AF0B050B8F827583CD
:1028700000E4121430E4F50CE50C25E025E024B06A
:10288000F582E43405F583E0AB08AA09A90AAE0B8A
:10289000050B8E82758300121430E50C25E025E0CF
:1028A00024AFF582E43405F583E0AE0B050B8E8290
:1028B000758300121430E50C25E025E024AFF58285
:1028C000E43405F583E0FEE50C25E025E024B0F5D1
:1028D00082E43405F583E0FDEDFFE4FCFD9005485E
:1028E0001215F7900548E0FCA3E0FDA3E0FEA3E08D
:1028F000FFE4121319E50C75F008A42449F582E4ED
:102900003406F583E0F8A3E0F9A3E0FAA3E0FB12B4
:1029100010FAE50C75F008A4244DF582E43406F5B0
:1029200083E0F8A3E0F9A3E0FAA3E0FB121009901A
:10293000054C1215F790054CE0FCA3E0FDA3E0FE6A
:10294000A3E0FFAB08AA09A90A850B8275830012D0
:1029500015D37E00E9250BF9EE3AFA12452A7404E4
:10296000250BF50B050CE50CC394035003022878E6
:10297000E4F50CE50C25E025E024ACF582E4340513
:10298000F583E0AB08AA09A90AAE0B050B8E827588
:102990008300121430E50C25E025E024ABF582E439
:1029A0003405F583E0AE0B050B8E8275830012149F
:1029B00030E50C25E025E024ABF582E43405F58311
:1029C000E0FEE50C25E025E024ACF582E43405F5D5
:1029D00083E0FDEDFFE4FCFD9005481215F790053E
:1029E00048E0FCA3E0FDA3E0FEA3E0FFE41213191E
:1029F000E50C75F008A42461F582E43406F583E063
:102A0000F8A3E0F9A3E0FAA3E0FB1210FAE50C75D5
:102A1000F008A42465F582E43406F583E0F8A3E029
:102A2000F9A3E0FAA3E0FB12100990054C1215F788
:102A300090054CE0FCA3E0FDA3E0FEA3E0FFAB08A3
:102A4000AA09A90A850B827583001215D37E00E9B5
:102A5000250BF9EE3AFA12452A7404250BF50B05FD
:102A60000CE50CC394015003022973AF0B22000044
:102A700011892312329B462457AD653674BF8C48AA
:102A80009DC1AF5ABED3CA6CDBE5E97EF8F7108171
:102A900001083393221A56A5472C75B7643E9CC98A
:102AA0008D40BFDBAE52DAEDCB64F9FFE876210250
:102AB000308B02101399672676AF443455BDAD4A6A
:102AC000BCC38E589FD1EB6EFAE7C87CD9F5318331
:102AD000200A1291031877A7662E54B5453CBDCB4A
:102AE000AC429ED98F50FBEFEA66D8FDC974420410
:102AF000538D6116709F042015A9273236BBCE4C2A
:102B0000DFC5ED5EFCD7886899E1AB7ABAF35285F0
:102B1000430C7197601E14A1052837B3263ADECD09
:102B2000CF44FDDFEC5698E98960BBFBAA726306CF
:102B3000728F4014519D252234AB063017B9EF4EE9
:102B4000FEC7CC5CDDD5A96AB8E38A789BF17387B0
:102B5000620E5095411C35A3242A16B10738FFCFC9
:102B6000EE46DCDDCD54B9EBA8629AF98B7084088F
:102B70009581A71AB693C22CD3A5E13EF0B70840C1
:102B800019C92B523ADB4E645FED6D767CFF948958
:102B90008500B79BA612D2ADC324F1BFE03618C1A1
:102BA00009483BD32A5A5EE54F6C7DF76C7EA50A37
:102BB000B48386189791E32EF2A7C03CD1B5294281
:102BC00038CB0A501BD96F667EEF4C745DFDB58B18
:102BD000A40296998710F3AFE226D0BDC13439C361
:102BE000284A1AD10B587FE76E6E5CF54D7CC60CF7
:102BF000D785E51EF497802891A1A33AB2B34A4441
:102C00005BCD695678DF0C601DE92F723EFBD68DD7
:102C1000C704F59FE41690A98120B3BBA2325AC520
:102C20004B4C79D7685E1CE10D683FF32E7AE70EB6
:102C3000F687C41CD595A12AB0A3823893B16B4600
:102C40007ACF485459DD2D623CEB0E701FF9F78F97
:102C5000E606D49DC514B1ABA02292B983307BC7E0
:102C60006A4E58D5495C3DE32C6A1EF10F7800008E
:102C700017CE0FDF18111FBE0870106107AF1F3F7E
:102C800008F110E0072E0081174F0F5E18901E3DCF
:102C900009F311E2062C0183164D0E5C1992010214
:102CA00016CC0EDD19131EBC0972116306AD1C395A
:102CB0000BF713E60428038714490C581B960306E8
:102CC00014C80CD91B171CB80B76136704A902048F
:102CD00015CA0DDB1A151DBA0A74126505AB1D3B2A
:102CE0000AF512E4052A0285154B0D5A1A9418317B
:102CF0000FFF17EE0020078F104108501F9E070E90
:102D000010C008D11F1F18B00F7E176F00A1060C4E
:102D100011C209D31E1D19B20E7C166D01A3193301
:102D20000EFD16EC0122068D114309521E9C04086B
:102D300013C60BD71C191BB60C78146903A71B37D5
:102D40000CF914E80326048913470B561C981A350E
:102D50000DFB15EA0224058B12450A541D9A050A3B
:102D600012C40AD51D1B1AB40D7A156B02A51021C9
:102D700007EF1FFE08300F9F18510040178E0F1EDF
:102D800018D000C1170F10A0076E1F7F08B10E1CCE
:102D900019D201C3160D11A2066C1E7D09B31123B1
:102DA00006ED1EFC09320E9D19530142168C0C18BB
:102DB0001BD603C7140913A604681C790BB7132785
:102DC00004E91CF80B360C991B570346148812258E
:102DD00005EB1DFA0A340D9B1A550244158A0D1A8B
:102DE0001AD402C5150B12A4056A1D7B0AB508107A
:102DF0001FDE07CF100117AE006018710FBF172F2D
:102E000000E118F00F3E08911F5F074E1080162D4D
:102E100001E319F20E3C09931E5D064C1182091262
:102E20001EDC06CD110316AC016219730EBD142908
:102E300003E71BF60C380B971C59044813860B1636
:102E40001CD804C9130714A803661B770CB90A140D
:102E50001DDA05CB120515AA02641A750DBB152BD8
:102E600002E51AF40D3A0A951D5B054A12848E3369
:102E70008F348C358D368B378A3889399020197587
:102E8000F009EF12164EEE75F009A42583F583E4E0
:102E900093B4040312452A90201975F009E5341201
:102EA000164EE53375F009A42583F583E493B40247
:102EB00009AB37AA38A939124800E4F53A9020192D
:102EC00075F009E53412164EE53375F009A4258333
:102ED000F583E493FFE53AC39F4003022FC37E00CE
:102EE000E536253AFFEE3535FEAB37AA38A93985E8
:102EF0003A827583001213F1FD12438CE42536FFEC
:102F0000E5353404FE7C00EF253AFFEC3EFEAB379E
:102F1000AA38A939853A827583001213F1FD12434C
:102F20008CE42536FFE5353408FE7C00EF253AFFBA
:102F3000EC3EFEAB37AA38A939853A827583001278
:102F400013F1FD12438CAB37AA38A939853A827543
:102F500083001213F1FF7B0174022536F9740635E4
:102F600035FAE53AFD7C0029F9EC3AFAEF12141E25
:102F700090201975F009E53412164EE53375F00905
:102F8000A42583F583E493F47034AB37AA38A939C8
:102F9000853A82F5831213F1601F90201E75F009A7
:102FA000E53412164EE53375F009A42583F583D375
:102FB0007401939DE4939C5005E53A04FF22053A81
:102FC000022EBD75330075348CAD34AC33E4FFFE96
:102FD000123F99900694A3E0FDAF34AE3312438CB8
:102FE000E5342401FFE43533FE900694E0FD1243FE
:102FF0008CAD34AC337F007E04123F99E42534FF5E
:10300000E5333404FE900694A3E0FD12438CE534CE
:103010002401FFE5333404FE900694E0FD12438C56
:10302000AD34AC337F007E08123F99E42534FFE5D0
:10303000333408FE900694A3E0FD12438CE534245B
:1030400001FFE5333408FE900694E0FD12438CAF97
:103050003A228B268A278928EE60030231E7EF2483
:10306000FE700302312F24F060030231E79005CD9A
:10307000E0AB26AA27A92812141E9005CEE0AB26A5
:10308000AA27A9289000011214309005DCE09000D6
:10309000021214309005DDE0900003121430900508
:1030A000DEE0FEA3E0900004121430EE9000051262
:1030B00014309005E0E0FEA3E0900006121430EE1C
:1030C0009000071214309005E2E0FCA3E0FDA3E0BD
:1030D000FEA3E0FF9000081215D3E92408F9E43AB2
:1030E000FA12452A9005E6E0FCA3E0FDA3E0FEA36A
:1030F000E0FFAB26AA27A92890000C1215D3E924DB
:103100000CF9E43AFA12452A9005DBE0AB26AA272F
:10311000A9289000101214309005EAE090001112D6
:103120001430900683E09000121214307F13229026
:1031300005CDE0AB26AA27A92812141E9005CEE0E3
:10314000AB26AA27A9289000011214309005DCE0D4
:103150009000021214309005DDE09000031214304C
:103160009005DEE0FEA3E0900004121430EE900023
:10317000051214309005E0E0FEA3E0900006121462
:1031800030EE9000071214309005E2E0FCA3E0FD61
:10319000A3E0FEA3E0FF9000081215D3E92408F98C
:1031A000E43AFA12452A9005E2E0FCA3E0FDA3E030
:1031B000FEA3E0FFAB26AA27A92890000C1215D386
:1031C000E9240CF9E43AFA12452A9005DBE0AB2633
:1031D000AA27A9289000101214309005EAE0900068
:1031E000111214307F12227F0022E4F5219002C2D6
:1031F000E0F522A3E0F523D3E5239403E522940030
:10320000406B745B2523F58274023522F583E064FC
:1032100002705A745A2523F58274023522F583E030
:10322000641070497B017A02795CE52324FE124622
:1032300017EF603974592523F58274023522F5831E
:10324000E0B4031174582523F58274023522F58306
:10325000E0641060189002C2E4F0A37402F07522DA
:1032600000F52390025C7410F0A37402F0C3E52310
:103270009406E5229400500302335A74592523F52D
:103280008274023522F583E06403600302335A74CA
:10329000582523F58274023522F583E0641060031B
:1032A00002335A7B017A02795CE52324FC1246172B
:1032B000EF700302335A150EA80E7601E52324FAA7
:1032C000FDE52234FFFC7B017A02795E123A23ACE1
:1032D00006AD07745B2523F58274023522F583E081
:1032E000FE745A2523F58274023522F583E0FBEB48
:1032F0006D7002EC6E703AE52324FA9002C1F0E59D
:103300002234FF9002C0F07B017A02795CAD23ACDD
:1033100022124114C39002C1E09FF09002C0E094D9
:1033200000F090025FE0F521E49002C2F0A3F0808B
:1033300029900556E07023E04420F090058974CA76
:10334000F090058D7401F0AC22AD23E412131E90B1
:10335000058E1215F7A2B4B392B4AF21228E2C8F32
:103360002D8B2E8A2F8930E4F531F5329020197596
:10337000F009E53212164EE53175F009A42583F502
:1033800083E493F970030234A490201A75F009E5E0
:103390003212164EE53175F009A42583F583E493C6
:1033A000FEEE20E00302345090201775F009E5325C
:1033B00012164EE53175F009A42583F583E493FCDC
:1033C000740193FDD3952DEC952C40030234999014
:1033D000201E75F009E53212164EE53175F009A48C
:1033E0002583F583E493FA740193FBED2BFDEC3A0E
:1033F000FCC3E52D9DE52C9C4003023499EE30E39F
:103400000302349990201775F009E53212164EE543
:103410003175F009A42583F583E493FE740193FFCD
:10342000C3E52D9FFFE52C9EFEE9FD7C00121452A2
:1034300090201C75F009E53212164EE53175F00941
:10344000A42583F5837401932FFDE4933EFC803C17
:1034500090201775F009E53212164EE53175F00926
:10346000A42583F583740193B52D2EE493B52C29FF
:1034700090201C75F009E53212164EE53175F00901
:10348000A42583F583E493FC740193FDAB2EAA2F4E
:10349000A930AF32AE31022E6E0532E53270020530
:1034A0003102336C7F00228E2C8F2D8B2E8A2F8938
:1034B00030E4F531F53290201975F009E532121635
:1034C0004EE53175F009A42583F583E493FD70037F
:1034D0000235E390201A75F009E53212164EE531F7
:1034E00075F009A42583F583E49320E00302358F6A
:1034F00090201775F009E53212164EE53175F00986
:10350000A42583F583E493FE740193FFD3952DEEF8
:10351000952C40030235D890201E75F009E5321233
:10352000164EE53175F009A42583F583E493FA740A
:103530000193FBEF2BFFEE3AFEC3E52D9FE52C9E9A
:1035400040030235D890201775F009E53212164E67
:10355000E53175F009A42583F583E493FE740193A6
:10356000FFC3E52D9FFFE52C9EFE7C0012145290B8
:10357000201C75F009E53212164EE53175F009A4EC
:103580002583F5837401932FFDE4933EFC803C90EA
:10359000201775F009E53212164EE53175F009A4D1
:1035A0002583F583740193B52D2EE493B52C2990D2
:1035B000201C75F009E53212164EE53175F009A4AC
:1035C0002583F583E493FC740193FDAB2EAA2FA908
:1035D00030AF32AE310235E60532E53270020531E8
:1035E0000234B67F00228E338F348C358D368B3784
:1035F0008A388939E4F53A90201975F009E53412D2
:10360000164EE53375F009A42583F583E493FFE5B1
:103610003AC39F40030236CD90201A75F009E53475
:1036200012164EE53375F009A42583F583E493FC67
:10363000740193FDEC30E2107E00E536253AFFEE92
:103640003535FE1200038020EC7E0030E30EE536B7
:10365000253AFFEE3535FE124896800CE536253AC0
:10366000FFEE3535FE124814AB37AA38A939853A32
:1036700082758300EF12143090201975F009E5343B
:1036800012164EE53375F009A42583F583E493F40F
:103690007036AB37AA38A939853A82F5831213F10F
:1036A000602190201E75F009E53412164EE5337541
:1036B000F009A42583F583D3740193953AE4939498
:1036C000005005E53A04FF22053A0235F79020192B
:1036D00075F009E53412164EE53375F009A425831B
:1036E000F583E493B40409AB37AA38A93912452A03
:1036F00090201975F009E53412164EE53375F0097E
:10370000A42583F583E493B40209AB37AA38A93919
:10371000124800AF3A2275AF0153D7F8C2AFE49018
:1037200006A9F0900600F0A3F0900600E0FEA3E0EA
:10373000FFC39455EE9400501E7B0174AA2FF974B8
:10374000053EFAE412141E900601E004F070DA90CF
:103750000600E004F080D2E4900600F0A3F09006AA
:1037600000E0FEA3E0FFC3945AEE9400501E7B01DC
:1037700074502FF974053EFAE412141E900601E00D
:1037800004F070DA900600E004F080D2901000E4BB
:1037900093FE740193FF123841E490058DF090057B
:1037A00056E04480F012483890058BEFF0E4900525
:1037B000FFF012459F120A01900620E0FF1200362A
:1037C000E4900555F0900698E07002A3E060069042
:1037D00005557401F09005A5E06008A3E06004A31E
:1037E000E070069005557401F07B017A0179007D47
:1037F0000112418C123C83E4FF12485A7F061248A2
:1038000083D2AF12001E121B869002C2E07002A388
:10381000E060081231EA9005FFEFF09005FFE0FF4D
:1038200060E190025EE0FEF4600990061FE0FDEEAC
:10383000B505D0C2AF120056D2AFE49005FFF080BC
:10384000C2AD07AC06E49006A3F0A3F074FFA3F0AA
:10385000A3F0ED4C7003023947E490069EF0A3F00C
:10386000ED2402FFE43CFEC390069FE09F90069E7D
:10387000E09E4003023929E0FEA3E0FFA3EEF0A39F
:10388000EFF0C3EE94004024D3EF9402EE94005086
:103890001B90C003E493701490069FE02400FE90F8
:1038A000069EE034C09006A0F0A3CEF09006A0E003
:1038B000FEA3E0F5828E83E493F99006A2F0FFA3C5
:1038C000A3E06F25E0FFE433FE746E2FF582742CC5
:1038D0003EF583E493FA740193FB9006A3E0FFEABC
:1038E000FEEB6FFFEEF0A3EFF0E9FFA3A3E06F257F
:1038F000E0FFE433FE746E2FF582742A3EF583E414
:1039000093FA740193FB9006A5E0FFEAFEEB6FFFCC
:10391000EEF0A3EFF090069FE004F0600302386041
:1039200090069EE004F00238609006A3E0FFA3E05A
:10393000900698CFF0A3EFF09006A5E0FFA3E090EB
:103940000692CFF0A3EFF0228B268A278928121344
:10395000D8643A6003023A22E92401F9E43AFA12FF
:1039600044478F29AB26E5282407F9E43527FA12C6
:1039700044478F2CE52C6003023A0EAB26E5282441
:1039800003F9E43527FA1244478F2AAB26E52824A9
:1039900005F9E43527FA1244478F2B9006A9E0FF7A
:1039A000652A604FEF60081246E8E0FF1248269053
:1039B00006A9E52AF0E4F52CE52AFE7C00E4252C96
:1039C000FFEC3E8F82F583E493FF7400252CF8EF23
:1039D000F2052CE52CB4FFE0E4F52CE52CC3952989
:1039E0005040124430AE2B052B74002EF8EFF20538
:1039F0002C80E8E4F52CE52CC395295025124430A1
:103A0000AE2B052B74002EF8EFF2052C80E8900603
:103A1000A9E0FF60081246E8E0FF124826E490069D
:103A2000A9F022150E150EA80EA60408A605150E5F
:103A3000150E150EA80EA60308A60208A601E50E8F
:103A400024FCF50EF8080874FFF608F6A80EE4F654
:103A500008F6E50E2407F8E6FE08E6FFA80EE6FCE9
:103A600008E6FDC39FEC9E505FE50E2404F8860334
:103A700008E6FA08E6F98D828C831213F1B410116E
:103A8000E50E2409F8E66009A80E0806E61870019C
:103A900006A80EE6FE08E6F5828E831213F1FFA853
:103AA0000E0808E6FC08E6FDECFEEF6DA80E08081F
:103AB0001246BDA80E0808A60608A607A80E080606
:103AC000E618708E06023A52A80E0808C000E6FEFC
:103AD00008E6FF74036FD0001246BDA80E0808A6C2
:103AE0000608A607A80E0808E6FE08E6FFE50E246D
:103AF0000AF50E22E4F527F526900260E0FFE526A0
:103B0000C39F4003023BB875F002E526A42462F58A
:103B100082E5F03402F583E0FDFE75F002E526A4AF
:103B20002461F582E5F03402F583E0FBEEF528EB45
:103B3000F529900408F0A3EDF07B017A04790AAF2F
:103B400029124712752A008F2BE52B452A60028027
:103B5000187B017A04790AAF29AE281234A7752A96
:103B6000008F2BE52B452A6027752F0175300475D2
:103B70003108E52B2402F533E4352AF5327B017A4E
:103B800001790012409BE52B24022527F52780238D
:103B9000900556E04420F09005897401F0F52F75EA
:103BA0003004753108753200753302FB7A017900F3
:103BB00012409B0526023AF9AF277E00229005E2CB
:103BC0001215F7900639E0FCA3E0FDA3E0FEA3E0A8
:103BD000FF9005E2E0F8A3E0F9A3E0FAA3E0FB120E
:103BE00010FA90063DE0F8A3E0F9A3E0FAA3E0FBA9
:103BF00012100912135790068E1215F7E47FFF7EFC
:103C0000FFFDFC90068EE0F8A3E0F9A3E0FAA3E044
:103C1000FBD312159D400A74FF900406F0A3F080B8
:103C20003B900639E0FCA3E0FDA3E0FEA3E0FF909B
:103C300005E2E0F8A3E0F9A3E0FAA3E0FB1210FA32
:103C400090063DE0F8A3E0F9A3E0FAA3E0FB121030
:103C500009121357900406EEF0A3EFF090068EE0E1
:103C6000FCA3E0FDEC335007E4900406F0A3F090D1
:103C70000406E0FEA3E0FF9005DEEEF0A3EFF012F5
:103C800047B822E49005D7F0A3F0901F0193900568
:103C9000CBF0E4A3F0A3F0A3F09005DBF090058C4B
:103CA000F0900621E0FFA3E0FDA3E0FB1247E87BD4
:103CB000017A0179007D0112418C12003EE4FF126D
:103CC000000EC2B67580F0E49005FBF0A3F0A3F0FF
:103CD000A3F0FFFEFDFC900684E0F8A3E0F9A3E06A
:103CE000FAA3E0FB1212A0603340317F007E407DDA
:103CF0009C7C45900684E0F8A3E0F9A3E0FAA3E0F9
:103D0000FB1212A05016900684E0FCA3E0FDA3E095
:103D1000FEA3E0FF9005CF1215F7800A9005CF12A1
:103D20001603447A0000900688E0FDE4FF023F0C91
:103D3000E4FBE4FAEA25E025E02463F582E43405B7
:103D4000F583E0FEA3E0FFEA25E025E0245FF582AD
:103D5000E43405F583E0FCA3E0D39FEC9E4063EAE6
:103D600025E025E0245FF582E43405F583E0FCA33B
:103D7000E0FDA3E0FEA3E0F5478E468D458C44EAC6
:103D800025E025E02463F582E43405F583E0FCA317
:103D9000E0FDA3E0FEA3E0FFEA25E025E0245FF5D7
:103DA00082E43405F5831215F7AF47AE46AD45AC56
:103DB00044EA25E025E02463F582E43405F5831226
:103DC00015F70AEA64026003023D340BEB640360FA
:103DD00003023D3222E4FBE4FAEA25E025E0246F09
:103DE000F582E43405F583E0FEA3E0FFEA25E02553
:103DF000E0246BF582E43405F583E0FCA3E0D39F77
:103E0000EC9E4063EA25E025E0246BF582E434056E
:103E1000F583E0FCA3E0FDA3E0FEA3E0F5478E46BA
:103E20008D458C44EA25E025E0246FF582E43405D5
:103E3000F583E0FCA3E0FDA3E0FEA3E0FFEA25E0BC
:103E400025E0246BF582E43405F5831215F7AF47BE
:103E5000AE46AD45AC44EA25E025E0246FF582E4AA
:103E60003405F5831215F70AEA64026003023DD9AE
:103E70000BEB64036003023DD72243AF01787FE47C
:103E8000F6D8FD75A000758147023EC7023716E4DB
:103E900093A3F8E493A34003F68001F208DFF480D3
:103EA00029E493A3F85407240CC8C333C4540F4423
:103EB00020C8834004F456800146F6DFE4800B01FD
:103EC00002040810204080900026E47E019360BC2C
:103ED000A3FF543F30E509541FFEE493A360010E95
:103EE000CF54C025E060A840B8E493A3FAE493A3BC
:103EF000F8E493A3C8C582C8CAC583CAF0A3C8C5DD
:103F000082C8CAC583CADFE9DEE780BEA907C281CD
:103F1000D282C283C2FDD2A3C2A0C2A1C2A37C012D
:103F2000C3EC64809480402A74017E00A804088059
:103F300005C333CE33CED8F9FFE9FBEF5B7004C283
:103F4000A18002D2A1A2A0B392A01CA2A0B392A071
:103F500080CE7C07C3EC64809480402A74017E008C
:103F6000A804088005C333CE33CED8F9FFEDFBEFAC
:103F70005B7004C2A18002D2A1A2A0B392A01CA235
:103F8000A0B392A080CED2A3D2FDE9540124DCF5E7
:103F900082E43405F583EDF0228E3B8F3C8C3D8D21
:103FA0003E74FF9006A3F0A3F0E53E453D6070E44B
:103FB0009006A0F0A3F09006A0E0FEA3E0FFC3955A
:103FC0003EEE953D504AE53C2FFFE53B3EFE124854
:103FD000149006A2EFF0A3E0FCA3E0FDED6F25E056
:103FE000FFE433FE746E2FF582742A3EF583ECFFF6
:103FF000E493FE7401936FFF9006A3EEF0A3EFF03D
:104000009006A1E004F070AE9006A0E004F080A657
:104010009006A3E0FFA3E0900694CFF0A3EFF02278
:10402000C0E0C083C082C0D075D000C00753A1FBE0
:10403000900553E4F0A3F090057CE0FFA3E0A3CF4C
:10404000F0A3EFF0A3E0A3F0A3E0A3F090057CE4DD
:10405000F0A3F0900580F0900582F0900552E00406
:10406000F090058CE004F0900552E0B43C229005FD
:1040700051E004F0A3E4F0900551E0B43C12900547
:1040800050E004F0A3E4F0900550E0B41802E4F02E
:10409000D007D0D0D082D083D0E0328B2C8A2D892B
:1040A0002EE4F534F535C3E5359533E534953250D6
:1040B00043AB2CAA2DA92E9001C41214A52535FFBF
:1040C000E53435F0FEC3EF9440EE9401501CAB2F65
:1040D000AA30A9318535828534831213F1FD74C667
:1040E0002FF58274023EF583EDF00535E53570B6A7
:1040F000053480B2AB2CAA2DA92E9001C4E53285DF
:1041000033F01215159001C41214A52533FFE532C2
:1041100035F0FE228B248A2589268C278D28E4F50C
:104120002BF529752A02E52824FCFFE52734FFFE3C
:10413000C3E52A9FE5299E5050AB24AA25A92685D0
:104140002A828529831213F164107033052BAF2A5C
:10415000AE29C3EF9528EE9527501CAB24AA25A9BC
:10416000268F828E83A31213F18F828E83121430D6
:104170000FBF00010E80DBE528152870021527050A
:104180002AE52A70A10529809DAF2B221216340042
:10419000000000900158E4F5F012156290015AE415
:1041A000F5F01215629001C0E4F5F012156290016D
:1041B000C2E4F5F0121562ED24FE601514601714C8
:1041C000601C14601E14602024057022759E868079
:1041D00008759E858003759E84759D128010759E5E
:1041E000838008759E828003759E81759D2D7598CC
:1041F00050C298C299D2ACD2BC22900262E0F5279C
:10420000900260E024FE705EE4F526900261E0FF1B
:10421000E526C39F5050900408E527F0FF7E007B01
:10422000017A0479091234A7EF601C752F017530EB
:10423000047531082401F533E433F5327B017A014A
:10424000790012409B800D900556E04420F09005C7
:10425000897401F074632526F582E43402F583E065
:10426000F527052680A5228B268A278928E4F52BA9
:104270009000041213F124FE7053E4F529AB26AA32
:1042800027A9289000051213F1FFE529C39F503D8F
:10429000E52B2406FFE433FEE5292FF582E43EF505
:1042A000831213F1F52AFF7E00E52B2407FDE4338A
:1042B000FC7A00ED2529FDEA3CFCE92DF9E5273CD7
:1042C000FA12335DEF252BF52B052980B022AD07BF
:1042D000D281D282C283C2FDD2A3C2A0C2A1C2A394
:1042E000E4FCC2A1A2A0B392A0C2A1A2A0B392A0DA
:1042F0000CBC02EE7C07C3EC64809480402A7401FD
:104300007E00A804088005C333CE33CED8F9FFED74
:10431000FBEF5B7004C2A18002D2A1A2A0B392A065
:104320001CA2A0B392A080CED2A3D2FD229002C242
:10433000E0FCA3E0FDC39464EC94005041745C2D58
:10434000F58274023CF583EFF09002C3E004F07054
:10435000069002C2E004F09002C2E0FCA3E0FD641B
:10436000014C7007EF64106022800BED64024C700A
:104370001AEF64026015E49002C2F0A3F0229002EA
:104380005CEFF09002C2E4F0A304F022AB07AA06AF
:1043900075B90FEBAE027802CEC313CE13D8F9EE87
:1043A000F5C7EBAE027802CEC313CE13D8F9F5C62B
:1043B00075B90175B9057E00EB5403FFEE701CEF73
:1043C00014600E14600F1460102403700E8DBC80F6
:1043D0000A8DBD80068DBE80028DBF75B902228E0A
:1043E000268F278B288A29892AE4FCC374039C25FD
:1043F000E025E0FFE527AE26A807088005CEC31319
:10440000CE13D8F9540FFDC36480948A50067430DB
:104410002DFD800474372DFDAB28AA29A92AECFFB5
:104420003395E08F82F583ED1214300CBC04BC226E
:10443000E52C75F002A42409FFE435F0FEAB26E577
:10444000282FF9E5273EFA1213D8FED39439EE400F
:104450000524C9FF800324D0FFEFC454F0FF90006F
:10446000011213F1FED394394007EE24C9420780AC
:104470000A9000011213F124D0420722C0E0C0F0DC
:10448000C083C082C0D075D000C000C001C002C0CF
:1044900003C004C005C006C007309807AF99124397
:1044A0002DC298309905C299124558D007D006D030
:1044B00005D004D003D002D001D000D0D0D082D01B
:1044C00083D0F0D0E0328B2B8A2C892DE532453118
:1044D000603DC29CAB2BE52D2404F9E4352CFAC0D9
:1044E00003C002C001852E36852F37853038E52D73
:1044F000245AF9E52C34018B39F53A893B85313C56
:1045000085323DD001D002D003120EA412455822AC
:1045100090054CE0FCA3E0FDA3E0FEA3E0FF9004C7
:10452000081215F77B017A0479081213D8FF90005E
:10453000031213F112141E900003EF1214309000B6
:10454000011213F1FF9000021213F19000011214F6
:1045500030900002EF02143090025AE0FEA3E0FF18
:10456000D39400EE94004036900258E0FCA3E0FDA6
:10457000D3EF9DEE9C401A900258E475F00112149E
:1045800064FE740425F0F58274013EF583E0F5992C
:1045900022E4900258F0A3F0A3F0A3F0D29C22757D
:1045A0008911758DD7758B09C28FD28ED2AB758C60
:1045B00080E4F58AC28DD28CD2A9C2CDC2CCC2C849
:1045C000C2C9C2CB75CD80F5CC75CB80F5CAD2AD52
:1045D000D2CA75A60175A11375A904228B268A2754
:1045E000892890061FE09002C6F0A3EDF0A3741F87
:1045F000F0A3E52AF0752E01752F027530C67531CE
:10460000007532041244C6AB26AA27A9289001C41B
:10461000E475F004021562FDE52234FFFC8B248A68
:10462000258926E4F527D3ED9400EC9400401EABD9
:1046300024AA25A9268D828C831213F164106003AD
:10464000AF2722632701ED1D70DC1C80D9AF272224
:10465000C0E0C083C082C0D0C2AF050DE5F7E50D54
:10466000B401059006A78009E50DB402099006A7DC
:10467000A3E0F5F7800643A008750D00D2AFD0D0B7
:10468000D082D083D0E032E4FF74842FF582E4340A
:1046900005F583E0FE74082FF582E43404F583EE1B
:1046A000F00FBF08E4752F017530047531087532BD
:1046B000007533087B017A01790002409BA6060849
:1046C000F6A80E0808E6FE08E6FFAC06EF25E0FFB8
:1046D000E433FE746E2FF582742A3EF583ECFFE41A
:1046E00093FE7401936FFF22EFC39440402375B98A
:1046F000F08FC7E4F5C675B9058FC775C64075B9A3
:10470000058FC775C68075B9058FC775C6C075B9E1
:104710000522E4F52CF52DEF8EF012168047290DB9
:1047200002472C0D12000047347F0122740212143C
:104730001E7F01227F002290061FE09002C6F0A398
:10474000EDF0A3741FF0A3E52AF09001C4E475F026
:10475000041215627E007F0422C0E0C083C082C0C4
:10476000D0C2CF900554E02402F0900553E034000D
:10477000F0D0D0D082D083D0E032EF24FF9280D22C
:10478000B6AC07E4121323E4FBFAF978401210FAEE
:10479000121357C2B69005EAEFF0228B268A2789BA
:1047A00028752E01752F027530C69001C41214A50C
:1047B000F53285F0310244C68E348F35D281C28203
:1047C000C2831248499005DEE534F0A3E535F022B6
:1047D0008E348F35D281D282C2831248499005E04F
:1047E000E534F0A3E535F0228FD28DE68BD375D179
:1047F00033D2AEC2DFC2DE75FD03E4F5FCF5FB2269
:104800001213D8FF9000011213F112141E90000130
:10481000EF021430AD07AC0675B90F8CC7EDF5C6C5
:1048200075B981AFBC22EFC39440400B75B9F08FCE
:10483000C7E4F5C675B90222E4FFE5C030E2010F16
:10484000E5DF20E703430702229006A7EEF0A3EF7F
:10485000F053A0F7E5F7E4F5F722EF33333354F8DC
:10486000FEEF25E04E4401F5DF228F21C2AFD2C01A
:104870008FC0D2AFAF2122CED8C8C1CAC020CFCE00
:10488000212000EFC454F04402FF02486A758C8076
:0D489000758A00C28D328F828E83E0FF2278
:00000001FF
