:020000040800F2
:10000000285D0020F1010008F9010008FB0100084B
:10001000FD010008FF0100080102000800000000C7
:1000200000000000000000000000000003020008C3
:10003000050200080000000007020008217A0008FD
:100040000B0200080B0200080B0200080000000071
:10005000000000000B0200080B020008817F00086E
:100060000B020008000000000B0200080B02000851
:100070000B02000800000000E17E00080B020008EF
:100080000B020008F13E0008000000000B0200080F
:100090000B0200080000000000000000000000004B
:1000A0000000000000000000000000000B0200083B
:1000B0000B0200080B0200080B0200080B020008EC
:1000C00000F002F800F084F80AA090E8000C8244E6
:1000D0008344AAF10107DA4501D100F079F8AFF2C3
:1000E000090EBAE80F0013F0010F18BFFB1A43F016
:1000F00001031847DCCE00000CCF00000A444FF08B
:10010000000C10F8013B13F0070408BF10F8014B76
:100110001D1108BF10F8015B641E05D010F8016BBB
:10012000641E01F8016BF9D113F0080F1EBF10F81F
:10013000014BAD1C0C1B09D16D1E58BF01F801CB42
:10014000FAD505E014F8016B01F8016B6D1EF9D5C5
:100150009142D6D370470000103A24BF78C878C1C6
:10016000FAD8520724BF30C830C144BF04680C60BD
:10017000704700000023002400250026103A28BF05
:1001800078C1FBD8520728BF30C148BF0B60704709
:1001900066290BF08885642900F0C880782900F072
:1001A0000181732900F0C585002070471FB500F05C
:1001B000C9FE0400002000210BF098F8401C60608C
:1001C000002000210BF07CF8E0601FBD10B510BDD1
:1001D00001F05CF81146FFF7E9FF09F0F9FF00F0C4
:1001E00003FF03B4FFF7F2FF03BC01F0FBFC0000C8
:1001F0000948804709480047FEE7FEE7FEE7FEE7BB
:10020000FEE7FEE7FEE7FEE7FEE7FEE704480549F6
:10021000054A064B70470000D17A0008C10000086B
:1002200028570020285D0020285900202859002048
:100230000FB41CB5074B06AA7B446946009005988D
:1002400000F045FD0020694600F054FD1CBC5DF83F
:1002500014FB0000B90A00000FB41CB50C0007AA7B
:10026000009001D02044401E074B7B44694601901A
:10027000069800F02CFD002C03D06946002000F009
:1002800039FD1CBC5DF814FB910A000070B50446F2
:1002900085690068C10601D5302600E02026C00728
:1002A00007D070BDD4E9012130469047206A401C38
:1002B00020626D1EF6D570BD70B504468569007864
:1002C000C00707D170BDD4E9012120209047206AE2
:1002D000401C20626D1EF6D570BD70B50C460546FB
:1002E000012A05D02878800600D5EA69002302E0BB
:1002F000012305E05B1C934202D2E05C0028F9D1A7
:10030000A869E618C01AA861286A18442862284615
:10031000FFF7BCFF04E0D5E9012114F8010B904779
:10032000B442F8D32846FFF7C7FF70BD2DE9F0416E
:100330000646002410687529314616A510D0AFF383
:100340000080002802DA404213A507E031688A07DE
:1003500001D512A502E0490704D511A5012401E049
:10036000AFF3008000210A2206F1240709E0B0FB68
:10037000F2FCB0FBF2F302FB1C003030785418465C
:10038000491C0028F3D123462A463046BDE8F041F7
:1003900000F031BA000000002D0000002B0000002A
:1003A0002000000070B504460D4621461068AFF3EA
:1003B00000802188090502D50F4A7A4402E00E4ADE
:1003C0007A440E32002104F1240305E000F00F0608
:1003D0000009965D5E54491C0028F7D1207800235F
:1003E000000704D5702D02D009B102231132204636
:1003F000BDE8704000F0FFB9EEC900002DE9F05FE4
:10040000894604464FF0000ADFF824B1FB44C0F8E7
:1004100020A02046E168884700287DD0252806D006
:10042000D4E901219047206A401C2062F1E70025B1
:100430005F462046E16888472028064607DB312EC4
:1004400005D2B81910F8200C08B10543F1E7A80748
:1004500001D525F00405C4F81CA00027C4F818A095
:100460002A2E09D0304607F07CFE38B304EB87080B
:10047000303EC8F8186019E059F8041B204604EB18
:1004800087029161E1688847012F064618D1E0692B
:10049000002820DA25F020051DE0D8F8180000EB30
:1004A000800006EB40003038C8F818002046E168AC
:1004B0008847064607F055FE0028EED1012F0AD0E6
:1004C0002E2E08D12046E16888477F1C0646022F61
:1004D00045F02005C4DBA069002803DA404245F05E
:1004E0000105A061E80701D025F01005A6B1A6F12D
:1004F0004100192802D8203645F400654A463146A5
:10050000204625604D46FFF743FE60B1012807D025
:10051000ED1D25F0070000E007E000F1080978E78D
:1005200005F1040975E730467AE7206ABDE8F09FD7
:10053000C4C9000070B5064600F04EF904680546CF
:1005400030460A22002100F049FC2C6070BD30B515
:1005500005460B462A4613F8014B12F8010B08B169
:10056000A042F8D01CB1002802D06D1CF1E728464B
:1005700030BD10B5431C02E010F8011B71B18107BA
:10058000FAD14FF0013202C88C1A8C4314EAC2111E
:10059000F9D0C01A0A0603D0C01E10BDC01A10BD83
:1005A0000A0401D0801E10BD0902FCD0401E10BDFF
:1005B000032A40F2308010F0030C00F0158011F88F
:1005C000013BBCF1020F624498BF11F801CB00F867
:1005D000013B38BF11F8013BA2F1040298BF00F8BB
:1005E00001CB38BF00F8013B11F0030300F02E846B
:1005F000083AC0F0088051F8043B083A51F804CB9F
:10060000A0E80810F5E7121D5CBF51F8043B40F864
:10061000043BAFF30080D20724BF11F8013B11F86F
:1006200001CB48BF11F8012B24BF00F8013B00F8B3
:1006300001CB48BF00F8012B7047431A28BF9A42EC
:100640007FF6B6AF032A1044114440F2268010F022
:10065000030F1EBF11F8013D521E00F8013D10F0BE
:10066000030F7FF4F6AF11F0030300F03484083A6F
:10067000C0F00B8051F8043D083A51F804CD40F821
:10068000043D40F804CDFFF7F3BF121D5CBF51F8E5
:10069000043D40F8043DAFF30080D20724BF11F8B9
:1006A000013D11F801CD48BF11F8012C24BF00F81D
:1006B000013D00F801CD48BF00F8012C70474FF014
:1006C00000020429C0F0128010F0030C00F01B801F
:1006D000CCF1040CBCF1020F18BF00F8012BA8BF2D
:1006E00020F8022BA1EB0C0100F00DB85FEAC17CF1
:1006F00024BF00F8012B00F8012B48BF00F8012BA4
:1007000070474FF0000200B51346944696462039D4
:1007100022BFA0E80C50A0E80C50B1F12001BFF4BA
:10072000F7AF090728BFA0E80C5048BF0CC05DF820
:1007300004EB890028BF40F8042B08BF704748BF6E
:1007400020F8022B11F0804F18BF00F8012B7047E2
:100750004FF0013C50F8042B51F8043B9A4221D150
:10076000A2EB0C03934313EACC1317D150F8042BDC
:1007700051F8043B9A4215D1A2EB0C03934313EAC0
:10078000CC130BD150F8042B51F8043B9A4209D1F9
:10079000A2EB0C03934313EACC13DBD04FF0000021
:1007A000704700BFD01A01BAB1FA81F101F0180107
:1007B00022FA01F0CB40C1F12001DBB2C0B2C01A75
:1007C0002CFA01F3D11A914311EAC311E6D1704713
:1007D000704770477047000000487047C8560020B7
:1007E00010B5FFF7F9FF006810BD10B50446FFF71C
:1007F000F3FF046010BD2DE9F0470D46994692467F
:10080000044600F124080168880604D5E06921F057
:100810001001216000E00120A84201DD471B00E03B
:100820000027A1697A1902EB0900081AA061207853
:10083000C00602D42046FFF729FD002608E0D4E9CF
:1008400001211AF806009047206A401C761C20629D
:100850004E45F4DB2078C0060AD52046FFF716FD8A
:1008600006E0D4E9012130209047206A401C206234
:10087000381EA7F10107F4DC07E0D4E9012118F8DC
:1008800005009047206A401C2062281EA5F1010542
:10089000F3DC2046FFF710FD2078000602D5022089
:1008A000BDE8F0870120FBE770472DE9FF4F0C46BC
:1008B0001E464FF0FF378BB0D2E90001DDF86080B3
:1008C0000A908A46C1F30A5505B93D4600210846FB
:1008D0004FF00000BAF1000F00F4400005DA00EB21
:1008E00080004FF4400101EA50004FEA9059B9F1FD
:1008F000010F00DDB9460A9850EA4A000ED044F6CE
:100900001050A5F2FF3545432F14B8F1000F1ED04B
:100910007542291E1EDDC9F100021CE0B8F1010F6D
:100920004FF0000001D0302103E0F24305E02154F4
:10093000401CB042FBDB30460022002121540B99C1
:10094000C1F80880C1E900200FB0BDE8F08FBD1BE1
:100950006D1CDEE74A4600DA694206A800F028FC72
:1009600006AB93E8070003AB83E8070050460A99FB
:1009700001F051F98DE80700A0F500501F380090F4
:100980000398002D09DD42F21F014A46084403A9DD
:100990000390684601F0DBFB08E0A0F500504A46F2
:1009A0001F3803A90390684601F0F9FB8DE80700A2
:1009B0000004000C03D04FF0FF30410800E0104667
:1009C000B8F1000F03D00022009215461EE0751EFC
:1009D00005D400F0BBFA303262556D1EF9D5B3462E
:1009E0000122084302D000227F1C04E02078302836
:1009F00001D100227F1E002A099786D01DE0112D0B
:100A000007DA00F0A3FA303262556D1C50EA010299
:100A1000F5D1084302D00098C8B10EE00021681E4D
:100A200005E0235C625C63542254401E491C8142F1
:100A3000F7DBAB46A81B401E0990002004F80B0012
:100A40000B98099AC0F80880C0E9002B7CE71126B2
:100A50004FF0000859E72DE9F04F88460446D21DB3
:100A600022F0070191B0D1E90001CDE90A0107F0B8
:100A7000FDFA02460B98C00F01D02D2007E0206838
:100A8000810701D52B2002E0202101EAC000032AC2
:100A9000099001D0072A05DB03464146204600F0B5
:100AA000D7FA0BE12078800601D5E06900E0062046
:100AB000B8F1650F814606D0B8F1660F18D0B8F1CD
:100AC000670F70D131E00020B9F1110F009001DB08
:100AD000112301E009F101030AAA01A90CA8FFF7FB
:100AE000E4FEDDE90C70002609F10105834647E0CC
:100AF00001204B4600904FF000470AAA01A90CA81C
:100B0000FFF7D3FEDDE90DB00C995D46002610B964
:100B100009F101000D18B9EB050003D4C0F1FF364F
:100B200009F10105A5EB09002BE0B9F1010F01DA8C
:100B30004FF001090020B9F1110F0090484601DD86
:100B4000112300E003460AAA01A90CA8FFF7ADFE95
:100B5000DDE90C704D4600268346207800070AD454
:100B6000AB4500DA5D4601A8012D04DD411911F8FD
:100B7000011C302907D04F4502DA17F1040F04DABF
:100B8000012082460FE06D1EEEE7002F02DCED1B18
:100B90003E4403E0781CA84200DD7D1CB81B00F138
:100BA000010A4FF000472078000703D4AA4501DB73
:100BB0004FF0FF3A0021B7F1004F0DF143088DF8D7
:100BC000431024D002202B23002F01DA7F422D2353
:100BD0000A21021EA0F1010000DC5FB197FBF1FCCD
:100BE00097FBF1F201FB1C7C17460CF1300C08F866
:100BF00001CDEEE7A8F1010003702188090501D5B8
:100C0000452100E06521A0F1010800F8011C0998C8
:100C10000FA9A1EB0807FF1D00B10120411901EB4D
:100C2000EA70A1693844081A401EA0612078C00605
:100C300002D42046FFF72AFB099828B1D4E9012104
:100C40009047206A401C20622078C00622D52046AA
:100C5000FFF71CFB1EE0002E04DBB34502DD01A8FC
:100C6000805D00E03020D4E901219047206A401CDB
:100C70002062761CAAF101005FEA000A0AD100F0A6
:100C800061F9C0680168405CD4E901219047206A9D
:100C9000401C2062281EA5F10105DCDC07E0D4E938
:100CA000012118F8010B9047206A401C2062381E71
:100CB000A7F10107F3DC2046FFF7FEFA032011B08D
:100CC00043E6000001694A1C02610878704700B5DC
:100CD0008FB0CDE901310021059105497944CDE975
:100CE000031011466846FFF789FB0FB000BD0000F6
:100CF000E5FFFFFF0A6802F8010B0A607047D1E9BF
:100D000000239A4202D2531C0B601070704710B53A
:100D1000436913B1AFF3008001E0FFF7DEFA012071
:100D200010BD127800F124010A7000224A700122DD
:100D3000EDE711684FF0FF32E9E700000FB4002340
:100D400000B589B00CA900910B99CB60204B7B4476
:100D50000693204B7B44079304236FF00042CDE9B8
:100D600001321D4A7A446B460892024600200AF07E
:100D7000FCFF09B05DF814FB70B506464FF0FF307C
:100D800015460C46324686B00091CDE90101694610
:100D90000020049004A8FFF7D1FF0346049821180F
:100DA00025B108B10A4600E022462A6000280DD08D
:100DB000002B02DD0098884208D03246081B6946A5
:100DC0000094CDE9010404A8FFF7B8FF06B070BD98
:100DD0007F030000970300006F0200002DE9F04739
:100DE00091460F4680460446002614F8015B2DB15B
:100DF00000F0A0F80068405DC007F6D12B2D02D0AE
:100E00002D2D18D0641E4A463946204600F080F940
:100E100027B13968A14201D1C7F800804FF0020420
:100E200071050BD54042002803DDFFF7D5FC0460B7
:100E3000A007BDE8F08746F48066E4E70028F8DA0A
:100E4000FFF7CAFC04606FF00040F2E710B5203AEB
:100E5000C0F00B80B1E81850203AA0E81850B1E873
:100E60001850A0E81850BFF4F5AF5FEA027C24BF29
:100E7000B1E81850A0E8185044BF18C918C0BDE820
:100E800010405FEA827C24BF51F8043B40F8043BE9
:100E900008BF7047D20728BF31F8023B48BF11F89E
:100EA000012B28BF20F8023B48BF00F8012B7047F8
:100EB000431A28BF9A427FF6C9AF104410F0030FBF
:100EC00011441EBF11F8013D521E00F8013D10F003
:100ED000030F7FF4F6AF103AC0F00A8010B531E985
:100EE0001850103A20E91850BFF4F9AFBDE810408F
:100EF000530724BF31E9081020E9081044BF51F816
:100F0000043D40F8043D12F0030F08BF7047D207BC
:100F100028BF31F8023D48BF11F8012C28BF20F846
:100F2000023D48BF00F8012C7047000000487047A0
:100F3000C856002010B500F005F8001D10BD00BF18
:100F4000ADA3000000487047E856002030B5B0F16E
:100F50000A024FEA900E71F100034EEA817EB0EB77
:100F60000E0061EB91014FEA101E4EEA017E10EB7C
:100F70000E0041EB11114FEA102E4EEA016E10EBFC
:100F80000E0041EB11214FEA104E4EEA014E10EBDC
:100F90000E0041EB1141401841F100014FEAD00031
:100FA00040EA41704FEAD10110EB80054FEA81041D
:100FB00044EA907444EB01046D1944EB0404521BA1
:100FC000A3414FF0000348BF0A3200D530BD401C9A
:100FD00041F1000130BD10B50446FFF7ABFF0068DA
:100FE000005D00F0010010BD10B50446AFF30080B5
:100FF0002046BDE81040FFF7F4B8704770477047CF
:10100000AA5500000000000040F6ED2CC2F2000CD2
:10101000604740F6492CC2F2000C604740F6754C20
:10102000C2F2000C604740F2F97CC2F2000C60474B
:1010300040F6690CC2F2000C604740F6A94CC2F2BF
:10104000000C604740F65D0CC2F2000C60470000E7
:101050002DE9F0411F46044603260168072A01F4E2
:10106000006004DB08B116A505E016A503E008B191
:1010700015A500E015A521F010002060A069C01E94
:10108000A0610FB1401EA0612046FFF7FFF84FB1ED
:10109000D4E9012138469047206A401C2062C01CD8
:1010A000206206E0206AFAE7D4E9012115F8010B75
:1010B0009047761EF8D22046FFF7FEF8BDE8F08193
:1010C0004E414E006E616E00494E4600696E6600EC
:1010D000426842B1016811F8013B23B1521EC0E9D8
:1010E0000012184670470121C160881E704742688F
:1010F0005AB1C368016843B983688B4205D0491E61
:10110000521CC0E90012002070474FF0FF307047BA
:101110002DE9F05F824615468B4600270AF101044F
:10112000B9460078302801D09DB113E014F8010BC6
:101130000127782803D0582801D045B10AE00DB125
:10114000102D07D1002714F8010B102502E0082507
:1011500000E00A250026B0460EE005FB080005FB6E
:1011600006F101271FFA80F801EB1046B6F5803F23
:1011700000D3B94614F8010B294600F0ACF800285A
:10118000EBDABBF1000F05D00FB1641E00E054464E
:10119000CBF80040B9F1000F06D0FFF71DFB02218C
:1011A0000160C81EBDE8F09F48EA0640FAE700006B
:1011B0002DE9F047814616468AB0334878440DC879
:1011C0008DE80D0030487844801C03AC0DC884E8DD
:1011D0000D0041F69B300844372190FBF1F290FB63
:1011E000F1F5A5F1800501FB12041B3C02D5644218
:1011F000012000E00020DFF890A080460027FA449C
:10120000AAF1BE0A0DE0E00709D03246684607EBB6
:1012100047010AEB810100F0C2FF8DE8070064106E
:101220007F1C002CEFD1184F7F44AC3F18E0E8073B
:1012300014D007EB04100DF1180A90E80E008AE8AC
:101240000E00C068F04201D198190890324606A9F4
:1012500003A800F0A4FF03AB83E807006D10641C33
:10126000002DE4D132466946B8F1000F03A802D040
:1012700000F06DFF01E000F092FFC9E90001C9F83C
:1012800008200AB0BDE8F087A4BC00007546FFF74F
:101290004DFEAE4605006946534620F007008546E0
:1012A00018B020B5FEF7B2FFBDE820404FF00006B1
:1012B0004FF000074FF000084FF0000B21F007013E
:1012C000AC46ACE8C009ACE8C009ACE8C009ACE881
:1012D000C0098D4670473A2800D2303820F02002ED
:1012E000412A01D3A2F13700884201D34FF0FF30E9
:1012F000704700002DE9FF4F064689B00878FF28A7
:1013000006D0491C2D2805D000244FF0000908E024
:1013100000200CE00124F8E709EB8903491C00EBED
:1013200043090878FF28F7D114B1C9F100008146BC
:10133000107800252C46AA4629462D2801D02B28B6
:1013400004D1521C2D2813D0002082468B461078E1
:10135000FF280FD04FF0000C0A21521CA5FB01788A
:1013600004FB018105FB0C11C5194BEB0104EEE7F1
:101370000120EAE7002108464FF00000BAF1000F13
:1013800002D000EB80004008C0F38158B8F1010F93
:1013900001DD4FF0FF380C9809EB000755EA040017
:1013A00009D04FF0020917F5FA7F0BDA4FEACA703D
:1013B000C6E900B012E04FEACA70C6E900B00DB04D
:1013C000BDE8F08FB7F5FA7F0DDDF0487844D0E93D
:1013D0000010C6E9001040EACA707060FFF7FCF91F
:1013E000C0F80090EBE7391E02DAC8F1000200E015
:1013F000424600DA794206A8FFF7DAFE06AB93E828
:10140000070003AB83E8070044F23E005BEA0401F7
:101410000090584604D144F21E012C465D460091CE
:10142000210C0904014306D10099240444EA15441F
:101430002D041039009104F07F41014306D1009939
:10144000240244EA15642D020839009104F0704129
:10145000014306D10099240144EA15742D01091FA6
:10146000009104F04041014306D10099A40044EAF0
:101470009574AD00891E009104F00041084304D129
:1014800000986D196441401E009042466846002F46
:10149000CDE9014503A902DD00F095FE01E000F071
:1014A0006AFEBAF1000F04460D4601D084F00044F4
:1014B00040F2FF7724F00040284303D0C4F30A50E1
:1014C000B84212D1FFF788F9C0F80090C4F30A506F
:1014D000B8420AD1AE487844D0E90010C6E90010FD
:1014E00004F000410843706069E7C6E9005466E70C
:1014F0002DE9FF4F1F464FF0000A4FF0FF384546D9
:1015000091B0D7E90146CDF83CA0FFF71BFDC068BC
:101510000168405C1090B96912986D1C8847396A5F
:10152000814688470028F6D1B9F1FF3F0AD0002E46
:1015300024F4D06411DDB9F12B0F08D0B9F12D0FCF
:101540000BD102E0404615B03AE744F48064B96933
:1015500012986D1C8847761E8146600504A901D546
:101560002D2000E02B20002E01F1010B0DF13008A1
:101570008DF810003FDDB9F1690F08D0B9F1490FBE
:1015800005D0B9F16E0F02D0B9F14E0F1CD13B4618
:1015900001A8009580E85002DDE912126FF0020008
:1015A0000AF0E7FBC11CCED10EE0B96912986D1CA0
:1015B000884781461398761E44F4007405600F989E
:1015C000401C002E0F9016DDB9F1300FEDD0B9F1AF
:1015D000780F02D0B9F1580F0DD10F9801280AD118
:1015E0003B46CDE90054DDE91212001F02960AF0D5
:1015F000BEFBC11CA7D1109989453ED144F080049F
:1016000006E01399681CAAF1010A44F4007408600A
:10161000B9696D1C1298761E884730288146F0D033
:101620002BE01099894505D1200603D4761E44F09D
:10163000800418E0484606F094FD08B3761E0DF1CC
:1016400023018B4544F4007408D2A9F130000BF853
:10165000010B200607D5AAF1010003E0200602D401
:101660000AF101008246A00502D51399681C0860A2
:10167000B96912986D1C88478146002ED1DC53E071
:10168000002E51DDB9F1650F02D0B9F1450F4BD1F4
:10169000A00549D5B9696D1C1298761E24F44074D2
:1016A0008847002E81460CDD2B2804D0B9F12D0F80
:1016B00007D144F48074B96912986D1C8847761E6E
:1016C0008146E00501D52D2100E02B2108F8011B02
:1016D000CDF8008021E0761E0DF13901884544F4F3
:1016E00000740CD2A9F1300010F0FF0088F800005F
:1016F00002D10099884509D908F1010806E0E00502
:1017000001D5244801E042F20F708246B96912986F
:101710006D1C8847814613980560002E04DD4846FD
:1017200006F01FFD0028D6D1F96912988847FF20DE
:1017300053468BF8000088F8000000200A900B90B8
:1017400004AA0CA90AA8FFF7D5FDA00502D46FF0E2
:101750000100F8E614F0240F0AD0E00714D138682D
:10176000DDE90A12031D3B600068C0E900120BE0CE
:101770000AA9684606F09EFCE00705D13868009A81
:10178000011D3960006802602846DCE630BC0000BC
:1017900026BB0000F1D8FFFF2DE9FF4F1F464FF099
:1017A0003C0987B04FF00042DDE9141001F1010857
:1017B000DDF858A002EA40500390002004908346D0
:1017C000054604460590B969461E08988847AAF15F
:1017D000010A0290BAF1000F37DD02982E2815D0C9
:1017E0001021FFF778FD00282ADB4FF0010B049948
:1017F000014316D0B9F1000F0BDB4A46C11700F0C8
:10180000F7F905430C43A9F1040905E0012005900F
:1018100007E008B145F0010501200490059800B9E2
:10182000361DB969089808F101088847BBF1000F17
:10183000AAF1010A0290CDD00999C1F80080C9E748
:101840000298702808D0502806D0F969089888476F
:10185000BBF1000F14D04FE0002002900120BBF13B
:10186000000F049009D0B969089808F10108884769
:10187000AAF10109B9F1000F07DCF9690898884756
:101880006FF001000BB0BDE8F08F2B2804D02D289D
:101890000CD14FF0FF300490B969089808F10108A5
:1018A0008847A9F10109B9F1000FE6DD411CE4D038
:1018B0000A21FFF710FD0028DFDB029908F101087B
:1018C00001EB810100EB41000290B969089888475B
:1018D0000A21FFF700FD099AA9F10109B9F1000FEA
:1018E000C2F8008001DD0028E7DAF9690898884726
:1018F0000499029800FB016655EA040004D004F044
:101900004041090002D006E0039898E0A40044EAB0
:101910009574AD00B61E04F00041080002D16D19A7
:101920006441761E159810F0240F03D04FF00B0978
:101930005C4803E04FF028096FF07D008246564571
:1019400007DAAAEB06018944B9F1410F01DD4FF036
:10195000410901200021A9F1010200F049F90246E4
:1019600028400B462140084301D0012100E000211E
:10197000501E029143F1FF3128402140084301D01D
:10198000012000E000200299834651EA0B014FD06C
:10199000002108464FF00000039900F4400039B1DF
:1019A00000EB80004FF4400100EBD07001EA6000D2
:1019B0008015012802DD4FF0FF3000E013D0401CFD
:1019C00036D0029860B3BBF1000F0CD14A4601201B
:1019D000002100F00DF928402140084301D00120EA
:1019E00000E00020E0B101204A46002100F000F9AB
:1019F000034640190A4661412D1A8C4111D3B9F1B1
:101A0000400F09DD159810F0240F02D0AAF134061A
:101A100003E0AAF1170600E0761C00254FF0004411
:101A200006E05B1E42F1FF3220EA030521EA0204D0
:101A3000CAF10100B04206DA1B490398084301903D
:101A4000002000900EE0039AC4F3D321E80A0A4371
:101A5000164940EA44500A433146CDE9000268463F
:101A600006F074FB159810F0240F0BD01598C007E2
:101A700015D13868DDE90012031D3B600068C0E93C
:101A800000120CE002A8694606F014FB1598C00786
:101A900005D13868029A011D39600068026040462D
:101AA000F0E6000002FCFFFF0000F07F0000F03FC6
:101AB0002DE9FF4F92461D4685B04FF00041DDE90C
:101AC000124BDDE914727F1E01EA4B50414940F090
:101AD000FF4940EA0108002122F020004928049132
:101AE00002D04E2828D04CE03BA0012607C88DE844
:101AF0000700A9690698641C88477F1E014606D422
:101B00001DF8060018B121F0200181420BD0E969CF
:101B100006988847032E34D0082E32D06FF001008B
:101B200009B0BDE8F08F761C032E01D0082EE0D15D
:101B3000601CCAF80000DCE7A9690698641C8847A5
:101B40007F1E2AD420F02000412826D1A9690698BA
:101B5000641C88477F1E20D420F020004E281CD112
:101B6000A9690698641C88477F1E48F4002849F438
:101B70008009CAF8004001D4282806D0E9690698EF
:101B800088475FEACB7012D022E0A9690698641CEE
:101B900088477F1E01D4002803DAE9690698884740
:101BA000BCE72928F1D1641CCAF80040E9E71BF022
:101BB000240F07D028680499031D2B600068C0E932
:101BC000001805E02868021D2A600068C0F800902F
:101BD0002046A5E70000F07F494E46494E4954593A
:101BE0000000000001491820ABBEFEE726000200FD
:101BF000B2F120030AD5C2F1200301FA02F120FA62
:101C000003F300FA02F041EA0301704700FA03F11E
:101C10004FF0000070475FEA400C08BF91F0000FE2
:101C20004FEA8C234FEAC12243EA51514FEA1C503C
:101C300018BF00F5F0404FEA300018BF41F00041F6
:101C40005FEA6C5C00F02980BCF1FF3F08BF40F008
:101C500080407047130C06BF12044FF0100C4FF079
:101C6000000C130E04BF12020CF1080C130F04BF7A
:101C700012010CF1040C930F04BF92000CF1020C42
:101C8000D30F04BF52000CF1010C11464FF00002BB
:101C9000A0F11F00A0EB0C00704711F0004F08BF2F
:101CA000704731F000413FF4D5AF0B0C06BF09047B
:101CB0004FF0100C4FF0000C0B0E04BF09020CF19A
:101CC000080C0B0F04BF09010CF1040C8B0F04BFAF
:101CD00089000CF1020CCB0F04BF49000CF1010C80
:101CE000CCF12003A0EB0C0022FA03F302FA0CF271
:101CF00041EA030100F10100704720F07F4C80EAC7
:101D0000030023F07F47ACEB070303F57C5300F09F
:101D1000004003F1FF032DE980494FEA154B09B458
:101D20004FEA144325EA0B4E24EA03480FF2042637
:101D300006EB132749083E785FEA320203FB066789
:101D4000C7F5000707FB06F64FEA54374FEAD646B9
:101D500006F1020607FB066CCCF1005C4FEA1C475B
:101D60002CEA074C07FB06F40CFB06F504EB1546C2
:101D70004FEA961634BF00204FF000404FEAD137AB
:101D800006FB07FC4FEA1C4C0CFB0BF7D21B03FBBA
:101D90000CF761EB07010CFB0EF7B0EB074072EBA1
:101DA00017420CFB08F734BFA2EB0742B2EB074225
:101DB00061EB17414FEA0C444FEA910706FB07FC21
:101DC0004FEA1C4C0CFB0BF7B0EBC74072EB5732E1
:101DD00003FB0CF734BFA2EBC742B2EBC74261EB87
:101DE00057310CFB0EF7B0EBC70072EB57720CFBD0
:101DF00008F734BFA2EBC702B2EBC70261EB577121
:101E0000039F4FEA816141EA921104EBCC044FEA4F
:101E1000D1374FEA826206FB07FC42EA90124FEA92
:101E200080604FEA1C4C0CFB0BF7D21B03FB0CF73A
:101E300061EB07010CFB0EF7B0EB074072EB1742AA
:101E40000CFB08F734BFA2EB0742B2EB074261EB91
:101E500017414FEA8C554FEA910704EB9C2406FB8F
:101E600007FC4FEA1C4C0CFB0BF7B0EBC74072EBC6
:101E7000573203FB0CF734BFA2EBC742B2EBC742A9
:101E800061EB57310CFB0EF7B0EBC70072EB5772EA
:101E90000CFB08F734BFA2EBC702B2EBC70261EB41
:101EA000577115EB4C254FEA816141EA92114FEAD7
:101EB00082624FEAD13742EA901206FB07FC44F1F6
:101EC00000044FEA80604FEA1C4C0CFB0BF7D21B5E
:101ED00003FB0CF761EB07010CFB0EF7B0EB0740BF
:101EE00072EB17420CFB08F734BFA2EB0742B2EBD0
:101EF000074261EB174115EB1C154FEA813141EAAE
:101F000092414FEA823242EA90424FEA80304FEAF1
:101F10000C7644F1000448EA03434EEA0B484FF0C4
:101F2000000EB2EB080C71EB030724BF6246394682
:101F30004EEB0E0E4FF0000B0018524149414BEB97
:101F40000B0BB2EB080C71EB03077BF1000B24BF0A
:101F5000624639464EEB0E0E4FF0000B0018524110
:101F600049414BEB0B0BB2EB080C71EB03077BF118
:101F7000000B24BF624639464EEB0E0E51EA0207B3
:101F800018BF46F0010616EB0E7655F1000254F12B
:101F9000000103D5BDE88901BDE80088BDE88901DD
:101FA000BDE80048B619524141EB0101A3F101031C
:101FB000704780807F7E7D7C7B7A797877767675B6
:101FC0007473727171706F6E6E6D6C6C6B6A6A692E
:101FD0006868676666656464636362616160605FC8
:101FE0005F5E5E5D5D5C5C5B5B5A5A595958585741
:101FF00057565655555554545353525252515150A9
:1020000050504F4F4F4E4E4D4D4D4C4C4C4B4B4BFB
:102010004A4A4A4949494848484747474746464641
:10202000454545444444444343434342424242417C
:102030004141000046EA0646A3F570534FEA1646B2
:1020400046EA42564FEAD22242EA415210B54FEADE
:10205000D121A3F1010300F017F820F0004000F1B6
:10206000010C00F0004701EB00501146BCF5006F79
:1020700040EA070000D210BD02484FF0000140EADC
:10208000070010BD0000F07F002B26D4770021D080
:102090001CB54FEA370703B44FF010004FF01001A2
:1020A0004FF000000FBCBDE810400BF1010BBBF17D
:1020B000010F08BF5FEA170722BF12F1010211F1F9
:1020C00001014FF0004143F1000300F0004043EAFA
:1020D00000007047F9D35708DAE746EA064613F1DD
:1020E000400F4FEA16461FDD13F1200FDFBF1643E6
:1020F0000A46002120335B42C8D0C3F1200746EADC
:10210000064602FA07F74FEA164646EA0706C3F103
:10211000200722FA03F201FA07F721FA03F14FF040
:10212000000342EA0702B1E746EA020646EA06462B
:102130004FEA164646EA0106BCBF46EA0646360C9A
:102140004FF000034FF000024FF000019EE72DE931
:10215000C048934630B491E8380007C831EA400CD3
:1021600048BF34EA430C03D5FFF7C7FDFFF78CFFE8
:10217000F0BCBDE800882DE9C048934630B491E832
:10218000380007C831EA400C48BF34EA430C03D595
:10219000FFF7B3FDFFF74EFFF0BCBDE800882DE967
:1021A000C048934630B491E8380007C810F0804F1B
:1021B00008BF13F0804F03D100F019F8FFF764FF58
:1021C000F0BCBDE800882DE9C048934630B491E8E2
:1021D000380007C810F0804F08BF13F0804F03D1BC
:1021E00000F005F8FFF726FFF0BCBDE8008820F0FE
:1021F0007F4780EA030023F07F4C07EB0C03A3F535
:102200007C5300F00040A3F1FE0392F0000F00F0B9
:10221000B38095F0000F00F077802DE901494FEA77
:1022200011404FEA144621EA004800FB06FC24EA6C
:10223000064708FB06F607FB08F800FB07F718EB54
:1022400006484CEB164C4FEA124B18EB07484FEA86
:1022500015464CEB174022EA0B4E0BFB06FC25EA19
:1022600006470EFB06F607FB0EFE0BFB07F71EEB01
:10227000064E4CEB164C4FF000061EEB074E4CEB97
:10228000174B18EB0B0840F1000018EB0E0B58EB46
:10229000000840F100008F1A4FF000013CBFC94315
:1022A000661B14BFB5EB040C00213CBFC943F61BF1
:1022B0004FEA17444EEA8E0E27EA04454FEA1C47C0
:1022C00004FB07622CEA074C05FB07F70CFB05F63D
:1022D00004FB0CFC16EB074642EB174216EB0C46D0
:1022E00042EB1C421BEB060658EB0202414146EA58
:1022F0009E0601D5BDE80189B619524141EB0101A5
:10230000A3F10103BDE801894FEA14454FEA1147E3
:1023100024EA054621EA074C05FB07F406FB07F70C
:102320000CFB06F105FB0CFC11EB074144EB1744D9
:102330004FEA124711EB0C4144EB1C4422EA074CD4
:1023400005FB07F206FB07F70CFB06F605FB0CFC8A
:1023500016EB074642EB174216EB0C4642EB1C45C8
:102360006A1854F1000148BF7047B619524141EB59
:102370000101A3F10103704795F0000F37D04FEA38
:1023800011424FEA144721EA024624EA074C02FBB5
:1023900007F106FB07F70CFB06F402FB0CFC14EB41
:1023A000074441EB17414FEA154714EB0C4441EB4E
:1023B0001C4125EA074C02FB07F506FB07F70CFB5F
:1023C00006F602FB0CFC16EB074645EB174516EB31
:1023D0000C4645EB1C42121951F1000148BF7047F1
:1023E000B619524141EB0101A3F1010370474FEAD5
:1023F00014454FEA114724EA054621EA074C05FB3C
:1024000007F106FB07F70CFB06F24FF0000605FB91
:102410000CFC12EB074241EB174112EB0C4251EB63
:102420001C4148BF7047921841EB0101A3F1010321
:102430007047000010B5024804F018FD10BD000000
:1024400074CD00080146054A106811B140F0010042
:1024500001E020F00100014A106070470080084050
:1024600010B5144B1A68144B1A40D0E900342344B9
:1024700084682344C46803EB041344692344C46997
:102480002344446A234490F8284003EB44631A44ED
:10249000084B596821F40031038C01EB4341054B93
:1024A0001A605960038B034C2361438BA36003695B
:1024B000A36210BD008008400300FFF10246044BF8
:1024C000186820F4027053181844014B18607047C4
:1024D0000080084001498862704700000080084081
:1024E0000146054A506811B140F0010001E020F0BA
:1024F0000100014A5060704700800840114A51684D
:10250000114A1140D0E900231A4483681A44C36871
:1025100002EB031243691A44C3691A44038C02EBA9
:102520008342436A1A4490F8283002EB4362114414
:10253000044A5160028B034B5A61428BDA60026994
:10254000DA627047008008400300FBF10246044B4A
:10255000586820F4027053181844014B58607047B3
:10256000008008400149C8627047000000800840B0
:102570002DE9F04100273348D0F8B8013149D1F8AE
:102580005D1088420CD02F48D0F85D002D49D1F85D
:10259000B811471A2B48D0F85D002A49C1F8B80194
:1025A000284890F86E04012804D1264890F83F0688
:1025B000052845D0234890F8BA0788B900240CE0D4
:1025C000C4EB4410C0EB00111F480844C67AE0B2C7
:1025D0003A46314600F03CF8641C022CF0DB2FE058
:1025E000184890F8BA0701282AD1164890F8B90778
:1025F000FF281ED0134890F8B90700EB400113489C
:1026000000EB8100847A0F4A92F8B91720463A46C7
:1026100000F01EF805460B4890F8B917A9420FD0F4
:1026200090F8B917032001F0DDFA064981F8B907DF
:1026300006E0FF21032001F0D5FA024981F8B9072D
:10264000BDE8F0815414002068180020E03000201C
:102650002DE9FC4704460E461546C4EB4410C0EB7A
:102660000011FC48084490F85A00A8BBFF212046FE
:1026700001F0B8FA0646FF2E09D10021C4EB441040
:10268000C0EB0012F348104480F85A1021E0C4EB6C
:102690004410C0EB0011EF480844C672FF21C4EBA0
:1026A0004410C0EB0012EB48104480F87E1000216B
:1026B000C4EB4410C0EB0012E6481044C0F85D10B3
:1026C0000621C4EB4410C0EB0012E248104480F82D
:1026D0005A103046BDE8FC87FFE7C4EB4410C0EB5E
:1026E0000011DC48084490F85A00052878D1C4EB62
:1026F0004410C0EB0011D748084490F8540001285A
:102700000AD10821C4EB4410C0EB0012D148104498
:1027100080F85A103046DDE7C4EB4410C0EB0012DD
:10272000CC48104490F87E10304601F0F5FA80460F
:10273000C4EB4411C1EB0112C649114481F87F80FA
:10274000B8F1FF0F0ED1FF21304601F0D1FD052178
:10275000C4EB4410C0EB0012BE48104480F85A107D
:10276000FF20B7E71F221821404601F0EBFA01468F
:10277000C4EB4410C0EB0012B648104490F890002F
:1027800081422ED0FF21304601F0B2FD012812D146
:102790000321C4EB4410C0EB0012AE481044C0F853
:1027A0005D100621C4EB4410C0EB0012A948104490
:1027B00080F85A101EE0A848D0F8CC11C4EB4410A1
:1027C000C0EB0012A3481044C0F85D100621C4EB12
:1027D0004410C0EB00129F48104480F85A1009E0E2
:1027E0000AE00821C4EB4410C0EB001299481044E1
:1027F00080F85A1030466DE7C4EB4410C0EB00116E
:102800009448084490F85A00062868D1C4EB441054
:10281000C0EB00118F480844D0F85D00A84211D3E6
:10282000C4EB4410C0EB00118A480844D0F85D00A6
:10283000411BC4EB4410C0EB001286481044C0F8A2
:102840005D104AE0C4EB4410C0EB0011814808441D
:1028500090F87F80B8F1FF0F36D00021404601F09C
:1028600047FD012812D10221C4EB4410C0EB001235
:1028700078481044C0F85D100721C4EB4410C0EB49
:1028800000127448104480F85A1013E07248D0F8CF
:10289000C811C4EB4410C0EB00126E481044C0F8DD
:1028A0005D100721C4EB4410C0EB001269481044CE
:1028B00080F85A104646C4EB4410C0EB001165483E
:1028C000084480F80B8008E00521C4EB4410C0EBFD
:1028D00000126048104480F85A103046FAE6C4EB03
:1028E0004410C0EB00115B48084490F85A000728D8
:1028F00026D1C4EB4410C0EB001156480844D0F870
:102900005D00A84211D3C4EB4410C0EB0011514844
:102910000844D0F85D00411BC4EB4410C0EB00122A
:102920004C481044C0F85D1008E00821C4EB441086
:10293000C0EB00124748104480F85A103046C9E6F0
:10294000C4EB4410C0EB00114248084490F85A0010
:1029500008287DD1414800EB44000088F0B3C4EB67
:102960004410C0EB00113B480844D0F84D10491CFE
:10297000C4EB4410C0EB001236481044C0F84D10B0
:10298000C4EB4410C0EB001132480844D0F84D109D
:10299000324800EB4400008881422ED9C4EB441039
:1029A000C0EB00112B48084480F853600821C4EBA9
:1029B0004410C0EB00122748104480F85110C4EBBB
:1029C0004410C0EB00122348104480F8521000213C
:1029D000C4EB4410C0EB00121E4800E00DE01044B0
:1029E00080F84C100A21C4EB4410C0EB00121948C7
:1029F000104480F85A1030466CE63146204601F00B
:102A000005FCC4EB4411C1EB011212491144087BCF
:102A100007F0B5FF304601F001FDD0B14FF4FA7177
:102A2000C4EB4410C0EB00120A481044C0F85D101B
:102A30000121C4EB4410C0EB00120648104480F89A
:102A40005A10701CC1B2C4F10100C0EB401007E085
:102A500018E00CE068180020944300206445002032
:102A6000C0EB0012FE48104480F87E1008E00421FC
:102A7000C4EB4410C0EB0012F948104480F85A101F
:102A8000304627E6C4EB4410C0EB0011F44808447C
:102A900090F85A00012826D1C4EB4410C0EB001175
:102AA000EF480844D0F85D00A84211D3C4EB4410AD
:102AB000C0EB0011EA480844D0F85D00411BC4EBAC
:102AC0004410C0EB0012E6481044C0F85D1008E066
:102AD0000421C4EB4410C0EB0012E148104480F81C
:102AE0005A103046F6E5C4EB4410C0EB0011DC4848
:102AF000084490F85A00042847D1C4EB4410C0EBB6
:102B00000011D7480844D0F85610C4EB4410C0EB6D
:102B10000012D34810444164C4EB4410C0EB0011D0
:102B2000CF48084490F8610048B9C4EB4410C0EBAA
:102B30000012CB481044416C204600F0E5FD032113
:102B4000C4EB4410C0EB0012C548104480F85A1082
:102B50000D21C4EB4410C0EB0012C148104480F8B2
:102B60005B100C21C4EB4410C0EB0012BC481044B5
:102B700080F85C10FA21C4EB4410C0EB0012B84896
:102B80001044C0F85D103046A4E5C4EB4410C0EB1F
:102B90000011B348084490F85A000D285DD1C4EBE9
:102BA0004410C0EB0011AE48084490F86190C4EBAB
:102BB0004410C0EB0011AA48084490F86100401C82
:102BC000C1B2C4EB4410C0EB0012A548104480F819
:102BD0006110B9F1070F14DAC4EB4410C0EB001216
:102BE0009F481044817A204600F02EFC0146C4EB39
:102BF0004410C0EB00129A481044623000EB890088
:102C00000160C4EB4411C1EB011295491144887D68
:102C100001F03CF88146C4EB4410C0EB0011904831
:102C2000084490F8611049450CDB204601F008FA91
:102C30000521C4EB4410C0EB00128948104480F811
:102C40005A1008E00421C4EB4410C0EB0012844881
:102C5000104480F85A1030463CE5C4EB4410C0EBF9
:102C600000117F48084490F85A0003285AD12046A2
:102C700000F0B8FD80B1C4EB4410C0EB00117848FF
:102C8000084490F85B10C4EB4410C0EB0012744889
:102C9000104480F85A1043E0C4EB4410C0EB00111C
:102CA0006F480844D0F85D00A84211D3C4EB44102B
:102CB000C0EB00116A480844D0F85D00411BC4EB2A
:102CC0004410C0EB001266481044C0F85D1027E0C5
:102CD000C4EB4410C0EB001161480844D0F88C10DC
:102CE000491CC4EB4410C0EB00125D481044C0F80E
:102CF0008C1004F1C801C8B20022114604F0A8F9F2
:102D0000C4EB4410C0EB00115548084490F85C1027
:102D1000C4EB4410C0EB00125148104480F85A1024
:102D20003046D7E4C4EB4410C0EB00114C480844D3
:102D300090F85A000A2849D1C4EB4410C0EB0011A6
:102D40004748084490F84C70464800EB840000EB7C
:102D50004700008801280DD11CB90D2007F00FFE97
:102D600002E00F2007F00BFE381DC1B2204600F034
:102D700049FA04E0B81CC1B2204600F043FA03212E
:102D8000C4EB4410C0EB00123548104480F85A10D0
:102D90000B21C4EB4410C0EB00123148104480F802
:102DA0005B100C21C4EB4410C0EB00122C48104403
:102DB00080F85C1040F2EE21C4EB4410C0EB00122E
:102DC00027481044C0F85D10304683E4C4EB44103B
:102DD000C0EB00112248084490F85A000B2852D149
:102DE000C4EB4410C0EB00111D48084490F84C702F
:102DF0001C4800EB840000EB4700008801280DD13F
:102E00001CB90E2007F0BBFD02E0102007F0B7FD53
:102E1000B81DC1B2204600F0F5F908E00F21C4EB5F
:102E20004410C0EB00120E48104480F85A100321E1
:102E3000C4EB4410C0EB00120948104480F85A104B
:102E40000F21C4EB4410C0EB00120548104480F879
:102E50005B100C21C4EB4410C0EB0012004803E0EF
:102E60006818002068450020104480F85C1040F28B
:102E7000EE21C4EB4410C0EB0012BE481044C0F871
:102E80005D10304626E4C4EB4410C0EB0011B94895
:102E9000084490F85A000F287DD1C4EB4410C0EBD1
:102EA0000011B448084490F84C7017BB4FF440012F
:102EB000204600F097FB0121204600F035FA01463C
:102EC000C4EB4410C0EB0012AA48104441634FF415
:102ED0006001204600F086FB0121204600F024FA24
:102EE0000146C4EB4410C0EB0012A2481044C16379
:102EF00021E04FF44201204600F074FB01212046FE
:102F000000F012FA0146C4EB4410C0EB00129948DD
:102F1000104481634FF46201204600F063FB0121FD
:102F2000204600F001FA0146C4EB4410C0EB001249
:102F3000904810440164012F55DBC4EB4410C0EBF2
:102F400000118C480844C16BC4EB4410C0EB001264
:102F500088481044406B234687A2CDE90001322106
:102F60008F48FDF779F98E4807F0C2FBC4EB441097
:102F7000C0EB00117F480844016CC4EB4410C0EB67
:102F800000127C481044806B234686A2CDE90001E4
:102F90003221834800E043E0FDF75EF9804807F006
:102FA000A7FB0021C4EB4410C0EB00127148104491
:102FB00080F84C10C4EB4410C0EB00126D48104474
:102FC000C0F84D10C4EB4410C0EB00116948084430
:102FD00090F85110C4EB4410C0EB00126548104447
:102FE00080F85A101AE0C4EB4410C0EB001161489D
:102FF000084490F84C00401CC1B2C4EB4410C0EB34
:1030000000125C48104480F84C100A21C4EB4410B4
:10301000C0EB00125748104480F85A1030465DE467
:10302000C4EB4410C0EB00115248084490F85A0019
:103030000C2827D1B421204600F014FA0A21C4EB51
:103040004410C0EB00124B48104480F85A10C4EBF7
:103050004410C0EB00114748084480F85360002139
:10306000C4EB4410C0EB00124248104480F85110E9
:10307000C4EB4410C0EB00123E48104480F85210DC
:1030800030462BE4C4EB4410C0EB0011394808442F
:1030900090F85A000E2827D1B421204600F0E2F91A
:1030A0000A21C4EB4410C0EB00123248104480F8EF
:1030B0005A10C4EB4410C0EB00112E48084480F8AD
:1030C00053600021C4EB4410C0EB001229481044A7
:1030D00080F85110C4EB4410C0EB00122548104496
:1030E00080F8521030462AE4C4EB4410C0EB0011C3
:1030F0002048084490F85A00102801D130461EE4B8
:10310000C4EB4410C0EB00111A48084490F85A0070
:1031100011282DD1C4EB4410C0EB00111548084410
:10312000D0F85D00A84211D3C4EB4410C0EB0011ED
:1031300010480844D0F85D00411BC4EB4410C0EBBC
:1031400000120C481044C0F85D100FE0C4EB4410AE
:10315000C0EB00110748084490F85B10C4EB441022
:10316000C0EB00120348104480F85A10304643E484
:10317000304641E4681800200D0A2041444325648C
:10318000204B312E205A45524F3A20307825303688
:10319000782046554C4C3A2030782530367820003F
:1031A000543300200D0A204144432564204B322E25
:1031B000205A45524F3A20307825303678204655EF
:1031C0004C4C3A20307825303678200070B50446D3
:1031D0000D4604EB4402044901EB8201487A29467A
:1031E00002F044FC70BD0000E030002010B504483F
:1031F00090F8780000F0080008B9FFF7B9F910BDA1
:103200005414002070B506460C46012E02DD29A09C
:1032100007F06EFA04F0FE00022815D129A007F08D
:1032200067FA2E4800EB460004F00101405C85047B
:1032300004F0010008B145F400352948284340F462
:103240008051304600F0CEF904F0FE00042815D17C
:1032500024A007F04DFA214800EB460004F00101DC
:10326000405C850404F0010008B145F400352348B2
:10327000284340F48051304600F0B4F904F0FE00D9
:10328000062815D11EA007F033FA144800EB4600BB
:1032900004F00101405C850404F0010008B145F42C
:1032A00000351D48284340F48051304600F09AF91B
:1032B00070BD0000696E646578204552524F5221FE
:1032C0002E2000002E4144435F4155544F43414C52
:1032D0004942524154494F4E2E0000007045002093
:1032E000B40020002E4144435F43414C49425241C7
:1032F00054494F4E5F5A45524F2E0000B4004000D3
:103300002E4144435F43414C4942524154494F4E40
:103310005F46554C4C2E0000B4006000012100E0D7
:10332000491C8142FCD970472DE9F041044688468A
:1033300000251DE04146204600F03CF807460026E7
:103340008EB1C4EB4410C0EB001115480844D0F80E
:103350008410491CC4EB4410C0EB00121048104408
:10336000C0F8841002E03846BDE8F081681CC5B2A0
:103370000A2DDFDB0BA007F0BBF9C4EB4410C0EB58
:10338000001107480844D0F88810491CC4EB4410C9
:10339000C0EB001202481044C0F888100020E3E798
:1033A000681800200D0A41444320455252210D0A5D
:1033B0000000000070B504460D4645B904EB440119
:1033C000204A12F81100002107F0E8FC07E004EBA6
:1033D00044011C4A12F81100012107F0DFFC04EB44
:1033E0004401184A02EB41014879022106F0D6FC5B
:1033F0007820FFF793FF04EB4401124A02EB4101EE
:103400008878002107F0CAFC204600F097F80646AD
:1034100004EB44010B4A02EB41018878012107F0DB
:10342000BDFC7820FFF77AFF04EB4401054A12F84F
:103430001100012107F0B2FC7820FFF76FFF304642
:1034400070BD00000DC0000870B504460D46012196
:103450002046FFF769FF024908600846006870BD12
:10346000D00F002070B504460D46204600F0A8FDA0
:1034700004EB4401304A12F8110001220C2107F03C
:1034800025FD04EB44012C4A02EB4101887801221E
:103490000C2107F01BFD04EB4401274A02EB41011C
:1034A000487801220C2107F011FD04EB4401224A67
:1034B00002EB410108790022242107F007FD0122D7
:1034C0000C21062007F002FD04EB44011A4A02EB2E
:1034D0004101487906F05AFC04EB4401164A12F8FF
:1034E0001100012107F05AFC04EB4401124A02EBDF
:1034F00041018878012107F051FC04EB44010E4A98
:1035000002EB41014878012107F048FC04EB44013B
:10351000094A02EB41010879002107F03FFC012133
:10352000062007F03BFC0021062007F037FC0121B4
:10353000062007F033FC70BD0DC000082DE9F041F6
:103540000446002704EB4401254A02EB4101487977
:10355000022106F023FC012530E004EB4401204A5F
:1035600002EB41010879002107F018FC7320FFF7F6
:10357000D5FE04EB44011A4A02EB410148790221CD
:1035800006F00CFC0646C5F1180006FA00F00743E9
:1035900004EB4401124A02EB41010879012107F0D2
:1035A000FDFB7320FFF7BAFE04EB44010C4A02EB6B
:1035B00041010879002107F0F1FB6D1C182DCCD9D1
:1035C0007320FFF7ABFE04EB4401054A02EB410117
:1035D0004879022106F0E2FB3846BDE8F0810000A0
:1035E0000DC000082DE9F04104460E4600272CE0EE
:1035F000781CC7B200223146204600F045F84FF44F
:103600007A70FFF78BFE00212046FFF7D3FE0546B8
:10361000B54202D10020BDE8F081C4EB4410C0EBFC
:10362000001118480844D0F88010491CC4EB44101D
:10363000C0EB001213481044C0F8801004F1CA0116
:10364000C8B20022114603F003FD0A2FD0DBC4EB01
:103650004410C0EB00110B480844D0F88810491CF6
:10366000C4EB4410C0EB001206481044C0F88810A8
:1036700004F1CC01C8B20022114603F0E9FC01209C
:10368000C9E700006818002070B504460E461546CC
:1036900045B904EB44011B4A12F81100002107F060
:1036A0007DFB07E004EB4401164A12F811000121EA
:1036B00007F074FB7820FFF731FE04EB4401114A58
:1036C00002EB41014878002107F068FB31462046B3
:1036D00000F02EF804EB44010A4A02EB410148785D
:1036E000012107F05BFB7820FFF718FE04EB440193
:1036F000044A12F81100012107F050FB7820FFF76F
:103700000DFE70BD0DC0000870B505460C460021C9
:10371000062007F043FB0121062007F03FFBE005F0
:10372000C40A44F0B4012846FFF75CFF70BD0000F6
:103730002DE9F04104460F4604EB4401284A02EB10
:103740004101487900228C2107F0C0FB04EB4401C1
:10375000234A02EB41010879002107F01FFB0125F4
:1037600030E0C5F1180027FA00F000F001063146FC
:1037700004EB44021A4B03EB4202507907F00EFBB4
:1037800004EB4401164A02EB41010879002107F0DD
:1037900005FB7320FFF7C2FD04EB4401104A02EB66
:1037A00041010879012107F0F9FA7320FFF7B6FD0E
:1037B00004EB44010A4A02EB41010879002107F0B9
:1037C000EDFA6D1C182DCCD904EB4401044A02EB30
:1037D00041010879002107F0E1FABDE8F08100001D
:1037E0000DC0000810B5044604EB4401054A02EB85
:1037F0004101C87806F0CAFA08B9012010BD0020BE
:10380000FCE700000DC000082DE9F8430646884695
:1038100015463D480478C5F3043700781F286DDA53
:1038200004EB44013848001D00F8218004EB4401FA
:1038300000EB8100456004EB44013348001D00EBC0
:1038400081004672002104EB44022F48001D00EB6A
:1038500082000172384600F0A1FD04EB44022A49BF
:10386000091D01EB82018872384600F0B0FD04EBBF
:1038700044022549091D01EB8201C87222480078E3
:10388000401C21490870334620A232212748009568
:10389000FCF7E2FC254806F02BFF04EB44011A4834
:1038A000001D00EB8100837A21A232211F48FCF722
:1038B000D3FC1E4806F01CFF04EB44011248001D17
:1038C00000EB8100C37A1CA232211848FCF7C4FC2B
:1038D000164806F00DFF3B4619A232211348FCF7AB
:1038E000BBFC124806F004FFC5F3046318A23221A2
:1038F0000E48FCF7B1FC0D4806F0FAFE02480078CD
:1039000000F01F00BDE8F883DC3000200D0A2041E4
:103910004443204144443A2049443D25642C2054EA
:1039200047203D20307825780000000054330020E7
:10393000205B413D256400002C204B3D25640000A8
:103940002C20695377697463683D2564000000008A
:103950002C2069643D25645D0000000070B50446BC
:10396000260E25462A4600213046FFF74DFF70BD42
:103970002DE9FC5F80460D4614464FF07E594FF00E
:10398000000A207B0F2809DC207B002102F042FC8A
:103990008146207B012102F03DFC8246284607F04B
:1039A000C7FF4946009008F00BF88346514607F0E0
:1039B00027FE0646207B062827D0092804D00A289F
:1039C0003CD00B287FD166E0284607F0B1FF00907D
:1039D0004A48D0F8EE11009807F0F2FF83464748B6
:1039E000D0F8F211584607F00BFE06464449D1F8CC
:1039F000A002002108F0B0F806D24148D0F8A01289
:103A0000304607F06BFE06465DE02F463C48D0F896
:103A1000A802C71BC8EB4810C0EB00113948084486
:103A20004760384607F06CFF4946009007F0C8FF32
:103A30008346514607F0E4FD064644E02F463048F1
:103A4000D0F8A802C71BC8EB4810C0EB00112D48E6
:103A500008444760384607F053FF00902748D0F8E5
:103A6000F811009807F0ACFF83462448D0F8FC1109
:103A7000584607F0C5FD06462149D1F8A0020021AD
:103A800008F06AF806D21E48D0F8A012304607F0B7
:103A900025FE064617E01949D1F8E003314608F043
:103AA0008DF801900021019807F0DAFE0AD0144940
:103AB000D1F8A402314607F083FF8346019907F04D
:103AC0000DFE064600BF00BF207B0F2805DC217BD2
:103AD0000C48503800EB810006600848007850B16F
:103AE000D4F80D00314607F06BFF8346D4F811106F
:103AF00007F086FD06463046BDE8FC9F54140020C2
:103B0000944300206818002000200849086048609D
:103B10008860C86008614861084680690846C069D5
:103B20000020086248628862C862704700800840CE
:103B3000F0B5014602200025002246E002EB4207D4
:103B4000264E06EB8706B37A02EB4207234E06EBBE
:103B50008706747AC3EB4316C6EB0617204E3E4425
:103B600006F2111604EB440716F817C00646471C68
:103B7000F8B201F806C0C3EB4316C6EB0617184EA1
:103B80003E4406F2111604EB440706EB470636885E
:103B90004FEA162C0746461CF0B201F807C0C3EBEB
:103BA0004316C6EB06170E4E3E4406F2111604EB02
:103BB000440706EB47060F18D6F802603E60061D64
:103BC000F0B26E1CF5B2561CF2B2044E361F3678B7
:103BD0009642B3DC0D7000264E70F0BDE030002040
:103BE0006818002070B504460D46FF2D01D1002352
:103BF00006E0681CC3B224480078984200DC002329
:103C000000223AE09818C1B21F480078884202DCCE
:103C100000215042C3B201EB41061B48001D10F8C1
:103C2000260038B101EB41061748001D10F82600A8
:103C3000012820D101EB41061348001D00EB86004E
:103C4000807AA04201D0032C0BD101EB41060E4833
:103C5000001D00EB8600007A00F0010058B908460C
:103C600070BD01EB41060848001D10F82600012830
:103C700001D1481CC1B2501CC2B203480078904226
:103C8000C0DCFF20ECE70000DC300020014601F042
:103C90000701022901D105207047012901D1032024
:103CA000FAE709B90120F7E70720F5E7F0B5014683
:103CB0000B78002424E000221DE0481C00EB820069
:103CC0000768481C561C00EB86000068874210D924
:103CD000481C00EB82000568481C00EB8600066863
:103CE000481C00EB82000660481C561C00EB860056
:103CF0000560501CC2B2581E9042DEDC601CC4B28B
:103D00009C42D8DB1E4603EBD6704710481C00EBE4
:103D100087000068F0BD000070B504460D4604F051
:103D20001F0000EB4001064800EB8100867AFF2D62
:103D300004D121463046FFF755FF0546284670BDA1
:103D4000E030002010B5034603F01F0000EB4004F4
:103D5000034800EB84004068C840104010BD0000DC
:103D6000E03000200CB500215FE000204DF821007C
:103D7000C1EB4110C0EB00122F481044D0F8800076
:103D8000FF2806D95DF8210040F0FF004DF8210022
:103D90000CE05DF82120C1EB4110C0EB0013264878
:103DA0001844D0F8800002434DF82120C1EB4110A7
:103DB000C0EB001220481044D0F888000F2806D924
:103DC0005DF8210040F470604DF821000DE05DF8D1
:103DD0002120C1EB4110C0EB001317481844D0F864
:103DE000880042EA00204DF82100C1EB4110C0EBF1
:103DF000001211481044D0F88C000F2806D95DF845
:103E0000210040F470404DF821000DE05DF82120C4
:103E1000C1EB4110C0EB001307481844D0F88C00E8
:103E200042EA00304DF82100491C02299DDBDDE902
:103E3000000240EA02400CBD681800200CB50021C9
:103E40004CE000204DF82100C1EB4110C0EB001206
:103E500026481044D0F88C0028B15DF8210040F4C9
:103E600000404DF82100C1EB4110C0EB00121F488B
:103E70001044D0F8880028B15DF8210040F480405B
:103E80004DF82100C1EB4110C0EB0012174810445F
:103E9000D0F8800028B15DF8210040F400504DF8C2
:103EA00021005DF82120C1EB4110C0EB00130F4849
:103EB0001844C07A02434DF821205DF82120C1EB5F
:103EC0004110C0EB00130948184490F85A0000F064
:103ED0001F0042EA00204DF82100491C0229B0DBF6
:103EE000DDE9000240EA02400CBD00006818002035
:103EF00070B52048006A00F0040000B31D488469D2
:103F0000C4F30445C4F307141B4804701B48D0F8DD
:103F10002708401C1949C1F8270805F0070118486F
:103F200000EB81000460102D09D2164850F82500DE
:103F300028B1E1B2134A52F8250000F0C7FA0D4843
:103F4000406A00F0040098B10A48C469C4F304450B
:103F5000C4F3071408480470102D09D2094850F81A
:103F6000250028B1E1B2074A52F8250000F0AEFA68
:103F700070BD000000800840B113002054140020E0
:103F80007F1C00205856002010B50479036803EB0D
:103F9000047384682344C468234404692344446943
:103FA0002344048B03EB4451034A044B1B689343A3
:103FB0000B44024C236010BD0000FFF1008008405C
:103FC00070B50546002417E00121204602F022F9D1
:103FD000014604EB8402194800EB420041600021D5
:103FE000204602F017F9014604EB8402134800EB67
:103FF00042000160601CC4B2102CE5DB002419E013
:104000000121204602F0DAF8014604EB84020B4855
:10401000C83000EB420041600021204602F0CEF89B
:10402000014604EB84020548C83000EB4200016001
:10403000601CC4B2202CE3DB70BD00001016002011
:1040400070B50446C4EB4410C0EB00116D48084441
:10405000857A002615E0C4EB4410C0EB00116948D6
:104060000844623000EB86000168C4EB4410C0EBEA
:10407000001264481044183000EB86000160701C88
:10408000C6B2C4EB4410C0EB00115E48084490F87F
:104090006100B042DFDCC4EB4410C0EB00115948B2
:1040A000084490F86110C4EB4410C0EB001255486E
:1040B0001044C175C4EB4411C1EB011251491144C4
:1040C00001F16100FFF7F2FD0146C4EB4410C0EBC3
:1040D00000124C4810444160C4EB4410C0EB001186
:1040E000484808444068010AC4EB4410C0EB001281
:1040F000444810444160C4EB4410C0EB00134148F5
:104100001A18C4EB4410C0EB00133E481844416831
:104110002046FFF72DFC0146C4EB4410C0EB001213
:10412000384810440160C4EB4410C0EB001135481E
:104130000844808881B2C4EB4410C0EB00123148BF
:10414000104400F2111005EB450200EB4200018023
:10415000C4EB4410C0EB00112A4808440168C4EBCA
:104160004410C0EB00122748104400F2111005EB78
:10417000450200EB4200C0F80210C4EB4410C0EB53
:10418000001120480844913000EB850000881E494A
:10419000B1F85D10081A81B2C4EB4410C0EB0012F4
:1041A0001848104401811848D0F85D10C4EB441041
:1041B000C0EB001213481044913000EB8500016001
:1041C000114890F87600A8420AD1C4EB4410C0EB25
:1041D00000120C4811183422A0F2FD30FCF7E8F967
:1041E000C4EB4412C2EB0213064A1A441168C4EB32
:1041F0004412C2EB0213034A1A44D07AFEF7E6FFD8
:1042000070BD0000681800205414002070B50446EA
:104210000D461F2218212846FFF794FDC6B2002143
:10422000C4EB4410C0EB00122448104480F8611025
:10423000C4EB4410C0EB0011204808448672C4EB64
:104240004410C0EB00111D480844C5721F220C2108
:104250002846FFF777FDC1B2C4EB4410C0EB001253
:104260001648104401737F2211212846FFF76AFD8A
:10427000C1B2C4EB4410C0EB001210481044817569
:1042800005EB85010E4800EB41004168C4EB44108A
:10429000C0EB001209481044C0F8111005EB85016D
:1042A000074800EB41000168C4EB4410C0EB00126A
:1042B00002481044C0F80D1070BD000068180020BE
:1042C000D8160020044A82F8BA0720B1012802D18A
:1042D000FF2382F8B9377047541400200021016091
:1042E00041608160C160016141618161704700008E
:1042F0002DE9F04706460F46FF2F01D0012000E0D0
:104300000020824606EB4601224800EB810090F82F
:104310000A8006EB46011F4800EB810090F80990E7
:10432000FF2F09D1FF21C8EB4810C0EB00121A483B
:10433000104480F8901007E0C8EB4810C0EB001163
:104340001548084480F890903F2206213046FFF738
:10435000F9FCC4B23F2200213046FFF7F3FCC5B29E
:104360001F2C04D11F2D02D10120BDE8F0871F2D85
:1043700005D04FF0FF325146284606F0E7FC1F2CCF
:1043800005D04FF0FF325146204606F0DFFC0220F8
:10439000EBE70000E0300020681800200146481FCD
:1043A0000C2812D2DFE800F0060708090A0B0C0DF2
:1043B00011110E0F00BF00BF00BF00BF00BF00BF44
:1043C00000BF00BF00BF012070470020FCE701468E
:1043D000112921D2DFE801F0090A0B0C0E13141980
:1043E0001A1516171C10111D1E0000BF00BF00BFBC
:1043F000002070470120FCE700BF0020F9E700BF64
:1044000000BF00BF00BF0020F3E700BF0120F0E7BE
:1044100000BF00BF0020ECE70020EAE7014601EB07
:104420004102044810F82200012800D17047002002
:10443000FCE70000E030002030B50246002027E015
:1044400000EB4004154B03EB84035B7A93421DD1D0
:1044500071B100EB4004114B03EB84031B7A43F072
:10446000010400EB40050D4B03EB85031C720DE0CE
:1044700000EB4004094B03EB84031B7A23F0010497
:1044800000EB4005054B03EB85031C72431CD8B2BF
:10449000024B1B1F1B788342D2DC30BDE030002072
:1044A0000021016041608160C1600161416101835F
:1044B0004183C161016241628162704710B5044667
:1044C000204602F0B1FF01F0A5FB10BD024612B973
:1044D0004FF0FF307047D2F8050010B9D2F8010054
:1044E000F8E752F8DB3F1068401C1060197052F872
:1044F000DB3902F1DA00834202D9C738C2F8DB00A7
:10450000D2F8010020B93E48D0F85D00C2F8DF00C3
:10451000D2F80100C8280BDA52F8010F401C1060D5
:104520003748B0F85D00B2F8DE30C01AD081521EB4
:10453000D2F80500002805DDD2F80500401EC2F8BB
:1045400005005AE0507A012802D1907A884205DCB1
:10455000507A02280ED1907A88420BDAD2F8010004
:10456000D2F80B301844002847DD6FF00100C2F884
:10457000050042E0507A012802D1907A884205DB9A
:10458000507A02282FD1907A88422CDDD2F805008B
:10459000B0F1FF3F31DAD2F80B00C830012813DD4B
:1045A000D2F80100D2F80B301844012806DAD2F80C
:1045B0000100C0F1C800C2F805001EE0D2F80B00EF
:1045C000C730C2F8050018E0D2F80100C82806DAA2
:1045D000D2F80100C0F1C800C2F805000DE00020CB
:1045E000C2F8050009E0507A032806D1D2F801008C
:1045F000C82802DB0020C2F80500D2F8010069E7F4
:10460000541400202DE9F04786B00546072D0FDC35
:10461000B42040EA455631460020FEF7E3FF33461A
:10462000FAA23221FE48FBF717FEFD4806F060F8BB
:10463000082D0DD101210020FEF776FE06463346F7
:10464000F8A23221F648FBF707FEF54806F050F8CD
:10465000092D0DD100210846FEF766FE06463346B9
:10466000F4A23221EE48FBF7F7FDED4806F040F8E2
:104670001E2D1CDB252D1ADC72B6A5F11E00B421FF
:1046800041EA405631460020FEF7ACFF00210846C3
:10469000FEF74AFE82463346EAA23221E048CDF8D0
:1046A00000A0FBF7D9FDDE4806F022F862B6282DFF
:1046B0001CDB2F2D1ADCA5F12800B42141EA405063
:1046C00040F4003631460020FEF78CFF00210846FA
:1046D000FEF72AFE82463346DAA23221D048CDF8D0
:1046E00000A0FBF7B9FDCE4806F002F8332D2CD11F
:1046F0000124C4EB4410C0EB0011D9480844406CBD
:10470000002141EA003040F0B40631462046FEF771
:1047100069FF02E0D3A005F0EBFF2046FFF762F847
:104720000028F7D001212046FEF744FE824633469A
:10473000C4A23221BA48CDF800A0FBF78DFDB848DD
:1047400005F0D6FF06B0BDE8F0870A2D2AD1002477
:1047500026E00022B4211046FEF796FF02E0C2A038
:1047600005F0C6FF0020FFF73DF80028F7D0002134
:104770000846FEF71FFE064602E0BCA005F0B8FFA3
:104780000020FFF72FF80028F7D03346B8A23221D7
:10479000A348FBF761FDA24805F0AAFF601CC4B264
:1047A0000A2CD6DB0B2D15D172B60022B349104668
:1047B000FEF76AFF00210846FEF7FCFD0646AF4BF8
:1047C000AFA2322196480096FBF746FD944805F0CB
:1047D0008FFF62B6422D1FD100241BE00022AE499C
:1047E0001046FEF751FF01210020FEF7E3FD0646CB
:1047F000A94BA3A232218A480096FBF72DFD8848D9
:1048000005F076FF00BF0020FEF7ECFF0028FAD08D
:10481000601CC4B2142CE1DB4D2D1ED100241AE023
:104820009D490020FEF7DEFE00210846FEF77CFDD4
:104830000646994B92A2322179480096FBF70CFD6F
:10484000774805F055FF00BF0020FEF7CBFF00289A
:10485000FAD0601CC4B2142CE2DB642D08D1102104
:104860008E4880F86E1480F83F168DA005F040FF4A
:10487000652D06D11021894880F86E148DA005F0B1
:1048800037FF662D06D11021844880F83F168EA090
:1048900005F02EFF672D08D10021804880F86E14A6
:1048A00080F83F168DA005F023FF782D08D1012157
:1048B0007A4880F8681480F839168CA005F018FF43
:1048C000C82D01D0C92D70D105F00104C4EB4410EE
:1048D000C0EB001162480844406C4FF4001141EAFB
:1048E000003040F0B40631462046FEF77BFE2346FA
:1048F00087A232214A480096FBF7AEFC484805F0F3
:10490000F7FE02E057A005F0F3FE2046FEF76AFF2F
:104910000028F7D04FF00309C4EB4410C0EB00119E
:104920004F48084490F84400060306F47C30B9F17F
:10493000120F01DA012100E0002140EA010646F4ED
:10494000400040F0B4012046FEF74CFE0121204615
:10495000FEF7EAFC0146C4EB4410C0EB00124048ED
:104960001044416346F4600040F0B4012046FEF775
:1049700039FE01212046FEF7D7FC0146C4EB441066
:10498000C0EB001236481044C163C4EB4410C0EBC6
:10499000001133480844C16BC4EB4410C0EB001253
:1049A0002F481044406B4B4600E022E05EA2CDE968
:1049B000000132211A48FBF74FFC194805F098FE18
:1049C0003648D0F85D003549C1F8B801C4EB441051
:1049D000C0EB00112248084490F85A00102808D073
:1049E0000821C4EB4410C0EB00121D48104480F8AD
:1049F0005A10CA2D01D0CB2D06D105F00104C4EB0D
:104A00004410C0EB0011A1E033E10000204D4F4401
:104A1000453A20307825303678200D0A0000000015
:104A20005433002020524420307825303678200D31
:104A30000A00000020434620307825303678200DCB
:104A40000A000000204D4F44453A2030782530368A
:104A5000782052443A203078253036780D0A00000C
:104A6000681800202E0000005700000072000000AF
:104A7000203078253036782000000000B400200077
:104A8000773A2030782530367820723A20307825F1
:104A9000303678200D0A0000B400C0005414002005
:104AA000C0D6CF20CEF1F2E0EDEEE2EBE5EDEE2167
:104AB00000000000C0D6CF3120CEF1F2E0EDEEE2F2
:104AC000EBE5EDEE21000000C0D6CF3220CEF1F2B2
:104AD000E0EDEEE2EBE5EDEE21000000C0D6CF20E8
:104AE000C7E0EFF3F9E5ED2100000000C0D6CF3AB2
:104AF00020F0E5E6E8EC20E0E2F2EEEAEEECECF3A2
:104B0000F2E0F6E8E820EEF2EAEBFEF7E5ED210050
:104B10004155544F43414C204144435B25645D2043
:104B20005B307825785D00000D0A20256429205A25
:104B300045524F3A203078253036782046554C4C37
:104B40003A20307825303678200D0A00B9480844DC
:104B5000406C4FF4003141EA003040F4001040F066
:104B6000B40631462046FEF73DFD2346AFF2600213
:104B70003221B1480096FBF76FFBAF4805F0B8FD56
:104B800003E0AFF2201005F0B3FD2046FEF72AFE49
:104B90000028F6D04FF00309C4EB4410C0EB00111D
:104BA000A448084490F84400060306F47C30B9F1A8
:104BB000120F01DA012100E00021084340F4003621
:104BC00046F4400040F0B4012046FEF70BFD012101
:104BD0002046FEF7A9FB0146C4EB4410C0EB0012CF
:104BE00094481044816346F4600040F0B4012046CC
:104BF000FEF7F8FC01212046FEF796FB0146C4EBC8
:104C00004410C0EB00128B4810440164C4EB441004
:104C1000C0EB001187480844016CC4EB4410C0EBA2
:104C2000001284481044806B4B46AFF20412CDE969
:104C3000000132218048FBF70FFB7F4805F058FD4B
:104C40007E48D0F85D007D49C1F8B801C4EB44103E
:104C5000C0EB00117748084490F85A00102808D09B
:104C60000821C4EB4410C0EB00127248104480F8D5
:104C70005A10FF2D0AD16FF0704603E070490020F2
:104C8000FEF7B0FC301EA6F10106F7D1DE2D1FD1D4
:104C9000002603E06B4840F82660761CB6F5806F6E
:104CA000F8D372B668496948FCF7AEF9064662B6B1
:104CB0005EB1300CB3B266A2322100905E48FBF7C1
:104CC000CBFA5D4805F014FD02E068A005F010FD88
:104CD000DF2D15D1002411E05C4901EB8400FCF7C5
:104CE00098F90646234664A2322153480096FBF702
:104CF000B3FA514805F0FCFC601CC4B2142CEBDB89
:104D0000E02D15D1002411E04F4901EB8400FCF7A0
:104D100080F90646234658A2322147480096FBF701
:104D20009BFA454805F0E4FC601CC4B2142CEBDB94
:104D3000E12D25D1002421E004EB8402524901EB4E
:104D40004201486806F030FC0746884604EB8402BE
:104D50004D4901EB4201086806F026FCCDE90380CD
:104D60000591234649A28DE8830032213248FBF7A2
:104D700073FA314805F0BCFC601CC4B2202CDBDBAC
:104D8000E22D54D14748006800904648436846A247
:104D900032212948FBF760FA274805F0A9FC0024D6
:104DA0001FE04049083101EBC401486806F0FCFBF4
:104DB000074688463B49083101EBC401086806F004
:104DC000F3FBCDE90380059123463FA28DE88300E4
:104DD00032211948FBF740FA174805F089FC601C9E
:104DE000C4B2182CDDDB00241FE02E49C83101EBD2
:104DF000C401486806F0D8FB074688462949C831EF
:104E000001EBC401086806F0CFFBCDE903800591F2
:104E1000234634A28DE8830032210748FBF71CFAB1
:104E2000054805F065FC601CC4B2202CDDDB00BF2A
:104E300088E4000068180020543300205414002037
:104E4000B40020008833002019C0000800000208C8
:104E50005752495445204552522025642E20286F30
:104E60006673203D202578290000000057524954E0
:104E700045204F4B2E20000025643A203078253005
:104E80003878200D0A000000D816002025643A204A
:104E90004B31203D2025662C204B30203D202566BF
:104EA000200D0A0094430020434F4E463A20736978
:104EB0007A65203D2025642C204B6579203D2025F6
:104EC00078200D0A00000000692E25643A204B313D
:104ED000203D2025662C204B30203D202566200DCE
:104EE0000A000000652E25643A204B31203D202524
:104EF000662C204B30203D202566200D0A00000046
:104F00007CB50546012D00D10026022D00D10126D9
:104F1000022D01D0012D5BD1C6EB4610C0EB001174
:104F200063480844C47A1F2218212046FEF70AFF6E
:104F3000C4B2C6EB4610C0EB00115D4808440189BD
:104F4000C6EB4610C0EB0012594810444068234697
:104F500058A2CDE9000132215E48FBF77DF95D489A
:104F600005F0C6FB5CA005F0C3FB002414E0C6EB13
:104F70004610C0EB00114E480844183000EB840086
:104F80000068030A55A232215248FBF765F95148DF
:104F900005F0AEFB601CC4B2C6EB4610C0EB0011BE
:104FA00043480844C07DA042E1DC4EA005F0A0FBD0
:104FB000C6EB4610C0EB00113D480844D0F88030E5
:104FC00049A232214348FBF747F9424805F090FBDC
:104FD000032D1AD147A005F08BFB002410E04648B2
:104FE0000068C4F10F0201219140084018B143A0AC
:104FF00005F07EFB02E042A005F07AFB601CC4B223
:10500000102CECDB3FA005F073FB042D2BD13F48A7
:10501000B0F81F0000903D48D0F81B303CA2322170
:105020002C48FBF719F92B4805F062FB2AA005F084
:105030005FFB00240FE035482F3000EB8400006850
:10504000030A26A232212348FBF706F9214805F07E
:105050004FFB601CC4B22D4890F82E00A042EADC41
:1050600020A005F045FB052D21D122A005F040FB35
:1050700000240FE02E4800EB8400006823462DA298
:10508000322100901348FBF7E7F8124805F030FB97
:10509000601CC4B2082CEDDB1C48D0F8273828A2CD
:1050A00032210C48FBF7D8F80A4805F021FB7CBDFB
:1050B000681800200D2025642920307825303678A6
:1050C00020206379636C6554696D65203D202564FB
:1050D0002000000054330020205B000020253034E5
:1050E000782000005D200000657272203D2025645C
:1050F000200000000D00000000800B402031200047
:1051000020302000202D2044415441005414002020
:105110000D20203078253036782020C2F0E5ECFFD5
:1051200020F6E8EAEBE020256420ECF12000000006
:105130007F1C002025643A30782530347820200008
:1051400020286972713A202564292020000000007F
:105150002DE9F0410546012D00D10024022D00D19A
:105160000124022D01D0012D7DD1C4EB4410C0EBF0
:10517000001179480844D0F8567078A005F0B8FAC4
:105180007BA005F0B5FA814800EB84000088012877
:1051900003D17FA005F0ACFA02E080A005F0A8FAE8
:1051A00082A005F0A5FA794800EB84004088012828
:1051B00003D177A005F09CFA02E078A005F098FAF8
:1051C0007248001F00EB440003887BA23221844810
:1051D000FBF742F8824805F08BFA6C48001F00EBA1
:1051E0004400008810B97FA005F082FAC4EB441097
:1051F000C0EB001158480844436B80A23221784824
:10520000FBF72AF8764805F073FAC4EB4410C0EBBC
:10521000001151480844C36B7EA232217048FBF74D
:105220001BF86F4805F064FAC4EB4410C0EB0011A2
:1052300049480844836B7BA232216948FBF70CF88C
:10524000674805F055FAC4EB4410C0EB0011424822
:105250000844036C6FA232216148FAF7FDFF6048F1
:1052600005F046FA00E042E0C4EB4410C0EB001148
:1052700039480844D0F8803070A232215848FAF7F3
:10528000EBFF574805F034FAC4EB4410C0EB0011B3
:1052900031480844D0F884306DA232215048FAF7E2
:1052A000DBFF4F4805F024FAC4EB4410C0EB0011BB
:1052B00029480844D0F888306AA232214848FAF7D1
:1052C000CBFF474805F014FAC4EB4410C0EB0011C3
:1052D00021480844D0F88C3069A232214048FAF7BE
:1052E000BBFF3F4805F004FA6BA005F001FA032D5F
:1052F0001DD16AA005F0FCF96DA005F0F9F90026B2
:1053000010E078484068C6F10F0201219140084042
:1053100018B175A005F0ECF902E074A005F0E8F909
:10532000701CC6B2102EECDB71A005F0E1F9052D62
:1053300002D172A005F0DCF9042D0AD1754890F86D
:10534000763075A232212648FAF786FF244805F008
:10535000CFF9BDE8F081000068180020CAEEEDF436
:10536000E8E3F3F0E0F6E8FF20C0D6CF3A200000F3
:105370000A0DD2E8EF20EAE0EBE8E1F0EEE2EAE83D
:105380003A20CAE0EDE0EB20313A200068450020E9
:10539000D1E8F1F2E5ECEDE0FF000000D1E0ECEE49
:1053A000EAE0EBE8E1F0EEE2EAE000002020CAE00B
:1053B000EDE0EB20323A20000A0DCFEEE2F2EEF003
:1053C00020EAE0EBE8E1F0EEE2EAE83A20F7E5F087
:1053D000E5E720256420F6E8EAEBEEE200000000B5
:1053E000543300202028F2EEEBFCEAEE20EFF0E848
:1053F00020F1F2E0F0F2E529000000000A0DCAE019
:10540000EDE0EB20312E205A65726F3A307825306E
:105410003678200046756C6C3A3078253036782026
:10542000000000000A0DCAE0EDE0EB20322E205A09
:1054300065726F3A30782530367820000A0DCEF844
:10544000E8E1EEEA20E7E0EFE8F1E83A2025640041
:105450000A0DCEF8E8E1EEEA20F7F2E5EDE8FF3AD2
:10546000202564000A0DCAF0E8F2E8F7E5F1EAE861
:10547000F520EEF8E8E1EEEA3A20256400000000AD
:105480000A0DCEF8E8E1EEEA20F2E0E9EC2DE0F3D7
:10549000F2E03A20256400000A0D0000504F5254FB
:1054A0004320D1EEF1F2EEFFEDE8E53A200A0D00DF
:1054B0003135203134203133203132203131203127
:1054C0003020303920303820303720303620303509
:1054D0002030342030332030322030312030300A38
:1054E0000D00000000800B40203120002030200003
:1054F000202D204F45200A0D00000000D1EEF1F2D2
:10550000EEFFEDE8E520F1E0ECEEEFE8F1F6E03A51
:10551000200A0D0054140020C4E0EDEDFBE520E866
:10552000E7ECE5F0E5EDE8FF20F1E8E3EDE0EBE0A6
:10553000206964203D2025642E0A0D007CB50D48AD
:10554000B0F89C300CA232210F48FAF785FE0E48C5
:1055500005F0CEF80749D1F8A40006F025F80BA213
:10556000CDE9000132210848FAF776FE064805F039
:10557000BFF87CBD54140020204352433A203078B9
:1055800025303478200A0D00543300200A0D2054B1
:105590005354204B3A202566200A0D00014602484C
:1055A00000EBC100704700005C4400200146024847
:1055B00000EBC100704700005046002070B5154850
:1055C000FBF727FD04461348001DFBF722FD0546A7
:1055D00040F6C820854203D145F2AA5084420CD03F
:1055E0002B2001F033FF2B2001F030FF2B2001F0A6
:1055F0002DFF09490748FBF707FD40F6C82205497A
:105600000648FBF70BFD0548D0F8F8100448C0F831
:10561000A41070BD0000020819C0000894430020C7
:105620005414002010B540F6C82202490248FAF787
:10563000BFFF10BD19C000089443002070B5034699
:105640004FF6FF7000240DE0491E2546641C5A5D8C
:1056500082EA2022054DAE5C054DAD5C454046EA30
:105660000525A8B20029EFD170BD0000E1CA0008ED
:10567000E1CB00084AF6AA20014908607047000003
:10568000008006400020014908607047A8130020F0
:10569000F0B593B005460E4617462A4886420BDD04
:1056A000012406E046FA04F02649884200DC02E0C4
:1056B000641C072CF6DB00BF42F22000224948613F
:1056C000FEF722FA0CA8FEF709FE00200C900D90C0
:1056D0000E900F901090119012900CA8FEF754FCB1
:1056E00001A8FEF7DDFE00200190082002900020B6
:1056F00003900690ADF81C00ADF81E000890012044
:105700000990C0030A9000200B9001A8FCF7A8FEA6
:105710004FF400710820FCF7D1FE298888B2FCF70D
:10572000D9FE01A8FCF7EAFE4FF400710820FCF74F
:105730000DFF29684FF6FF7202EA1140FCF712FFD5
:1057400013B0F0BD00127A000000024070B50246AE
:105750000B46002031E012F82050012404FA05F134
:10576000174C64688C43164D6C602C46246924EAFF
:1057700001442C612C4624698C432C612C46A4697D
:1057800012F820506E000325B540AC4312F82050AB
:105790006E000225B5402C43094DAC612C46A4682F
:1057A00012F820506E000325B540AC43044DAC60A8
:1057B0002C46E4688C43EC60401C9842CBDB70BD07
:1057C00000000C4010B504460F48006801281AD1AB
:1057D0000E480078002802DD01200D4908600B48C2
:1057E0000078052809DA0B48084909784454074825
:1057F0000078401C0549087005E000200349087046
:1058000005A004F075FF10BDA81300209913002017
:10581000A80F002094130020CFE5F0E5EFEEEBEDAC
:10582000E5EDE8E520E1F3F4E5F0E02E0A0D0000F7
:1058300010B50D48007890B10B4803780B480278FA
:10584000002104E0094C481C205C6054491C99422A
:10585000F8DB05480078401E034C207002E04FF44E
:10586000807010BD1046FCE79913002094130020AF
:1058700010B50C480068012812D10B48007868B1B7
:105880000A48C0780A490968884207D00748C078A2
:105890000749086004480078FFF732FB00F00AF877
:1058A00010BD0000A8130020B013002054140020E5
:1058B000A013002070B5002400250BE0FFF7B8FF0F
:1058C0000446B4F5807F05D021460548006804F001
:1058D000B9FDE5B2B4F5807FF0D1284670BD000077
:1058E0009C1300202F4890F8780000F0100000284A
:1058F00054D12D480078032812D12C480078001D7F
:10590000C0B22A4908600846007800F0800018B14B
:10591000EF202749086037E010202549086033E070
:1059200021480078012806D121480078001DC0B226
:105930001F49086028E01C48007818B900201C495D
:10594000086021E01848007802281DD11748006837
:1059500068B117480068EC2803DB00201349086091
:1059600012E0134800680830114908600CE0104844
:105970000068142803DC01200C49086004E00C488E
:10598000006808380A4908600948006800010949A8
:105990004860074800680001886002E00020044970
:1059A0000860704754140020B4130020BC1300207A
:1059B000B81300200000094008B9034A51600128CB
:1059C00001D1014A91607047000009402DE9F04182
:1059D00004460E46104901EBC4010868314605F043
:1059E000EFFF80460C4800EBC4004168404605F0DC
:1059F00007FE074605F068FF0546B5F5805F01DB49
:105A000040F6FF75002D00DA002529462046FFF7F5
:105A1000D3FFBDE8F08100004046002010B50246EB
:105A2000052A13D2DFE802F00306090C0F004FF439
:105A300080600BE04FF4006008E04FF4805005E018
:105A40004FF4005002E04FF4804000BF00BF29B186
:105A5000054B1B680343044C236004E0024B1B68A6
:105A60008343014C236010BD00000C4013B5044675
:105A70001248007800F00100114951F8200070B17F
:105A80001048446001A80F4988600C48007800F075
:105A900001000B4951F820200A4907209047074888
:105AA00090F87D0040B90748446001A80549886026
:105AB0000720054A126890471CBD000054140020BE
:105AC000800F0020D41300208C0F002070B50446F6
:105AD0000D4600261248007800F00100114951F8E7
