:03000000020B7A76
:0F0B7A00787FE4F6D8FD75A00075813D020AA6CC
:10099A0056312E31303100417567203131203230E5
:1009AA00313600626175643D25640A00564552532A
:1009BA00494F4E2E2E2E2E2025730A0044415445AF
:1009CA002E2E2E2E2E2E2E2025730A0042415544FD
:1009DA002E2E2E2E2E2E2E2025640A0044455F50E0
:1009EA00494E2E2E2E2E2E2025640A004144435FA6
:1009FA004B302E2E2E2E2E2025660A004144435FB0
:100A0A004B312E2E2E2E2E2025660A00504F525480
:100A1A002E2E2E2E2E2E2E2025780A00434F4E469D
:100A2A004947555241544F52000701035645525304
:100A3A00494F4E0000000004FF099A004441544502
:100A4A000000000000000004FF09A10042415544D3
:100A5A0000000000000000000001C20044455F5091
:100A6A00494E0000000000030A0000004144435FB1
:100A7A004B30000000000001000000004144435FC9
:100A8A004B310000000000013CA0902E504F525400
:0C0A9A00000000000000000255AA00004F
:0D0B89007BFF7A0979AD8E258F2602058D40
:100AA600900A621204E5120B89900A42E493FB74E1
:100AB6000193FA7402938B258A26F5277BFF7A0920
:100AC60079B612058D900A52E493FB740193FA7479
:100AD60002938B258A26F5277BFF7A0979C61205AC
:100AE6008D7BFF7A0979D6900A621204E58F288EEB
:100AF600278D268C2512058D7BFF7A0979E6900ACB
:100B060072E493F52512058D7BFF7A0979F6900A32
:100B1600821204E58F288E278D268C2512058D7B63
:100B2600FF7A0A7906900A921204E58F288E278D9D
:100B3600268C2512058D7BFF7A0A7916900AA2E487
:0D0B460093F525740193F52612058D80FEB0
:10052B00E5392425F8E605392278223007027825AB
:10053B00E475F0011204F502048D2000EB7F2ED23E
:10054B00008018EF540F2490D43440D4FF30040BA8
:10055B00EF24BFB41A0050032461FFE53A60021583
:10056B003A053DE53D7002053C30070D7822E475F8
:10057B00F0011204F5EF0204D3020B537403D207FC
:10058B008003E4C207F5398B228A238924E4F53AE8
:10059B00F53CF53DE53A60077F2012056680F57561
:1005AB003BFFC201C200C202C203C205C206C2089F
:1005BB00120534FF700D3007057F00120577AF3D34
:1005CB00AE3C22B4255FC2D5C204120534FF24D041
:1005DB00B40A00501A75F00A783A30D50508B6FF00
:1005EB000106C6A426F620D5047002D20380D924B6
:1005FB00CFB41A00EF5004C2E5D204020864D20152
:10060B0080C6D20080C0D20280BCD2D580BAD205BF
:10061B0080B47F201205662002077401B53A0040B2
:10062B00F112052BFF12056602059FD208D2068038
:10063B009512052BFB12052BFA12052BF94A4B7061
:10064B0006795B7A097BFF20022EE53A602A7E0051
:10065B008E827583001204A660060EEE653B70F069
:10066B00C2D5EBC0E0EAC0E0E9C0E0EE1208C4D0AE
:10067B00E0F9D0E0FAD0E0FB12048DFF60AAEBC0EA
:10068B00E0EAC0E0E9C0E0120566D0E02401F9D051
:10069B00E03400FAD0E0FBE53B0460DCD53BD980CD
:1006AB0087D20280A21208A760F7E53B7001041203
:1006BB000003A93B600DE53B600914F53B12094EA5
:1006CB00EF60F3EA30E702F404C3995077EAF425BC
:1006DB003B0430E701E404F53B800D1208A760C131
:1006EB00EA053B253B120003EA7838F630E701E4D4
:1006FB00253B04D53B04200501141208C4E4C0E0DB
:10070B0012094E7838E6601320E70714F612054EEF
:10071B00802204F6D0E014C0E07F0012054EE53BCA
:10072B006007120545153B800B300503120545D0BC
:10073B00E002059FD0E00480C51208A760A0E53B4E
:10074B00041200037838EAF6E53B20050260010449
:05075B0024041208C493
:1007600074FF04C0E012094E12054EE53B2005025D
:100770006003120545D0E0B53BE87F451205587887
:1007800038E67F2B30E7047F2DF404C0E0120566C5
:10079000D0E075F00A84C0F012054FD0E012054F8A
:1007A00002059F791080027908C206C2088008D22B
:1007B000D5790A8004790AC2D5E53B047002F53B7D
:1007C000E4FAFDFEFF12052BFC7B08200113120545
:1007D0002BFD7B1030000A12052BFE12052BFF7B30
:1007E00020EC3382D592D55013C3E43000069FFF2E
:1007F000E49EFEE42001039DFDE49CFCE4CBF8C2F2
:1008000001EC700CCFCECDCCE824F8F870F3801753
:10081000C3EF33FFEE33FEED33FDEC33FCEB33FB84
:10082000994002FB0FD8E9EB300105F8D0E0C4484D
:10083000B201C0E00AEC4D4E4F78207B0070C2EA56
:10084000B53B0040BCC0E01208C6D0F0D0E02001AB
:1008500004C4C0E0C4B201C0F012054FD0F0D5F01E
:10086000EB02059F120505063C5307A358060D4CE5
:1008700006094207A74F07AF4407AF4906224307BF
:10088000B55506E64607444506B047097B500611B4
:100890002D06152E06382B06192306362009642A44
:1008A00005D14800000630E53BB4FF03753B061256
:1008B000052BFC12052BFD12052BFE12052BFF78D4
:1008C00031020032790AA2D5200314300509B9108B
:1008D000020404B9080104A2D52006025001042034
:1008E00002689202B53A005034C0E07F203003190C
:1008F0007F30A20272067205500F12091DC202C299
:1009000006C205C2087F30800F300503E9C0E0123F
:100910000566300503D0E0F9D0E0B53ACC300517D4
:100920007F30B9100C1205667F583004077F78803D
:1009300003B908031205663002057F2D0205667FA4
:10094000202008F87F2B2006F322920280CF7F0020
:10095000B4070050052431F8E6FF22286E756C6C50
:100960002900D20112052B3001F8C201783A30D5A6
:100970000108F60205D12D5043495812052B2403D6
:10098000B405004001E490097693120557743A12B9
:0A0990000557D203753A040207A3CD
:10000300F920E72824F950037907E4F42402FB18C4
:10001300DBFDE624FB5014E9600DE4F618E604F674
:0F002300B40A08E4F6D9F57401F60A22C2D52210
:10003200ED33EC3392D5FA602AB4FF33EDC2E77B9D
:10004200FF60067A007957E4227A00796020D504AD
:100052007A00795B224E614E002B494E46002D49B3
:100062004E4600E47A08F608DAFC7B00740722E8C0
:10007200C0E0ECC0E0EDC0E0EEC0E0EFC0E0EA7549
:10008200F010A4CAABF075F04DA42BFBE435F0FCE4
:10009200EA2410FAEB34C5FBEC34D9FCEDC2E7FFDD
:1000A20075F056A4F42411C5F0F434C58FF0A42AD7
:1000B200E5F03BE43CF620E714120403D0E0FFD065
:1000C200E0FED0E0FDD0E0FC1203368014F404120E
:1000D2000403D0E0FFD0E0FED0E0FDD0E0FC12024D
:1000E2002DD0E0F8E6FAEDD2E7CD33EC332482FBF3
:1000F200E4C3CF33CFCE33CECD33CD33DBF37B0767
:1001020075F00A846004F6081B0AE5F0F6088FF021
:10011200740AA4FFACF08EF0740AA42CFEACF0506A
:10012200010C8DF0740AA42CFDE435F0F608DBDE38
:030132007407222D
:10013500020478E86480F8E933E83360110460F07C
:10014500ED33EC337009E8FCE9FDEAFEEBFF220430
:1001550060DED3EB9FEA9EE99DE8C2E78CF0C2F72B
:1001650095F0400CE8CCF8E9CDF9EACEFAEBCFFBF7
:1001750012044385D0F05804700320D5B3E8047009
:10018500075002B2D502048292D5EC0460F7E4CCA4
:10019500C0E0C398F8603B94186008400DD0E0FBC0
:1001A50002045AE4FBFAC9FC8028E830E406E4C9F5
:1001B500FBE4CAFCE830E305E4C9CACBFCE8540714
:1001C5006010F8C3E913F9EA13FAEB13FBEC13FC1F
:1001D500D8F130F52FC3E49CFCEF9BFFEE9AFEEDC2
:1001E50099FDD0E0FBEF4E4D4C701222DB0302046B
:1001F5007FEC2CFCEF33FFEE33FEED33FDED30E706
:10020500EB02045AEF2BFFEE3AFEED39FDD0E0FB91
:1002150050130BBB0003020482ED13FDEE13FEEF3A
:0802250013FFEC13FC02045A64
:10022D00EC4D6011E8497017ED33EC3304600DE4CB
:10023D00FCFFFEFD22E933E8330470F80204781266
:10024D00044358046009E4CC248150062850090267
:10025D00048228400302047FC0E0EB4A7044B98059
:10026D0006D0E0FB02046EEF4E701CBD8008EBFF64
:10027D00EAFEE9FD80EBE98DF0A4FEE5F002031640
:10028D00E9CDF9EAFEEBFFEF89F0A4FCE5F0CE89AC
:10029D00F0A42EFFE435F0CD89F0A42DFEE435F069
:1002AD008067EF4E7005BD80D780C3EF8BF0A4AC97
:1002BD00F0EE8BF0A42CFCE435F0F8EF8AF0A42CD2
:1002CD00E5F038FCE433CB8DF0A42CFCE5F03BF8E5
:1002DD00EE8AF0A42CFCE5F038F8E433CF89F0A4D5
:1002ED002CFCE5F038CF3400CE89F0A42FFFE5F0DB
:1002FD003EFEE433C98DF0A42EFEE5F039CD8AF033
:10030D00A42FFFE5F03EFEE43DFD33D0E0FB5007AA
:10031D000BBB000F020482EC2CFCEF33FFEE33FE1F
:06032D00ED33FD02045A4D
:10033300020482EC5D046005E8590470030204784A
:10034300120443580460F6EC4860F2EC7004FDFEBE
:10035300FF22C860DB2481C85009C398600250069D
:1003630002047F9850CAF582E9294B4A7005AB8293
:1003730002046E75F0007C1A7880C3EF9BEE9AED51
:1003830099400DC3EF9BFFEE9AFEED99FDE842F015
:10039300DC23ACF0D0E0FFD0E0FED0E0FDAB822068
:1003A300E7101BEB60BAEC2CFCEF33FFEE33FEEDF2
:1003B30033FD02045AE803F830E705C0F075F00096
:1003C300EF2FFFEE33FEED33FD40B830E7C280AAD6
:1003D3003F8000004120000042C80000447A000032
:1003E300461C400047C35000497424004B189680B4
:1003F3004CBEBC205A0E1BCA6753C21C749DC5AEAB
:10040300FB60065407601C2323120431EB5438604D
:100413000912041D12042C12022DECF8EDF9EEFA68
:10042300EFCB22EB12042C80F1543803241C9003ED
:10043300D3FE93FC0EEE93FD0EEE930ECE93FF22AE
:10044300E9D2E7C933E833F892D5EDD2E7CD33ECFF
:0704530033FC5002B2D52278
:10045A00EC30E7100FBF000C0EBE00080DBD000403
:10046A000BEB6014A2D5EB13FCED92E7FD2274FFAF
:10047A00FCFDFEFF22E480F8A2D574FF13FC7D8008
:03048A00E480EF1C
:10048D00BB010689828A83E0225002E722BBFE026D
:09049D00E32289828A83E49322A0
:1004A600BB010CE58229F582E5833AF583E022500B
:1004B60006E92582F8E622BBFE06E92582F8E22255
:0D04C600E58229F582E5833AF583E493226F
:1004D300BB010689828A83F0225002F722BBFE0108
:0204E300F32202
:1004E500E493FC740193FD740293FE740393FF225D
:1004F500FAE6FB0808E6F925F0F618E6CA3AF62208
:10050500D083D082F8E4937012740193700DA3A385
:1005150093F8740193F5828883E473740293686099
:06052500EFA3A3A380DF99
:100B5300EFB40A07740D120B5E740A309811A8994A
:100B6300B8130CC2983098FDA899C298B811F63002
:070B730099FDC299F59922DA
:00000001FF
