:020000040800F2
:100000007007002099010008A1010008A301000861
:10001000A5010008A7010008A901000800000000D0
:10002000000000000000000000000000AB0100081C
:10003000AD01000800000000AF010008B101000898
:10004000B3010008B3010008B3010008000000007C
:1000500000000000B3010008B3010008B30100086C
:10006000B301000800000000B3010008B30100085C
:10007000B301000800000000B3010008B30100084C
:10008000B3010008B301000800000000B30100083C
:10009000B3010008000000000000000000000000A4
:1000A000000000000000000000000000B301000894
:1000B000B3010008B3010008B3010008B301000850
:1000C00000F002F800F058F80AA090E8000C824412
:1000D0008344AAF10107DA4501D100F04DF8AFF2EF
:1000E000090EBAE80F0013F0010F18BFFB1A43F016
:1000F000010318471421000034210000103A24BFE6
:1001000078C878C1FAD8520724BF30C830C144BF7C
:1001100004680C60704700000023002400250026BE
:10012000103A28BF78C1FBD8520728BF30C148BF5A
:100130000B607047662901F0B687642900F0B6802D
:10014000782900F0EF80732900F093830020704736
:100150001FB59DE8030001F017F800F0A1FB0400B3
:100160000020002101F012FFE06000F0ADFC1FBD97
:1001700010B500F012FD10BD00F07AFD1146FFF73A
:10018000E7FF01F093FE00F069FF03B4FFF7F0FF13
:1001900003BC01F08BF9000009488047094800477B
:1001A000FEE7FEE7FEE7FEE7FEE7FEE7FEE7FEE727
:1001B000FEE7FEE704480549054A064B7047000084
:1001C000051E0008C1000008700100207007002013
:1001D00070030020700300200FB4044910B503AA77
:1001E000029800F04BFB10BC5DF814FB640000208B
:1001F0002DE9F0410E460446002020622046E168C9
:10020000884730B3252805D0D4E901219047206ADA
:10021000401CF2E7E168204600278847050018D017
:10022000A5F14100192802D820354FF40067324665
:10023000294620462760FFF77DFF40B1012804D002
:10024000F61D26F007060836D8E7361DD6E72846FD
:10025000DAE7206ABDE8F08170B50C460546012A50
:1002600005D02878800600D5EA69002302E0012342
:1002700005E05B1C934202D2E05C0028F9D1A8693A
:10028000E618C01AA861286A184428622846AFF305
:10029000008004E0D5E9012114F8010B9047B44235
:1002A000F8D32846AFF3008070BD00002DE9F0417F
:1002B0000646002410687529314616A510D0AFF304
:1002C0000080002802DA404213A507E031688A075F
:1002D00001D512A502E0490704D511A5012401E0CA
:1002E000AFF3008000210A2206F1240709E0B0FBE9
:1002F000F2FCB0FBF2F302FB1C00303078541846DD
:10030000491C0028F3D123462A463046BDE8F04177
:1003100000F037B8000000002D0000002B000000A6
:100320002000000070B504460D4621461068AFF36A
:1003300000802188090502D50F4A7A4402E00E4A5E
:100340007A440E32002104F1240305E000F00F0688
:100350000009965D5E54491C0028F7D120780023DF
:10036000000704D5702D02D009B1022311322046B6
:10037000BDE8704000F005B8EC1D00007047704704
:1003800070472DE9F0470D4699469246044600F124
:1003900024080168880604D5E06921F01001216075
:1003A00000E00120A84201DD471B00E00027A16911
:1003B0007A1902EB0900081AA0612078C00602D45D
:1003C0002046AFF30080002608E0D4E901211AF8A6
:1003D00006009047206A401C761C20624E45F4DBE4
:1003E0002078C0060AD52046AFF3008006E0D4E9A5
:1003F000012130209047206A401C2062381EA7F15E
:100400000107F4DC07E0D4E9012118F80500904762
:10041000206A401C2062281EA5F10105F3DC20465D
:10042000AFF300802078000602D50220BDE8F087F7
:100430000120FBE770472DE9FF4F0C461E464FF0A9
:10044000FF378BB0D2E90001DDF860800A908A4660
:10045000C1F30A5505B93D46002108464FF000009A
:10046000BAF1000F00F4400005DA00EB80004FF411
:10047000400101EA50004FEA9059B9F1010F00DD47
:10048000B9460A9850EA4A000ED044F61050A5F238
:10049000FF3545432F14B8F1000F1ED07542291EB9
:1004A0001EDDC9F100021CE0B8F1010F4FF00000A1
:1004B00001D0302103E0F24305E02154401CB0425A
:1004C000FBDB30460022002121540B99C1F8088043
:1004D000C1E900200FB0BDE8F08FBD1B6D1CDEE749
:1004E0004A4600DA694206A800F07CFA06AB93E8B7
:1004F000070003AB83E8070050460A9901F072F841
:100500008DE80700A0F500501F3800900398002DDB
:1005100009DD42F21F014A46084403A903906846D8
:1005200001F0D1FA08E0A0F500504A461F3803A9AF
:100530000390684601F0DBFA8DE807000004000C28
:1005400003D04FF0FF30410800E01046B8F1000F33
:1005500003D00022009215461EE0751E05D400F05F
:10056000A3F9303262556D1EF9D5B3460122084316
:1005700002D000227F1C04E02078302801D1002224
:100580007F1E002A099786D01DE0112D07DA00F0A2
:100590008BF9303262556D1C50EA0102F5D10843E7
:1005A00002D00098C8B10EE00021681E05E0235C6F
:1005B000625C63542254401E491C8142F7DBAB4607
:1005C000A81B401E0990002004F80B000B98099A04
:1005D000C0F80880C0E9002B7CE711264FF0000826
:1005E00059E72DE9F04F88460446D21D22F0070155
:1005F00091B0D1E90001CDE90A0101F035FC0246D4
:100600000B98C00F01D02D2007E02068810701D58D
:100610002B2002E0202101EAC000032A099001D02A
:10062000072A05DB03464146204600F09BF90BE113
:100630002078800601D5E06900E00620B8F1650F5A
:10064000814606D0B8F1660F18D0B8F1670F70D1A7
:1006500031E00020B9F1110F009001DB112301E01E
:1006600009F101030AAA01A90CA8FFF7E4FEDDE9DC
:100670000C70002609F10105834647E001204B4636
:1006800000904FF000470AAA01A90CA8FFF7D3FE7B
:10069000DDE90DB00C995D46002610B909F10100A5
:1006A0000D18B9EB050003D4C0F1FF3609F10105BF
:1006B000A5EB09002BE0B9F1010F01DA4FF00109B8
:1006C0000020B9F1110F0090484601DD112300E030
:1006D00003460AAA01A90CA8FFF7ADFEDDE90C70DC
:1006E0004D4600268346207800070AD4AB4500DA41
:1006F0005D4601A8012D04DD411911F8011C3029C6
:1007000007D04F4502DA17F1040F04DA01208246C0
:100710000FE06D1EEEE7002F02DCED1B3E4403E010
:10072000781CA84200DD7D1CB81B00F1010A4FF0C7
:1007300000472078000703D4AA4501DB4FF0FF3AB9
:100740000021B7F1004F0DF143088DF8431024D07C
:1007500002202B23002F01DA7F422D230A21021EC3
:10076000A0F1010000DC5FB197FBF1FC97FBF1F217
:1007700001FB1C7C17460CF1300C08F801CDEEE7AC
:10078000A8F1010003702188090501D5452100E089
:100790006521A0F1010800F8011C09980FA9A1EB3F
:1007A0000807FF1D00B10120411901EBEA70A169A2
:1007B0003844081A401EA0612078C00602D42046A2
:1007C000AFF30080099828B1D4E901219047206A4D
:1007D000401C20622078C00622D52046AFF300805E
:1007E0001EE0002E04DBB34502DD01A8805D00E0C1
:1007F0003020D4E901219047206A401C2062761CF9
:10080000AAF101005FEA000A0AD100F049F8C068C5
:100810000168405CD4E901219047206A401C2062B5
:10082000281EA5F10105DCDC07E0D4E9012118F858
:10083000010B9047206A401C2062381EA7F1010777
:10084000F3DC2046AFF30080032011B043E610B57F
:10085000436913B1AFF3008001E0FFF7FDFC012015
:1008600010BD127800F124010A7000224A700122A2
:10087000EDE711684FF0FF32E9E70000074B70B574
:100880000D467B4400F05BF80446284600F018F95A
:1008900010B14FF0FF3070BD204670BD0B16000048
:1008A000004870472C01002030B5B0F10A024FEA31
:1008B000900E71F100034EEA817EB0EB0E0061EB09
:1008C00091014FEA101E4EEA017E10EB0E0041EB43
:1008D00011114FEA102E4EEA016E10EB0E0041EBA3
:1008E00011214FEA104E4EEA014E10EB0E0041EB83
:1008F0001141401841F100014FEAD00040EA417037
:100900004FEAD10110EB80054FEA810444EA90746C
:1009100044EB01046D1944EB0404521BA3414FF056
:10092000000348BF0A3200D530BD401C41F1000130
:1009300030BD000001694A1C02610878704700B5AB
:100940008FB0CDE901310021059105497944CDE908
:10095000031011466846FFF74BFC0FB000BD0000C6
:10096000E5FFFFFF2DE9F0411F460446032601681D
:10097000072A01F4006004DB08B116A505E016A5FE
:1009800003E008B115A500E015A521F010002060D6
:10099000A069C01EA0610FB1401EA0612046AFF348
:1009A00000804FB1D4E9012138469047206A401CAD
:1009B0002062C01C206206E0206AFAE7D4E9012127
:1009C00015F8010B9047761EF8D22046AFF3008051
:1009D000BDE8F0814E414E006E616E00494E46000A
:1009E000696E66002DE9F047814616468AB03348A5
:1009F00078440DC88DE80D0030487844801C03AC65
:100A00000DC884E80D0041F69B300844372190FB67
:100A1000F1F290FBF1F5A5F1800501FB12041B3CFE
:100A200002D56442012000E00020DFF890A080465B
:100A30000027FA44AAF1BE0A0DE0E00709D03246C9
:100A4000684607EB47010AEB810101F050F88DE899
:100A5000070064107F1C002CEFD1184F7F44AC3F7F
:100A600018E0E80714D007EB04100DF1180A90E81D
:100A70000E008AE80E00C068F04201D19819089073
:100A8000324606A903A801F032F803AB83E8070059
:100A90006D10641C002DE4D132466946B8F1000F98
:100AA00003A802D001F00FF801E001F020F8C9E935
:100AB0000001C9F808200AB0BDE8F087DC17000083
:100AC000007B00F08000704710B54248542100F0D0
:100AD000D5FA4148542100F0D1FA4048542100F0A1
:100AE000CDFA3F493B483C4A3F4B08603D490A60CC
:100AF0003A491960531C0365481C106501200865BC
:100B00003B48344A39A1784400F00CFA20B93848FF
:100B100078440A3800F0ABFA37482F4A35A17844B8
:100B200000F000FA20B9344878440A3800F09FFAFF
:100B300032482A4A2FA1784400F0F4F920B92F480E
:100B400078440A3800F093FA40232248DC00002160
:100B5000224600F0C4F920B125487844543800F00A
:100B600086FA1D4822464023002100F0B8F920B142
:100B700021487844543800F07AFA18482246102365
:100B8000002100F0ACF9002806D01C487844BDE8EC
:100B90001040563800F06BBA10BD104870B5006DAB
:100BA00020F001040B4800F033FA0B4800F030FA53
:100BB0000A4800F02DFA09E0206D20F001052046DA
:100BC00000F026FA204600F078F82C46002CF3D1ED
:100BD00070BD00001000002064000020B80000205C
:100BE00004000020080000200C000020720000001B
:100BF000DE16000077000000CA160000B6160000DE
:100C00000EB5CDE9000100F031FC029069460120EB
:100C1000ABBE0EBD08B5694600900220ABBE08BD54
:100C20001FB58DE8070069460520ABBE04B010BDB6
:100C30001FB58DE80F0069460620ABBEF6E708B584
:100C4000694600900920ABBE08BD1CB5CDE9000186
:100C500069460A20ABBE1CBD704708B569460090C6
:100C60000C20ABBE08BD0000004870470C010020FE
:100C70007546FFF7F9FFAE4605006946534620F07A
:100C80000700854618B020B5FFF794FABDE820406C
:100C90004FF000064FF000074FF000084FF0000B38
:100CA00021F00701AC46ACE8C009ACE8C009ACE8EB
:100CB000C009ACE8C0098D46704770B50446051FF1
:100CC00000F046FA0068002C14BF446870BD002C88
:100CD00018BFAC423CBF20466468F8D301680A18CC
:100CE000AA4218BF456003D12A6805461144016035
:100CF00028684119A1421CBF6C6070BD61686960C1
:100D000021680844286070BD2DE9F04705460C466F
:100D1000C86820F4201040F48000C860800602D526
:100D2000084600F062FBE06841F282014FF0FF39B3
:100D30000140022903D0204600F000FBB5E000F49A
:100D40002041B1F5004F0FD1C00306D56168E06ABC
:100D5000884200D80846606006E02069E062606072
:100D60006069FFF77AFFA061A0680022EEB2002858
:100D70000DDAE1688B050AD4C043A06041F49030DD
:100D80002260E0606068411C61600670A5E0E06878
:100D90009046226040F40050E060206968BB6069C2
:100DA000FFF74DFF012704F12405A0B1A08910F43D
:100DB000407F08D0E06900F016FA206118B1E068C1
:100DC00040F4006016E0E7612561E06820F44070BF
:100DD00040F480600EE0E06900F005FA0028206130
:100DE000F1D0E06840F4006010F4407FE06002D190
:100DF00040F48070E06020696060E06825696FF011
:100E0000010AC1051FD56168E06A884200D808461A
:100E1000411B04D02246284600F09AFAF0BBE06855
:100E2000010203D5E562C4E9015854E0691CE1629E
:100E30006160E16940F48030491EC4E90210304627
:100E40002E70BDE8F087010202D500F480320AE07E
:100E50006068411C61600670E0680A2E40F48030D2
:100E6000E06006D00022E16A6068814203D90B4647
:100E700002E00122F7E70346A7895B1B7F0503D445
:100E8000E7699F4200DDE2B1814200D80146E56298
:100E90000F1AC4E90158002B09DD00E005E02246E5
:100EA0001946284600F054FA08B14846C9E747B148
:100EB000A069E5626560C01BA061E06840F01000B9
:100EC000E060E068000208D56168A069E562491B3E
:100ED00008446560A0615046B3E73046B1E770B59D
:100EE000C468A50713D0650211D4B2F5807F09D07C
:100EF000B2F5007F06D0B2F5806F08D1012300F172
:100F0000240106E05D1E6FF07F46B54201D301204B
:100F100070BD0161C361416024F470611143C1601F
:100F2000002070BD2DE9F0410C46074616461046DC
:100F300000F06EF82078611C61280AD0722802D077
:100F400077283CD102E00125002405E00225042495
:100F500002E0082448F2020511F8010B2B2806D004
:100F6000622809D011F8010C74280AD00BE045F072
:100F7000030544F00204EFE745F0040544F00104E2
:100F8000EAE744F0100438462146FFF739FE411CD9
:100F900015D00021316171604FF40071F560F1618D
:100FA0007061200704D530460222002100F04AF982
:100FB000306D40F0010030653046BDE8F081002022
:100FC000FBE72DE9F0410D460646104C206DC107A8
:100FD00004D0410804D020F00104F7E722460EE0D7
:100FE000542000F000F907000ED0206D47F00101F9
:100FF000084354212065384600F040F83A46294617
:101000003046BDE8F0418DE70020D6E71000002013
:101010002DE9F04704464FF000094FF0FF37C5684F
:10102000D4E90486A80707D0204600F0BBF9304673
:10103000FFF7F0FD002802DA3846BDE8F087280502
:1010400002D54046FFF739FE4C21204600F016F845
:10105000206D20F0010020654846EEE710B50446FB
:10106000AFF300802046BDE81040FFF78EB810B502
:1010700000F0E2F9BDE8104000F0D8B94FF00002EE
:1010800000B5134694469646203922BFA0E80C507E
:10109000A0E80C50B1F12001BFF4F7AF090728BF59
:1010A000A0E80C5048BF0CC05DF804EB890028BFD5
:1010B00040F8042B08BF704748BF20F8022B11F0FE
:1010C000804F18BF00F8012B704700004FF0013C23
:1010D00050F8042B51F8043B9A4221D1A2EB0C03A7
:1010E000934313EACC1317D150F8042B51F8043B67
:1010F0009A4215D1A2EB0C03934313EACC130BD104
:1011000050F8042B51F8043B9A4209D1A2EB0C038E
:10111000934313EACC13DBD04FF00000704700BFBD
:10112000D01A01BAB1FA81F101F0180122FA01F0E6
:10113000CB40C1F12001DBB2C0B2C01A2CFA01F3DE
:10114000D11A914311EAC311E6D1704770470000EC
:10115000004870471401002070477047704770477F
:1011600038B504460A4600206946AFF300800028DF
:1011700008BF38BD02460099204600F0A4F90120BE
:1011800038BD012000F0F3B9F8B5AFF30080054693
:1011900000200C46102000BF0646A819A0420DD919
:1011A000324669460020AFF30080070008BF00F018
:1011B000DEF90098A04218BF0546C419FFF7C8FF22
:1011C00005600746F01D20F007004619284600F08C
:1011D00073F9B44208BFF8BDA21B31463868BDE8B8
:1011E000F84000F070B970B50646FFF7B1FF05682A
:1011F00006F10B0020F00704B4429CBF002070BD34
:101200002B466A68BAB11068A04210D304F10801F5
:1012100088423CBF5068586007D35168101941603C
:101220001168091B016058601460101D70BD1346E1
:101230005268002AE7D121462846FFF791FF00288F
:10124000DED170BD2DE9F041044616460D464769D2
:10125000007B80072ED03846FFF7F1FC50BB3EB331
:10126000012E02D0022E25D104E0204600F045F9DF
:1012700005441DE03846FFF7F0FCE168002841F026
:101280001001E16005DA204600F058F80120BDE8C1
:10129000F081C9030BD56268E16A914200D811461A
:1012A000A26911442269891A814200DD0846054479
:1012B000002D01DA0220EAE7E16A6068E268814213
:1012C00006D29103E06203D522F4003141F010020E
:1012D000A6690027AE4213DCE16A814201D90B46C0
:1012E00000E0034603EB060C2369ACEB030CAC45B2
:1012F00006DD814201D98C4600E084469C4505D13B
:10130000A760276042F02000A5620DE0AD1BE669F2
:10131000AE1B8142A66000D90846C01A281A206078
:101320005819606022F0200003490840E060002066
:1013300084F84870ABE70000BFCFD7FFC16821F445
:10134000001141F08001C16000218160016070479F
:101350002DE9F047814614460E464FF0FF383248DB
:10136000D5685769054209D03846A169FFF76DFC79
:10137000002811DB2C48C0430540E5602B4632466F
:1013800049463846FFF74CFCA16920F00042B21AEA
:1013900011440028A16103D02046FFF7CFFF40464B
:1013A000BDE8F08770B504460569C06A6168884287
:1013B00000D80846E16821F42011E160C90312D584
:1013C000A84208D02246411B2846FFF7C1FF10B1B2
:1013D0004FF0FF3070BD0020E562C4E90150E068C5
:1013E00020F48030E060002070BD10B50446C06875
:1013F00020F02000E060A16AA06988420DD020465C
:10140000FFF7D0FFE06820F4405040F01000E060AB
:10141000A06AA0612069E062606044F24001E06877
:101420008843E06010BD000010000200002801D0D9
:1014300000F03CB87047000010B5014602A000F073
:101440007DF8012010BD00005349475254524544D5
:101450003A2052656469726563743A2063616E274D
:1014600074206F70656E3A200000000010B5431CB8
:1014700002E010F8011B71B18107FAD14FF001327F
:1014800002C88C1A8C4314EAC211F9D0C01A0A0699
:1014900003D0C01E10BDC01A10BD0A0401D0801EAA
:1014A00010BD0902FCD0401E10BD000001491820EB
:1014B000ABBEFEE72600020000210160C0E901107A
:1014C000704710207047034640688C46002818BFBC
:1014D00088423CBF03464068F8D3186818448842E5
:1014E00007D00CF1030020F00700001D411A521A2A
:1014F0000146081D0A60FFF7E0BB10B50146C2684F
:10150000900703D0900607D5886A0AE000F03EF8FD
:1015100001210160881E10BD8B69486818440B6961
:10152000C01A91F848301BB191F84910401A10BD0B
:101530001103FCD50028FADD401E10BD70B505462C
:101540000C460A2000E06D1C00F018F835B1287830
:101550000028F8D102E0641C00F010F814B12078E3
:101560000028F8D1BDE870400A2000F007B810B597
:1015700000F010F8BDE81040FFF758BF08B5694605
:101580008DF800000320ABBE08BD00000048704786
:101590000C01002010B5012805D0002103A0FFF7A1
:1015A000CDFF012010BD09A1F8E7000053494752C3
:1015B000544D454D3A204F7574206F662068656123
:1015C00070206D656D6F7279000000003A204865EB
:1015D0006170206D656D6F727920636F72727570C6
:1015E000746564005FEA400C08BF91F0000F4FEA99
:1015F0008C234FEAC12243EA51514FEA1C5018BFD5
:1016000000F5F0404FEA300018BF41F000415FEABA
:101610006C5C00F02980BCF1FF3F08BF40F08040C7
:101620007047130C06BF12044FF0100C4FF0000C63
:10163000130E04BF12020CF1080C130F04BF1201A9
:101640000CF1040C930F04BF92000CF1020CD30FA9
:1016500004BF52000CF1010C11464FF00002A0F142
:101660001F00A0EB0C00704711F0004F08BF70473F
:1016700031F000413FF4D5AF0B0C06BF09044FF029
:10168000100C4FF0000C0B0E04BF09020CF1080CFB
:101690000B0F04BF09010CF1040C8B0F04BF890070
:1016A0000CF1020CCB0F04BF49000CF1010CCCF182
:1016B0002003A0EB0C0022FA03F302FA0CF241EA39
:1016C000030100F10100704720F07F4C80EA030025
:1016D00023F07F47ACEB070303F57C5300F0004099
:1016E00003F1FF032DE980494FEA154B09B44FEA96
:1016F000144325EA0B4E24EA03480FF2042606EBB6
:10170000132749083E785FEA320203FB0667C7F5F4
:10171000000707FB06F64FEA54374FEAD64606F1B4
:10172000020607FB066CCCF1005C4FEA1C472CEA72
:10173000074C07FB06F40CFB06F504EB15464FEAD5
:10174000961634BF00204FF000404FEAD13706FB19
:1017500007FC4FEA1C4C0CFB0BF7D21B03FB0CF7EE
:1017600061EB07010CFB0EF7B0EB074072EB174281
:101770000CFB08F734BFA2EB0742B2EB074261EB68
:1017800017414FEA0C444FEA910706FB07FC4FEA6A
:101790001C4C0CFB0BF7B0EBC74072EB573203FB52
:1017A0000CF734BFA2EBC742B2EBC74261EB573133
:1017B0000CFB0EF7B0EBC70072EB57720CFB08F78F
:1017C00034BFA2EBC702B2EBC70261EB5771039FB4
:1017D0004FEA816141EA921104EBCC044FEAD13720
:1017E0004FEA826206FB07FC42EA90124FEA8060F1
:1017F0004FEA1C4C0CFB0BF7D21B03FB0CF761EB05
:1018000007010CFB0EF7B0EB074072EB17420CFB25
:1018100008F734BFA2EB0742B2EB074261EB174176
:101820004FEA8C554FEA910704EB9C2406FB07FC1A
:101830004FEA1C4C0CFB0BF7B0EBC74072EB573276
:1018400003FB0CF734BFA2EBC742B2EBC74261EB1C
:1018500057310CFB0EF7B0EBC70072EB57720CFB65
:1018600008F734BFA2EBC702B2EBC70261EB5771B6
:1018700015EB4C254FEA816141EA92114FEA8262F1
:101880004FEAD13742EA901206FB07FC44F100040C
:101890004FEA80604FEA1C4C0CFB0BF7D21B03FB9A
:1018A0000CF761EB07010CFB0EF7B0EB074072EB96
:1018B00017420CFB08F734BFA2EB0742B2EB07421A
:1018C00061EB174115EB1C154FEA813141EA92415A
:1018D0004FEA823242EA90424FEA80304FEA0C7679
:1018E00044F1000448EA03434EEA0B484FF0000E6F
:1018F000B2EB080C71EB030724BF624639464EEB8E
:101900000E0E4FF0000B0018524149414BEB0B0BF0
:10191000B2EB080C71EB03077BF1000B24BF6246AE
:1019200039464EEB0E0E4FF0000B00185241494164
:101930004BEB0B0BB2EB080C71EB03077BF1000BCD
:1019400024BF624639464EEB0E0E51EA020718BF1D
:1019500046F0010616EB0E7655F1000254F1000137
:1019600003D5BDE88901BDE80088BDE88901BDE86F
:101970000048B619524141EB0101A3F10103704740
:1019800080807F7E7D7C7B7A7978777676757473BC
:10199000727171706F6E6E6D6C6C6B6A6A6968687B
:1019A000676666656464636362616160605F5F5E11
:1019B0005E5D5D5C5C5B5B5A5A5959585857575687
:1019C00056555555545453535252525151505050EC
:1019D0004F4F4F4E4E4D4D4D4C4C4C4B4B4B4A4A3E
:1019E0004A49494948484847474747464646454582
:1019F00045444444444343434342424242414141BB
:101A0000002B26D4770021D01CB54FEA370703B44A
:101A10004FF010004FF010014FF000000FBCBDE878
:101A200010400BF1010BBBF1010F08BF5FEA170774
:101A300022BF12F1010211F101014FF0004143F107
:101A4000000300F0004043EA00007047F9D3570854
:101A5000DAE746EA064613F1400F4FEA16461FDD65
:101A600013F1200FDFBF16430A46002120335B42EB
:101A7000C8D0C3F1200746EA064602FA07F74FEA44
:101A8000164646EA0706C3F1200722FA03F201FAD6
:101A900007F721FA03F14FF0000342EA0702B1E72A
:101AA00046EA020646EA06464FEA164646EA0106B6
:101AB000BCBF46EA0646360C4FF000034FF000026A
:101AC0004FF000019EE72DE9C048934630B491E8FD
:101AD000380007C831EA400C48BF34EA430C03D54C
:101AE000FFF7F2FDFFF78CFFF0BCBDE800882DE9A1
:101AF000C048934630B491E8380007C810F0804FD2
:101B000008BF13F0804F03D100F005F8FFF778FF0E
:101B1000F0BCBDE8008820F07F4780EA030023F096
:101B20007F4C07EB0C03A3F57C5300F00040A3F1BE
:101B3000FE0392F0000F00F0B38095F0000F00F06C
:101B400077802DE901494FEA11404FEA144621EA16
:101B5000004800FB06FC24EA064708FB06F607FBE4
:101B600008F800FB07F718EB06484CEB164C4FEA59
:101B7000124B18EB07484FEA15464CEB174022EA88
:101B80000B4E0BFB06FC25EA06470EFB06F607FB91
:101B90000EFE0BFB07F71EEB064E4CEB164C4FF000
:101BA00000061EEB074E4CEB174B18EB0B0840F1F1
:101BB000000018EB0E0B58EB000840F100008F1AE4
:101BC0004FF000013CBFC943661B14BFB5EB040CCA
:101BD00000213CBFC943F61B4FEA17444EEA8E0E64
:101BE00027EA04454FEA1C4704FB07622CEA074C2E
:101BF00005FB07F70CFB05F604FB0CFC16EB074690
:101C000042EB174216EB0C4642EB1C421BEB06065E
:101C100058EB0202414146EA9E0601D5BDE8018922
:101C2000B619524141EB0101A3F10103BDE801895D
:101C30004FEA14454FEA114724EA054621EA074CCA
:101C400005FB07F406FB07F70CFB06F105FB0CFC94
:101C500011EB074144EB17444FEA124711EB0C41DB
:101C600044EB1C4422EA074C05FB07F206FB07F78E
:101C70000CFB06F605FB0CFC16EB074642EB174285
:101C800016EB0C4642EB1C456A1854F1000148BFA4
:101C90007047B619524141EB0101A3F101037047AE
:101CA00095F0000F37D04FEA11424FEA144721EA6E
:101CB000024624EA074C02FB07F106FB07F70CFB80
:101CC00006F402FB0CFC14EB074441EB17414FEA0E
:101CD000154714EB0C4441EB1C4125EA074C02FB71
:101CE00007F506FB07F70CFB06F602FB0CFC16EBF0
:101CF000074645EB174516EB0C4645EB1C421219FF
:101D000051F1000148BF7047B619524141EB010142
:101D1000A3F1010370474FEA14454FEA114724EA43
:101D2000054621EA074C05FB07F106FB07F70CFB0C
:101D300006F24FF0000605FB0CFC12EB074241EBEC
:101D4000174112EB0C4251EB1C4148BF70479218EF
:101D500041EB0101A3F101037047000010B50446F7
:101D6000214602A0FEF738FA10BD000062617564DA
:101D70003D25640030B5204CE46804F00204022CD8
:101D800001D11E4800E01D481B4CE46804F001042A
:101D900004B140080146184CE46804F00404042C23
:101DA00005D1154C6468C4F30314631C5943124CE9
:101DB0006468C4F3012424B1012C06D0022C13D191
:101DC0000DE00E4C0E4D2C6013E00B4CE468C4F398
:101DD0000314641CB1FBF4F2094C226009E04FF4D7
:101DE0000044074D2C6004E049F64044044D2C604B
:101DF00000BF00BF30BD00000000024000127A00AA
:101E00000000002000B515481549C8611548C06B91
:101E100040F481001349C8630846C06B00F4810098
:101E2000C8630F48C06800200D49C8600846406874
:101E300000204860084680680020886008460069E5
:101E40000020086108464069002048610846806912
:101E500000208861FFF78EFF00BD00001000000821
:101E60000000024000800D40490050EAC12018BF28
:101E700004204A0D18BF40F0010040F2FF72B2EB9F
:101E8000515F08BF40F00200012808BF05207047DD
:101E90008A68002A01DCFEF737BF521E8A604A6852
:101EA000C0B2531C4B601070704700001A49C86BD9
:101EB000FFF754FF1848C16918A0FEF78DF91648BE
:101EC000C16A1AA0FEF788F91348C16B1BA0FEF780
:101ED00083F9114890F84C101CA0FEF77DF90E49CB
:101EE000C86D00F06FF8044622460B461BA0FEF7B3
:101EF00073F90949C86E00F065F8044622460B469E
:101F00001AA0FEF769F90448B0F87C101BA0FEF790
:101F100063F900BFFEE70000AA20000856455253AF
:101F2000494F4E2E2E2E2E2025730A004441544533
:101F30002E2E2E2E2E2E2E2025730A004241554481
:101F40002E2E2E2E2E2E2E2025640A0044455F5064
:101F5000494E2E2E2E2E2E2025640A004144435F2A
:101F60004B302E2E2E2E2E2025660A004144435F34
:101F70004B312E2E2E2E2E2025660A00504F525405
:101F80002E2E2E2E2E2E2E2025780A0010B500295A
:101F90000AD00878002807D005487844FFF796F85B
:101FA000002801D0002010BD0248784410BD000078
:101FB0008E020000860200000808A0F500114FEA1A
:101FC0003101704743004FEAD30C4FEA3C0C4340C9
:101FD0001FBF40070CF1605113F0FE4F70471CF01B
:101FE000006F03D100200CF0004170470CF000435B
:101FF00043EA507010B540EACC0000F00EF800BF84
:10200000000000924FEA0001FFF7D6BF4FF00041F9
:102010004FF00000A1F5002170470EF1020E2EF0E6
:10202000030E5EF8044B244204D44FEA4102B2F19D
:102030007F4F11D84FEA4003B3F17F4F0CD80ED138
:102040004FEAD07CB2F17F4F0CEB4C0C0CF1020C40
:1020500008BF4CEBD17C04E04FF0080C01E04FEAE4
:10206000D17C0CEB4C0324FA03F404F00704B4F124
:10207000040C06D20EEB840CBDE810404CF0010CB1
:102080006047DFE80CF0070802024FF00040A0F5BF
:10209000800010BD0846420018BFD2F1807288BF90
:1020A00000F0004010BDFEF79CBA434F4E46494732
:1020B000555241544F520007000456455253494F60
:1020C0004E0000000004F421000844415445000083
:1020D000000000000004FC210008424155440000BB
:1020E00000000000000000C2010044455F50494E5E
:1020F0000000000000030A0000004144435F4B3031
:10210000000000000001000000004144435F4B312B
:102110000000000000012E90A03C504F52540000DF
:10212000000000000002AA5500003031323334357F
:102130003637383941424344454640305800303103
:10214000323334353637383961626364656640301E
:102150007800000002400000000000A00000000025
:1021600005400000000000C8000000000C40000016
:102170000000409C00000000194000000020BCBE90
:102180000000000034400000BFC91B8E00000004A6
:10219000B5400000504BCFD06607E2CF01000000F1
:1021A0006C4100003E8251AADFEEA734010000001E
:1021B000D9420000DCB5A0E23A301F97FFFFFFFFD5
:1021C000B4450000FD25A0C8E9A3C14FFFFFFFFFF4
:1021D000FF3F00000000008000000000FF3F000003
:1021E00000000080000000003A7474003A7474002B
:1021F0003A74740056312E31303100004175672039
:1022000031312032303136004422000800000020F5
:1022100010000000FC0000085422000810000020FC
:1022200060070000180100081C00000043000000C7
:10223000F8FFFFFF0C0000000E0000000F00000080
:102240002E00000000127A000000000000000000D4
:04225000000000008A
:04000005080000C12E
:00000001FF
